{
  "abi": [
    {
      "inputs": [],
      "stateMutability": "nonpayable",
      "type": "constructor"
    },
    {
      "anonymous": false,
      "inputs": [
        {
          "indexed": true,
          "internalType": "address",
          "name": "owner",
          "type": "address"
        },
        {
          "indexed": true,
          "internalType": "address",
          "name": "approved",
          "type": "address"
        },
        {
          "indexed": true,
          "internalType": "uint256",
          "name": "tokenId",
          "type": "uint256"
        }
      ],
      "name": "Approval",
      "type": "event"
    },
    {
      "anonymous": false,
      "inputs": [
        {
          "indexed": true,
          "internalType": "address",
          "name": "owner",
          "type": "address"
        },
        {
          "indexed": true,
          "internalType": "address",
          "name": "operator",
          "type": "address"
        },
        {
          "indexed": false,
          "internalType": "bool",
          "name": "approved",
          "type": "bool"
        }
      ],
      "name": "ApprovalForAll",
      "type": "event"
    },
    {
      "anonymous": false,
      "inputs": [
        {
          "indexed": true,
          "internalType": "address",
          "name": "from",
          "type": "address"
        },
        {
          "indexed": true,
          "internalType": "address",
          "name": "to",
          "type": "address"
        },
        {
          "indexed": true,
          "internalType": "uint256",
          "name": "tokenId",
          "type": "uint256"
        }
      ],
      "name": "Transfer",
      "type": "event"
    },
    {
      "inputs": [
        {
          "internalType": "address",
          "name": "to",
          "type": "address"
        },
        {
          "internalType": "uint256",
          "name": "tokenId",
          "type": "uint256"
        }
      ],
      "name": "approve",
      "outputs": [],
      "stateMutability": "nonpayable",
      "type": "function"
    },
    {
      "inputs": [
        {
          "internalType": "address",
          "name": "owner",
          "type": "address"
        }
      ],
      "name": "balanceOf",
      "outputs": [
        {
          "internalType": "uint256",
          "name": "",
          "type": "uint256"
        }
      ],
      "stateMutability": "view",
      "type": "function"
    },
    {
      "inputs": [
        {
          "internalType": "bytes32",
          "name": "_bytes32",
          "type": "bytes32"
        }
      ],
      "name": "bytes32ToStr",
      "outputs": [
        {
          "internalType": "string",
          "name": "",
          "type": "string"
        }
      ],
      "stateMutability": "pure",
      "type": "function"
    },
    {
      "inputs": [],
      "name": "getAddressToPay",
      "outputs": [
        {
          "internalType": "address",
          "name": "",
          "type": "address"
        }
      ],
      "stateMutability": "view",
      "type": "function"
    },
    {
      "inputs": [
        {
          "internalType": "uint256",
          "name": "tokenId",
          "type": "uint256"
        }
      ],
      "name": "getApproved",
      "outputs": [
        {
          "internalType": "address",
          "name": "",
          "type": "address"
        }
      ],
      "stateMutability": "view",
      "type": "function"
    },
    {
      "inputs": [],
      "name": "getAthleteAddress",
      "outputs": [
        {
          "internalType": "address",
          "name": "",
          "type": "address"
        }
      ],
      "stateMutability": "view",
      "type": "function"
    },
    {
      "inputs": [],
      "name": "getCurrentTokenId",
      "outputs": [
        {
          "internalType": "uint256",
          "name": "",
          "type": "uint256"
        }
      ],
      "stateMutability": "view",
      "type": "function"
    },
    {
      "inputs": [],
      "name": "getMaxSize",
      "outputs": [
        {
          "internalType": "uint256",
          "name": "",
          "type": "uint256"
        }
      ],
      "stateMutability": "view",
      "type": "function"
    },
    {
      "inputs": [],
      "name": "getMetadataIpfsHash",
      "outputs": [
        {
          "internalType": "string",
          "name": "",
          "type": "string"
        }
      ],
      "stateMutability": "view",
      "type": "function"
    },
    {
      "inputs": [],
      "name": "getPrice",
      "outputs": [
        {
          "internalType": "uint256",
          "name": "",
          "type": "uint256"
        }
      ],
      "stateMutability": "view",
      "type": "function"
    },
    {
      "inputs": [
        {
          "internalType": "address",
          "name": "owner",
          "type": "address"
        },
        {
          "internalType": "address",
          "name": "operator",
          "type": "address"
        }
      ],
      "name": "isApprovedForAll",
      "outputs": [
        {
          "internalType": "bool",
          "name": "",
          "type": "bool"
        }
      ],
      "stateMutability": "view",
      "type": "function"
    },
    {
      "inputs": [],
      "name": "mintNFT",
      "outputs": [
        {
          "internalType": "uint256",
          "name": "",
          "type": "uint256"
        }
      ],
      "stateMutability": "payable",
      "type": "function"
    },
    {
      "inputs": [],
      "name": "name",
      "outputs": [
        {
          "internalType": "string",
          "name": "",
          "type": "string"
        }
      ],
      "stateMutability": "view",
      "type": "function"
    },
    {
      "inputs": [
        {
          "internalType": "uint256",
          "name": "tokenId",
          "type": "uint256"
        }
      ],
      "name": "ownerOf",
      "outputs": [
        {
          "internalType": "address",
          "name": "",
          "type": "address"
        }
      ],
      "stateMutability": "view",
      "type": "function"
    },
    {
      "inputs": [
        {
          "internalType": "address",
          "name": "from",
          "type": "address"
        },
        {
          "internalType": "address",
          "name": "to",
          "type": "address"
        },
        {
          "internalType": "uint256",
          "name": "tokenId",
          "type": "uint256"
        }
      ],
      "name": "safeTransferFrom",
      "outputs": [],
      "stateMutability": "nonpayable",
      "type": "function"
    },
    {
      "inputs": [
        {
          "internalType": "address",
          "name": "from",
          "type": "address"
        },
        {
          "internalType": "address",
          "name": "to",
          "type": "address"
        },
        {
          "internalType": "uint256",
          "name": "tokenId",
          "type": "uint256"
        },
        {
          "internalType": "bytes",
          "name": "_data",
          "type": "bytes"
        }
      ],
      "name": "safeTransferFrom",
      "outputs": [],
      "stateMutability": "nonpayable",
      "type": "function"
    },
    {
      "inputs": [
        {
          "internalType": "address",
          "name": "operator",
          "type": "address"
        },
        {
          "internalType": "bool",
          "name": "approved",
          "type": "bool"
        }
      ],
      "name": "setApprovalForAll",
      "outputs": [],
      "stateMutability": "nonpayable",
      "type": "function"
    },
    {
      "inputs": [
        {
          "internalType": "bytes4",
          "name": "interfaceId",
          "type": "bytes4"
        }
      ],
      "name": "supportsInterface",
      "outputs": [
        {
          "internalType": "bool",
          "name": "",
          "type": "bool"
        }
      ],
      "stateMutability": "view",
      "type": "function"
    },
    {
      "inputs": [],
      "name": "symbol",
      "outputs": [
        {
          "internalType": "string",
          "name": "",
          "type": "string"
        }
      ],
      "stateMutability": "view",
      "type": "function"
    },
    {
      "inputs": [
        {
          "internalType": "uint256",
          "name": "tokenId",
          "type": "uint256"
        }
      ],
      "name": "tokenURI",
      "outputs": [
        {
          "internalType": "string",
          "name": "",
          "type": "string"
        }
      ],
      "stateMutability": "view",
      "type": "function"
    },
    {
      "inputs": [
        {
          "internalType": "address",
          "name": "from",
          "type": "address"
        },
        {
          "internalType": "address",
          "name": "to",
          "type": "address"
        },
        {
          "internalType": "uint256",
          "name": "tokenId",
          "type": "uint256"
        }
      ],
      "name": "transferFrom",
      "outputs": [],
      "stateMutability": "nonpayable",
      "type": "function"
    }
  ],
  "bytecode": {
    "object": "0x60806040523480156200001157600080fd5b50604080518082018252600a81526921b7b63632b1ba34b7b760b11b60208083019182528351808501909452600384526221ac2760e91b9084015281519192916200005f916000916200007e565b508051620000759060019060208401906200007e565b50505062000161565b8280546200008c9062000124565b90600052602060002090601f016020900481019282620000b05760008555620000fb565b82601f10620000cb57805160ff1916838001178555620000fb565b82800160010185558215620000fb579182015b82811115620000fb578251825591602001919060010190620000de565b50620001099291506200010d565b5090565b5b808211156200010957600081556001016200010e565b600181811c908216806200013957607f821691505b602082108114156200015b57634e487b7160e01b600052602260045260246000fd5b50919050565b611b0a80620001716000396000f3fe60806040526004361061012a5760003560e01c806370a08231116100ab578063a5f24b8f1161006f578063a5f24b8f14610308578063b88d4fde14610326578063c87b56dd14610346578063e985e9c514610366578063eaed4fbc146103af578063ef0b2368146103c457600080fd5b806370a082311461028057806395d89b41146102a057806398d5fdca146102b55780639c024b26146102ca578063a22cb465146102e857600080fd5b806323b872dd116100f257806323b872dd146101f657806342842e0e1461021657806356189236146102365780636352211e1461024b57806363e1d57c1461026b57600080fd5b806301ffc9a71461012f57806306fdde0314610164578063081812fc14610186578063095ea7b3146101be57806314f710fe146101e0575b600080fd5b34801561013b57600080fd5b5061014f61014a36600461161f565b6103e4565b60405190151581526020015b60405180910390f35b34801561017057600080fd5b50610179610436565b60405161015b9190611694565b34801561019257600080fd5b506101a66101a13660046116a7565b6104c8565b6040516001600160a01b03909116815260200161015b565b3480156101ca57600080fd5b506101de6101d93660046116d7565b610555565b005b6101e861066b565b60405190815260200161015b565b34801561020257600080fd5b506101de610211366004611701565b6108aa565b34801561022257600080fd5b506101de610231366004611701565b6108db565b34801561024257600080fd5b506007546101e8565b34801561025757600080fd5b506101a66102663660046116a7565b6108f6565b34801561027757600080fd5b50600a546101e8565b34801561028c57600080fd5b506101e861029b36600461173d565b61096d565b3480156102ac57600080fd5b506101796109f4565b3480156102c157600080fd5b506009546101e8565b3480156102d657600080fd5b506008546001600160a01b03166101a6565b3480156102f457600080fd5b506101de610303366004611758565b610a03565b34801561031457600080fd5b50600b546001600160a01b03166101a6565b34801561033257600080fd5b506101de6103413660046117aa565b610a12565b34801561035257600080fd5b506101796103613660046116a7565b610a4a565b34801561037257600080fd5b5061014f610381366004611886565b6001600160a01b03918216600090815260056020908152604080832093909416825291909152205460ff1690565b3480156103bb57600080fd5b50610179610bc1565b3480156103d057600080fd5b506101796103df3660046116a7565b610bd0565b60006001600160e01b031982166380ac58cd60e01b148061041557506001600160e01b03198216635b5e139f60e01b145b8061043057506301ffc9a760e01b6001600160e01b03198316145b92915050565b606060008054610445906118b9565b80601f0160208091040260200160405190810160405280929190818152602001828054610471906118b9565b80156104be5780601f10610493576101008083540402835291602001916104be565b820191906000526020600020905b8154815290600101906020018083116104a157829003601f168201915b5050505050905090565b60006104d382610c59565b6105395760405162461bcd60e51b815260206004820152602c60248201527f4552433732313a20617070726f76656420717565727920666f72206e6f6e657860448201526b34b9ba32b73a103a37b5b2b760a11b60648201526084015b60405180910390fd5b506000908152600460205260409020546001600160a01b031690565b6000610560826108f6565b9050806001600160a01b0316836001600160a01b031614156105ce5760405162461bcd60e51b815260206004820152602160248201527f4552433732313a20617070726f76616c20746f2063757272656e74206f776e656044820152603960f91b6064820152608401610530565b336001600160a01b03821614806105ea57506105ea8133610381565b61065c5760405162461bcd60e51b815260206004820152603860248201527f4552433732313a20617070726f76652063616c6c6572206973206e6f74206f7760448201527f6e6572206e6f7220617070726f76656420666f7220616c6c00000000000000006064820152608401610530565b6106668383610c76565b505050565b60006106776000610ce4565b600880546001600160a01b0319166001600160a01b03929092169190911790556106a16028610d09565b6009556106ae6048610d09565b600a556106bb6014610ce4565b600b80546001600160a01b0319166001600160a01b03929092169190911790556106e56068610d09565b6040516020016106f791815260200190565b604051602081830303815290604052600c908051906020019061071b92919061156d565b5060095434146107625760405162461bcd60e51b8152602060048201526012602482015271496e73756666696369656e742066756e647360701b6044820152606401610530565b600a54600754106107ae5760405162461bcd60e51b815260206004820152601660248201527510dbdb1b1958dd1a5bdb881a5cc81cdbdb19081bdd5d60521b6044820152606401610530565b6107bc600780546001019055565b60006107c760075490565b90506107d33382610d2b565b6108a5816108a06040518060400160405280601981526020017f676174657761792e70696e6174612e636c6f75642f6970667300000000000000815250600c805461081d906118b9565b80601f0160208091040260200160405190810160405280929190818152602001828054610849906118b9565b80156108965780601f1061086b57610100808354040283529160200191610896565b820191906000526020600020905b81548152906001019060200180831161087957829003601f168201915b5050505050610e5e565b610e8a565b919050565b6108b43382610f15565b6108d05760405162461bcd60e51b8152600401610530906118f4565b610666838383610ffb565b61066683838360405180602001604052806000815250610a12565b6000818152600260205260408120546001600160a01b0316806104305760405162461bcd60e51b815260206004820152602960248201527f4552433732313a206f776e657220717565727920666f72206e6f6e657869737460448201526832b73a103a37b5b2b760b91b6064820152608401610530565b60006001600160a01b0382166109d85760405162461bcd60e51b815260206004820152602a60248201527f4552433732313a2062616c616e636520717565727920666f7220746865207a65604482015269726f206164647265737360b01b6064820152608401610530565b506001600160a01b031660009081526003602052604090205490565b606060018054610445906118b9565b610a0e338383611197565b5050565b610a1c3383610f15565b610a385760405162461bcd60e51b8152600401610530906118f4565b610a4484848484611266565b50505050565b6060610a5582610c59565b610abb5760405162461bcd60e51b815260206004820152603160248201527f45524337323155524953746f726167653a2055524920717565727920666f72206044820152703737b732bc34b9ba32b73a103a37b5b2b760791b6064820152608401610530565b60008281526006602052604081208054610ad4906118b9565b80601f0160208091040260200160405190810160405280929190818152602001828054610b00906118b9565b8015610b4d5780601f10610b2257610100808354040283529160200191610b4d565b820191906000526020600020905b815481529060010190602001808311610b3057829003601f168201915b505050505090506000610b6b60408051602081019091526000815290565b9050805160001415610b7e575092915050565b815115610bb0578082604051602001610b98929190611945565b60405160208183030381529060405292505050919050565b610bb984611299565b949350505050565b6060600c8054610445906118b9565b6040805160208082528183019092526060916000919060208201818036833701905050905060005b6020811015610c5257838160208110610c1357610c13611974565b1a60f81b828281518110610c2957610c29611974565b60200101906001600160f81b031916908160001a90535080610c4a816119a0565b915050610bf8565b5092915050565b6000908152600260205260409020546001600160a01b0316151590565b600081815260046020526040902080546001600160a01b0319166001600160a01b0384169081179091558190610cab826108f6565b6001600160a01b03167f8c5be1e5ebec7d5bd14f71427d1e84f3dd0314c0f7b2291e5b200ac8c7c3b92560405160405180910390a45050565b600080610cfb600119368181013560f01c90030190565b929092013560601c92915050565b600080610d20600119368181013560f01c90030190565b929092013592915050565b6001600160a01b038216610d815760405162461bcd60e51b815260206004820181905260248201527f4552433732313a206d696e7420746f20746865207a65726f20616464726573736044820152606401610530565b610d8a81610c59565b15610dd75760405162461bcd60e51b815260206004820152601c60248201527f4552433732313a20746f6b656e20616c7265616479206d696e746564000000006044820152606401610530565b6001600160a01b0382166000908152600360205260408120805460019290610e009084906119bb565b909155505060008181526002602052604080822080546001600160a01b0319166001600160a01b03861690811790915590518392907fddf252ad1be2c89b69c2b068fc378daa952ba7f163c4a11628f55a4df523b3ef908290a45050565b60608282604051602001610e73929190611945565b604051602081830303815290604052905092915050565b610e9382610c59565b610ef65760405162461bcd60e51b815260206004820152602e60248201527f45524337323155524953746f726167653a2055524920736574206f66206e6f6e60448201526d32bc34b9ba32b73a103a37b5b2b760911b6064820152608401610530565b600082815260066020908152604090912082516106669284019061156d565b6000610f2082610c59565b610f815760405162461bcd60e51b815260206004820152602c60248201527f4552433732313a206f70657261746f7220717565727920666f72206e6f6e657860448201526b34b9ba32b73a103a37b5b2b760a11b6064820152608401610530565b6000610f8c836108f6565b9050806001600160a01b0316846001600160a01b03161480610fc75750836001600160a01b0316610fbc846104c8565b6001600160a01b0316145b80610bb957506001600160a01b0380821660009081526005602090815260408083209388168352929052205460ff16610bb9565b826001600160a01b031661100e826108f6565b6001600160a01b0316146110725760405162461bcd60e51b815260206004820152602560248201527f4552433732313a207472616e736665722066726f6d20696e636f72726563742060448201526437bbb732b960d91b6064820152608401610530565b6001600160a01b0382166110d45760405162461bcd60e51b8152602060048201526024808201527f4552433732313a207472616e7366657220746f20746865207a65726f206164646044820152637265737360e01b6064820152608401610530565b6110df600082610c76565b6001600160a01b03831660009081526003602052604081208054600192906111089084906119d3565b90915550506001600160a01b03821660009081526003602052604081208054600192906111369084906119bb565b909155505060008181526002602052604080822080546001600160a01b0319166001600160a01b0386811691821790925591518493918716917fddf252ad1be2c89b69c2b068fc378daa952ba7f163c4a11628f55a4df523b3ef91a4505050565b816001600160a01b0316836001600160a01b031614156111f95760405162461bcd60e51b815260206004820152601960248201527f4552433732313a20617070726f766520746f2063616c6c6572000000000000006044820152606401610530565b6001600160a01b03838116600081815260056020908152604080832094871680845294825291829020805460ff191686151590811790915591519182527f17307eab39ab6107e8899845ad3d59bd9653f200f220920489ca2b5937696c31910160405180910390a3505050565b611271848484610ffb565b61127d84848484611371565b610a445760405162461bcd60e51b8152600401610530906119ea565b60606112a482610c59565b6113085760405162461bcd60e51b815260206004820152602f60248201527f4552433732314d657461646174613a2055524920717565727920666f72206e6f60448201526e3732bc34b9ba32b73a103a37b5b2b760891b6064820152608401610530565b600061131f60408051602081019091526000815290565b9050600081511161133f576040518060200160405280600081525061136a565b806113498461146f565b60405160200161135a929190611945565b6040516020818303038152906040525b9392505050565b60006001600160a01b0384163b1561146457604051630a85bd0160e11b81526001600160a01b0385169063150b7a02906113b5903390899088908890600401611a3c565b6020604051808303816000875af19250505080156113f0575060408051601f3d908101601f191682019092526113ed91810190611a79565b60015b61144a573d80801561141e576040519150601f19603f3d011682016040523d82523d6000602084013e611423565b606091505b5080516114425760405162461bcd60e51b8152600401610530906119ea565b805181602001fd5b6001600160e01b031916630a85bd0160e11b149050610bb9565b506001949350505050565b6060816114935750506040805180820190915260018152600360fc1b602082015290565b8160005b81156114bd57806114a7816119a0565b91506114b69050600a83611aac565b9150611497565b60008167ffffffffffffffff8111156114d8576114d8611794565b6040519080825280601f01601f191660200182016040528015611502576020820181803683370190505b5090505b8415610bb9576115176001836119d3565b9150611524600a86611ac0565b61152f9060306119bb565b60f81b81838151811061154457611544611974565b60200101906001600160f81b031916908160001a905350611566600a86611aac565b9450611506565b828054611579906118b9565b90600052602060002090601f01602090048101928261159b57600085556115e1565b82601f106115b457805160ff19168380011785556115e1565b828001600101855582156115e1579182015b828111156115e15782518255916020019190600101906115c6565b506115ed9291506115f1565b5090565b5b808211156115ed57600081556001016115f2565b6001600160e01b03198116811461161c57600080fd5b50565b60006020828403121561163157600080fd5b813561136a81611606565b60005b8381101561165757818101518382015260200161163f565b83811115610a445750506000910152565b6000815180845261168081602086016020860161163c565b601f01601f19169290920160200192915050565b60208152600061136a6020830184611668565b6000602082840312156116b957600080fd5b5035919050565b80356001600160a01b03811681146108a557600080fd5b600080604083850312156116ea57600080fd5b6116f3836116c0565b946020939093013593505050565b60008060006060848603121561171657600080fd5b61171f846116c0565b925061172d602085016116c0565b9150604084013590509250925092565b60006020828403121561174f57600080fd5b61136a826116c0565b6000806040838503121561176b57600080fd5b611774836116c0565b91506020830135801515811461178957600080fd5b809150509250929050565b634e487b7160e01b600052604160045260246000fd5b600080600080608085870312156117c057600080fd5b6117c9856116c0565b93506117d7602086016116c0565b925060408501359150606085013567ffffffffffffffff808211156117fb57600080fd5b818701915087601f83011261180f57600080fd5b81358181111561182157611821611794565b604051601f8201601f19908116603f0116810190838211818310171561184957611849611794565b816040528281528a602084870101111561186257600080fd5b82602086016020830137600060208483010152809550505050505092959194509250565b6000806040838503121561189957600080fd5b6118a2836116c0565b91506118b0602084016116c0565b90509250929050565b600181811c908216806118cd57607f821691505b602082108114156118ee57634e487b7160e01b600052602260045260246000fd5b50919050565b60208082526031908201527f4552433732313a207472616e736665722063616c6c6572206973206e6f74206f6040820152701ddb995c881b9bdc88185c1c1c9bdd9959607a1b606082015260800190565b6000835161195781846020880161163c565b83519083019061196b81836020880161163c565b01949350505050565b634e487b7160e01b600052603260045260246000fd5b634e487b7160e01b600052601160045260246000fd5b60006000198214156119b4576119b461198a565b5060010190565b600082198211156119ce576119ce61198a565b500190565b6000828210156119e5576119e561198a565b500390565b60208082526032908201527f4552433732313a207472616e7366657220746f206e6f6e20455243373231526560408201527131b2b4bb32b91034b6b83632b6b2b73a32b960711b606082015260800190565b6001600160a01b0385811682528416602082015260408101839052608060608201819052600090611a6f90830184611668565b9695505050505050565b600060208284031215611a8b57600080fd5b815161136a81611606565b634e487b7160e01b600052601260045260246000fd5b600082611abb57611abb611a96565b500490565b600082611acf57611acf611a96565b50069056fea26469706673582212206d6feea6d7bf2a8626b1a3d88fd492969bb1212a76be20f5e194da6f0861ba4f64736f6c634300080a0033",
    "linkReferences": {}
  }
}