{
  "abi": [
    {
      "inputs": [],
      "stateMutability": "nonpayable",
      "type": "constructor"
    },
    {
      "anonymous": false,
      "inputs": [
        {
          "indexed": true,
          "internalType": "address",
          "name": "owner",
          "type": "address"
        },
        {
          "indexed": true,
          "internalType": "address",
          "name": "approved",
          "type": "address"
        },
        {
          "indexed": true,
          "internalType": "uint256",
          "name": "tokenId",
          "type": "uint256"
        }
      ],
      "name": "Approval",
      "type": "event"
    },
    {
      "anonymous": false,
      "inputs": [
        {
          "indexed": true,
          "internalType": "address",
          "name": "owner",
          "type": "address"
        },
        {
          "indexed": true,
          "internalType": "address",
          "name": "operator",
          "type": "address"
        },
        {
          "indexed": false,
          "internalType": "bool",
          "name": "approved",
          "type": "bool"
        }
      ],
      "name": "ApprovalForAll",
      "type": "event"
    },
    {
      "anonymous": false,
      "inputs": [
        {
          "indexed": true,
          "internalType": "address",
          "name": "from",
          "type": "address"
        },
        {
          "indexed": true,
          "internalType": "address",
          "name": "to",
          "type": "address"
        },
        {
          "indexed": true,
          "internalType": "uint256",
          "name": "tokenId",
          "type": "uint256"
        }
      ],
      "name": "Transfer",
      "type": "event"
    },
    {
      "inputs": [
        {
          "internalType": "address",
          "name": "to",
          "type": "address"
        },
        {
          "internalType": "uint256",
          "name": "tokenId",
          "type": "uint256"
        }
      ],
      "name": "approve",
      "outputs": [],
      "stateMutability": "nonpayable",
      "type": "function"
    },
    {
      "inputs": [
        {
          "internalType": "address",
          "name": "owner",
          "type": "address"
        }
      ],
      "name": "balanceOf",
      "outputs": [
        {
          "internalType": "uint256",
          "name": "",
          "type": "uint256"
        }
      ],
      "stateMutability": "view",
      "type": "function"
    },
    {
      "inputs": [
        {
          "internalType": "bytes32",
          "name": "_bytes32",
          "type": "bytes32"
        }
      ],
      "name": "bytes32ToStr",
      "outputs": [
        {
          "internalType": "string",
          "name": "",
          "type": "string"
        }
      ],
      "stateMutability": "pure",
      "type": "function"
    },
    {
      "inputs": [
        {
          "internalType": "uint256",
          "name": "tokenId",
          "type": "uint256"
        }
      ],
      "name": "getApproved",
      "outputs": [
        {
          "internalType": "address",
          "name": "",
          "type": "address"
        }
      ],
      "stateMutability": "view",
      "type": "function"
    },
    {
      "inputs": [],
      "name": "getCurrentTokenId",
      "outputs": [
        {
          "internalType": "uint256",
          "name": "",
          "type": "uint256"
        }
      ],
      "stateMutability": "view",
      "type": "function"
    },
    {
      "inputs": [
        {
          "internalType": "address",
          "name": "owner",
          "type": "address"
        },
        {
          "internalType": "address",
          "name": "operator",
          "type": "address"
        }
      ],
      "name": "isApprovedForAll",
      "outputs": [
        {
          "internalType": "bool",
          "name": "",
          "type": "bool"
        }
      ],
      "stateMutability": "view",
      "type": "function"
    },
    {
      "inputs": [],
      "name": "mintNFT",
      "outputs": [
        {
          "internalType": "uint256",
          "name": "",
          "type": "uint256"
        }
      ],
      "stateMutability": "payable",
      "type": "function"
    },
    {
      "inputs": [],
      "name": "name",
      "outputs": [
        {
          "internalType": "string",
          "name": "",
          "type": "string"
        }
      ],
      "stateMutability": "view",
      "type": "function"
    },
    {
      "inputs": [
        {
          "internalType": "uint256",
          "name": "tokenId",
          "type": "uint256"
        }
      ],
      "name": "ownerOf",
      "outputs": [
        {
          "internalType": "address",
          "name": "",
          "type": "address"
        }
      ],
      "stateMutability": "view",
      "type": "function"
    },
    {
      "inputs": [
        {
          "internalType": "address",
          "name": "from",
          "type": "address"
        },
        {
          "internalType": "address",
          "name": "to",
          "type": "address"
        },
        {
          "internalType": "uint256",
          "name": "tokenId",
          "type": "uint256"
        }
      ],
      "name": "safeTransferFrom",
      "outputs": [],
      "stateMutability": "nonpayable",
      "type": "function"
    },
    {
      "inputs": [
        {
          "internalType": "address",
          "name": "from",
          "type": "address"
        },
        {
          "internalType": "address",
          "name": "to",
          "type": "address"
        },
        {
          "internalType": "uint256",
          "name": "tokenId",
          "type": "uint256"
        },
        {
          "internalType": "bytes",
          "name": "_data",
          "type": "bytes"
        }
      ],
      "name": "safeTransferFrom",
      "outputs": [],
      "stateMutability": "nonpayable",
      "type": "function"
    },
    {
      "inputs": [
        {
          "internalType": "address",
          "name": "operator",
          "type": "address"
        },
        {
          "internalType": "bool",
          "name": "approved",
          "type": "bool"
        }
      ],
      "name": "setApprovalForAll",
      "outputs": [],
      "stateMutability": "nonpayable",
      "type": "function"
    },
    {
      "inputs": [
        {
          "internalType": "bytes4",
          "name": "interfaceId",
          "type": "bytes4"
        }
      ],
      "name": "supportsInterface",
      "outputs": [
        {
          "internalType": "bool",
          "name": "",
          "type": "bool"
        }
      ],
      "stateMutability": "view",
      "type": "function"
    },
    {
      "inputs": [],
      "name": "symbol",
      "outputs": [
        {
          "internalType": "string",
          "name": "",
          "type": "string"
        }
      ],
      "stateMutability": "view",
      "type": "function"
    },
    {
      "inputs": [
        {
          "internalType": "uint256",
          "name": "tokenId",
          "type": "uint256"
        }
      ],
      "name": "tokenURI",
      "outputs": [
        {
          "internalType": "string",
          "name": "",
          "type": "string"
        }
      ],
      "stateMutability": "view",
      "type": "function"
    },
    {
      "inputs": [
        {
          "internalType": "address",
          "name": "from",
          "type": "address"
        },
        {
          "internalType": "address",
          "name": "to",
          "type": "address"
        },
        {
          "internalType": "uint256",
          "name": "tokenId",
          "type": "uint256"
        }
      ],
      "name": "transferFrom",
      "outputs": [],
      "stateMutability": "nonpayable",
      "type": "function"
    }
  ],
  "bytecode": {
    "object": "0x608060405262000010600062000103565b600880546001600160a01b0319166001600160a01b03929092169190911790556200003c602862000129565b6009556200004b604862000129565b600a556200005a601462000103565b600b80546001600160a01b0319166001600160a01b039290921691909117905562000086606862000129565b600c553480156200009657600080fd5b50604080518082018252600a81526921b7b63632b1ba34b7b760b11b60208083019182528351808501909452600384526221ac2760e91b908401528151919291620000e4916000916200014c565b508051620000fa9060019060208401906200014c565b5050506200022f565b6000806200011b600119368181013560f01c90030190565b929092013560601c92915050565b60008062000141600119368181013560f01c90030190565b929092013592915050565b8280546200015a90620001f2565b90600052602060002090601f0160209004810192826200017e5760008555620001c9565b82601f106200019957805160ff1916838001178555620001c9565b82800160010185558215620001c9579182015b82811115620001c9578251825591602001919060010190620001ac565b50620001d7929150620001db565b5090565b5b80821115620001d75760008155600101620001dc565b600181811c908216806200020757607f821691505b602082108114156200022957634e487b7160e01b600052602260045260246000fd5b50919050565b6118d7806200023f6000396000f3fe6080604052600436106100f35760003560e01c80636352211e1161008a578063b88d4fde11610059578063b88d4fde14610289578063c87b56dd146102a9578063e985e9c5146102c9578063ef0b23681461031257600080fd5b80636352211e1461021457806370a082311461023457806395d89b4114610254578063a22cb4651461026957600080fd5b806314f710fe116100c657806314f710fe146101a957806323b872dd146101bf57806342842e0e146101df57806356189236146101ff57600080fd5b806301ffc9a7146100f857806306fdde031461012d578063081812fc1461014f578063095ea7b314610187575b600080fd5b34801561010457600080fd5b506101186101133660046113cb565b610332565b60405190151581526020015b60405180910390f35b34801561013957600080fd5b50610142610384565b6040516101249190611440565b34801561015b57600080fd5b5061016f61016a366004611453565b610416565b6040516001600160a01b039091168152602001610124565b34801561019357600080fd5b506101a76101a2366004611483565b6104a3565b005b6101b16105b9565b604051908152602001610124565b3480156101cb57600080fd5b506101a76101da3660046114ad565b6106ac565b3480156101eb57600080fd5b506101a76101fa3660046114ad565b6106dd565b34801561020b57600080fd5b506007546101b1565b34801561022057600080fd5b5061016f61022f366004611453565b6106f8565b34801561024057600080fd5b506101b161024f3660046114e9565b61076f565b34801561026057600080fd5b506101426107f6565b34801561027557600080fd5b506101a7610284366004611504565b610805565b34801561029557600080fd5b506101a76102a4366004611556565b610814565b3480156102b557600080fd5b506101426102c4366004611453565b61084c565b3480156102d557600080fd5b506101186102e4366004611632565b6001600160a01b03918216600090815260056020908152604080832093909416825291909152205460ff1690565b34801561031e57600080fd5b5061014261032d366004611453565b6109c3565b60006001600160e01b031982166380ac58cd60e01b148061036357506001600160e01b03198216635b5e139f60e01b145b8061037e57506301ffc9a760e01b6001600160e01b03198316145b92915050565b60606000805461039390611665565b80601f01602080910402602001604051908101604052809291908181526020018280546103bf90611665565b801561040c5780601f106103e15761010080835404028352916020019161040c565b820191906000526020600020905b8154815290600101906020018083116103ef57829003601f168201915b5050505050905090565b600061042182610a4c565b6104875760405162461bcd60e51b815260206004820152602c60248201527f4552433732313a20617070726f76656420717565727920666f72206e6f6e657860448201526b34b9ba32b73a103a37b5b2b760a11b60648201526084015b60405180910390fd5b506000908152600460205260409020546001600160a01b031690565b60006104ae826106f8565b9050806001600160a01b0316836001600160a01b0316141561051c5760405162461bcd60e51b815260206004820152602160248201527f4552433732313a20617070726f76616c20746f2063757272656e74206f776e656044820152603960f91b606482015260840161047e565b336001600160a01b0382161480610538575061053881336102e4565b6105aa5760405162461bcd60e51b815260206004820152603860248201527f4552433732313a20617070726f76652063616c6c6572206973206e6f74206f7760448201527f6e6572206e6f7220617070726f76656420666f7220616c6c0000000000000000606482015260840161047e565b6105b48383610a69565b505050565b600060095434146106015760405162461bcd60e51b8152602060048201526012602482015271496e73756666696369656e742066756e647360701b604482015260640161047e565b600a546007541061064d5760405162461bcd60e51b815260206004820152601660248201527510dbdb1b1958dd1a5bdb881a5cc81cdbdb19081bdd5d60521b604482015260640161047e565b61065b600780546001019055565b600061066660075490565b90506106723382610ad7565b6106a7816106a26040518060600160405280602181526020016118816021913961069d600c546109c3565b610c0a565b610c36565b919050565b6106b63382610cc1565b6106d25760405162461bcd60e51b815260040161047e906116a0565b6105b4838383610da7565b6105b483838360405180602001604052806000815250610814565b6000818152600260205260408120546001600160a01b03168061037e5760405162461bcd60e51b815260206004820152602960248201527f4552433732313a206f776e657220717565727920666f72206e6f6e657869737460448201526832b73a103a37b5b2b760b91b606482015260840161047e565b60006001600160a01b0382166107da5760405162461bcd60e51b815260206004820152602a60248201527f4552433732313a2062616c616e636520717565727920666f7220746865207a65604482015269726f206164647265737360b01b606482015260840161047e565b506001600160a01b031660009081526003602052604090205490565b60606001805461039390611665565b610810338383610f43565b5050565b61081e3383610cc1565b61083a5760405162461bcd60e51b815260040161047e906116a0565b61084684848484611012565b50505050565b606061085782610a4c565b6108bd5760405162461bcd60e51b815260206004820152603160248201527f45524337323155524953746f726167653a2055524920717565727920666f72206044820152703737b732bc34b9ba32b73a103a37b5b2b760791b606482015260840161047e565b600082815260066020526040812080546108d690611665565b80601f016020809104026020016040519081016040528092919081815260200182805461090290611665565b801561094f5780601f106109245761010080835404028352916020019161094f565b820191906000526020600020905b81548152906001019060200180831161093257829003601f168201915b50505050509050600061096d60408051602081019091526000815290565b9050805160001415610980575092915050565b8151156109b257808260405160200161099a9291906116f1565b60405160208183030381529060405292505050919050565b6109bb84611045565b949350505050565b6040805160208082528183019092526060916000919060208201818036833701905050905060005b6020811015610a4557838160208110610a0657610a06611720565b1a60f81b828281518110610a1c57610a1c611720565b60200101906001600160f81b031916908160001a90535080610a3d8161174c565b9150506109eb565b5092915050565b6000908152600260205260409020546001600160a01b0316151590565b600081815260046020526040902080546001600160a01b0319166001600160a01b0384169081179091558190610a9e826106f8565b6001600160a01b03167f8c5be1e5ebec7d5bd14f71427d1e84f3dd0314c0f7b2291e5b200ac8c7c3b92560405160405180910390a45050565b6001600160a01b038216610b2d5760405162461bcd60e51b815260206004820181905260248201527f4552433732313a206d696e7420746f20746865207a65726f2061646472657373604482015260640161047e565b610b3681610a4c565b15610b835760405162461bcd60e51b815260206004820152601c60248201527f4552433732313a20746f6b656e20616c7265616479206d696e74656400000000604482015260640161047e565b6001600160a01b0382166000908152600360205260408120805460019290610bac908490611767565b909155505060008181526002602052604080822080546001600160a01b0319166001600160a01b03861690811790915590518392907fddf252ad1be2c89b69c2b068fc378daa952ba7f163c4a11628f55a4df523b3ef908290a45050565b60608282604051602001610c1f9291906116f1565b604051602081830303815290604052905092915050565b610c3f82610a4c565b610ca25760405162461bcd60e51b815260206004820152602e60248201527f45524337323155524953746f726167653a2055524920736574206f66206e6f6e60448201526d32bc34b9ba32b73a103a37b5b2b760911b606482015260840161047e565b600082815260066020908152604090912082516105b492840190611319565b6000610ccc82610a4c565b610d2d5760405162461bcd60e51b815260206004820152602c60248201527f4552433732313a206f70657261746f7220717565727920666f72206e6f6e657860448201526b34b9ba32b73a103a37b5b2b760a11b606482015260840161047e565b6000610d38836106f8565b9050806001600160a01b0316846001600160a01b03161480610d735750836001600160a01b0316610d6884610416565b6001600160a01b0316145b806109bb57506001600160a01b0380821660009081526005602090815260408083209388168352929052205460ff166109bb565b826001600160a01b0316610dba826106f8565b6001600160a01b031614610e1e5760405162461bcd60e51b815260206004820152602560248201527f4552433732313a207472616e736665722066726f6d20696e636f72726563742060448201526437bbb732b960d91b606482015260840161047e565b6001600160a01b038216610e805760405162461bcd60e51b8152602060048201526024808201527f4552433732313a207472616e7366657220746f20746865207a65726f206164646044820152637265737360e01b606482015260840161047e565b610e8b600082610a69565b6001600160a01b0383166000908152600360205260408120805460019290610eb490849061177f565b90915550506001600160a01b0382166000908152600360205260408120805460019290610ee2908490611767565b909155505060008181526002602052604080822080546001600160a01b0319166001600160a01b0386811691821790925591518493918716917fddf252ad1be2c89b69c2b068fc378daa952ba7f163c4a11628f55a4df523b3ef91a4505050565b816001600160a01b0316836001600160a01b03161415610fa55760405162461bcd60e51b815260206004820152601960248201527f4552433732313a20617070726f766520746f2063616c6c657200000000000000604482015260640161047e565b6001600160a01b03838116600081815260056020908152604080832094871680845294825291829020805460ff191686151590811790915591519182527f17307eab39ab6107e8899845ad3d59bd9653f200f220920489ca2b5937696c31910160405180910390a3505050565b61101d848484610da7565b6110298484848461111d565b6108465760405162461bcd60e51b815260040161047e90611796565b606061105082610a4c565b6110b45760405162461bcd60e51b815260206004820152602f60248201527f4552433732314d657461646174613a2055524920717565727920666f72206e6f60448201526e3732bc34b9ba32b73a103a37b5b2b760891b606482015260840161047e565b60006110cb60408051602081019091526000815290565b905060008151116110eb5760405180602001604052806000815250611116565b806110f58461121b565b6040516020016111069291906116f1565b6040516020818303038152906040525b9392505050565b60006001600160a01b0384163b1561121057604051630a85bd0160e11b81526001600160a01b0385169063150b7a02906111619033908990889088906004016117e8565b6020604051808303816000875af192505050801561119c575060408051601f3d908101601f1916820190925261119991810190611825565b60015b6111f6573d8080156111ca576040519150601f19603f3d011682016040523d82523d6000602084013e6111cf565b606091505b5080516111ee5760405162461bcd60e51b815260040161047e90611796565b805181602001fd5b6001600160e01b031916630a85bd0160e11b1490506109bb565b506001949350505050565b60608161123f5750506040805180820190915260018152600360fc1b602082015290565b8160005b811561126957806112538161174c565b91506112629050600a83611858565b9150611243565b60008167ffffffffffffffff81111561128457611284611540565b6040519080825280601f01601f1916602001820160405280156112ae576020820181803683370190505b5090505b84156109bb576112c360018361177f565b91506112d0600a8661186c565b6112db906030611767565b60f81b8183815181106112f0576112f0611720565b60200101906001600160f81b031916908160001a905350611312600a86611858565b94506112b2565b82805461132590611665565b90600052602060002090601f016020900481019282611347576000855561138d565b82601f1061136057805160ff191683800117855561138d565b8280016001018555821561138d579182015b8281111561138d578251825591602001919060010190611372565b5061139992915061139d565b5090565b5b80821115611399576000815560010161139e565b6001600160e01b0319811681146113c857600080fd5b50565b6000602082840312156113dd57600080fd5b8135611116816113b2565b60005b838110156114035781810151838201526020016113eb565b838111156108465750506000910152565b6000815180845261142c8160208601602086016113e8565b601f01601f19169290920160200192915050565b6020815260006111166020830184611414565b60006020828403121561146557600080fd5b5035919050565b80356001600160a01b03811681146106a757600080fd5b6000806040838503121561149657600080fd5b61149f8361146c565b946020939093013593505050565b6000806000606084860312156114c257600080fd5b6114cb8461146c565b92506114d96020850161146c565b9150604084013590509250925092565b6000602082840312156114fb57600080fd5b6111168261146c565b6000806040838503121561151757600080fd5b6115208361146c565b91506020830135801515811461153557600080fd5b809150509250929050565b634e487b7160e01b600052604160045260246000fd5b6000806000806080858703121561156c57600080fd5b6115758561146c565b93506115836020860161146c565b925060408501359150606085013567ffffffffffffffff808211156115a757600080fd5b818701915087601f8301126115bb57600080fd5b8135818111156115cd576115cd611540565b604051601f8201601f19908116603f011681019083821181831017156115f5576115f5611540565b816040528281528a602084870101111561160e57600080fd5b82602086016020830137600060208483010152809550505050505092959194509250565b6000806040838503121561164557600080fd5b61164e8361146c565b915061165c6020840161146c565b90509250929050565b600181811c9082168061167957607f821691505b6020821081141561169a57634e487b7160e01b600052602260045260246000fd5b50919050565b60208082526031908201527f4552433732313a207472616e736665722063616c6c6572206973206e6f74206f6040820152701ddb995c881b9bdc88185c1c1c9bdd9959607a1b606082015260800190565b600083516117038184602088016113e8565b8351908301906117178183602088016113e8565b01949350505050565b634e487b7160e01b600052603260045260246000fd5b634e487b7160e01b600052601160045260246000fd5b600060001982141561176057611760611736565b5060010190565b6000821982111561177a5761177a611736565b500190565b60008282101561179157611791611736565b500390565b60208082526032908201527f4552433732313a207472616e7366657220746f206e6f6e20455243373231526560408201527131b2b4bb32b91034b6b83632b6b2b73a32b960711b606082015260800190565b6001600160a01b038581168252841660208201526040810183905260806060820181905260009061181b90830184611414565b9695505050505050565b60006020828403121561183757600080fd5b8151611116816113b2565b634e487b7160e01b600052601260045260246000fd5b60008261186757611867611842565b500490565b60008261187b5761187b611842565b50069056fe68747470733a2f2f676174657761792e70696e6174612e636c6f75642f69706673a2646970667358221220bdeb2aa8c5ee80461fa1cd95f2713b65f535cef769da0356d0ac7a3baff365ee64736f6c634300080a0033",
    "linkReferences": {}
  }
}