{
  "abi": [
    {
      "inputs": [],
      "stateMutability": "nonpayable",
      "type": "constructor"
    },
    {
      "anonymous": false,
      "inputs": [
        {
          "indexed": true,
          "internalType": "address",
          "name": "owner",
          "type": "address"
        },
        {
          "indexed": true,
          "internalType": "address",
          "name": "approved",
          "type": "address"
        },
        {
          "indexed": true,
          "internalType": "uint256",
          "name": "tokenId",
          "type": "uint256"
        }
      ],
      "name": "Approval",
      "type": "event"
    },
    {
      "anonymous": false,
      "inputs": [
        {
          "indexed": true,
          "internalType": "address",
          "name": "owner",
          "type": "address"
        },
        {
          "indexed": true,
          "internalType": "address",
          "name": "operator",
          "type": "address"
        },
        {
          "indexed": false,
          "internalType": "bool",
          "name": "approved",
          "type": "bool"
        }
      ],
      "name": "ApprovalForAll",
      "type": "event"
    },
    {
      "anonymous": false,
      "inputs": [
        {
          "indexed": true,
          "internalType": "address",
          "name": "from",
          "type": "address"
        },
        {
          "indexed": true,
          "internalType": "address",
          "name": "to",
          "type": "address"
        },
        {
          "indexed": true,
          "internalType": "uint256",
          "name": "tokenId",
          "type": "uint256"
        }
      ],
      "name": "Transfer",
      "type": "event"
    },
    {
      "inputs": [
        {
          "internalType": "address",
          "name": "to",
          "type": "address"
        },
        {
          "internalType": "uint256",
          "name": "tokenId",
          "type": "uint256"
        }
      ],
      "name": "approve",
      "outputs": [],
      "stateMutability": "nonpayable",
      "type": "function"
    },
    {
      "inputs": [
        {
          "internalType": "address",
          "name": "owner",
          "type": "address"
        }
      ],
      "name": "balanceOf",
      "outputs": [
        {
          "internalType": "uint256",
          "name": "",
          "type": "uint256"
        }
      ],
      "stateMutability": "view",
      "type": "function"
    },
    {
      "inputs": [
        {
          "internalType": "bytes32",
          "name": "b1",
          "type": "bytes32"
        },
        {
          "internalType": "bytes32",
          "name": "b2",
          "type": "bytes32"
        }
      ],
      "name": "concat",
      "outputs": [
        {
          "internalType": "bytes",
          "name": "",
          "type": "bytes"
        }
      ],
      "stateMutability": "pure",
      "type": "function"
    },
    {
      "inputs": [],
      "name": "getAddressToPay",
      "outputs": [
        {
          "internalType": "address",
          "name": "",
          "type": "address"
        }
      ],
      "stateMutability": "view",
      "type": "function"
    },
    {
      "inputs": [
        {
          "internalType": "uint256",
          "name": "tokenId",
          "type": "uint256"
        }
      ],
      "name": "getApproved",
      "outputs": [
        {
          "internalType": "address",
          "name": "",
          "type": "address"
        }
      ],
      "stateMutability": "view",
      "type": "function"
    },
    {
      "inputs": [],
      "name": "getAthleteAddress",
      "outputs": [
        {
          "internalType": "address",
          "name": "",
          "type": "address"
        }
      ],
      "stateMutability": "view",
      "type": "function"
    },
    {
      "inputs": [],
      "name": "getCurrentTokenId",
      "outputs": [
        {
          "internalType": "uint256",
          "name": "",
          "type": "uint256"
        }
      ],
      "stateMutability": "view",
      "type": "function"
    },
    {
      "inputs": [],
      "name": "getMaxSize",
      "outputs": [
        {
          "internalType": "uint256",
          "name": "",
          "type": "uint256"
        }
      ],
      "stateMutability": "view",
      "type": "function"
    },
    {
      "inputs": [],
      "name": "getMetadataIpfsHash",
      "outputs": [
        {
          "internalType": "string",
          "name": "",
          "type": "string"
        }
      ],
      "stateMutability": "view",
      "type": "function"
    },
    {
      "inputs": [],
      "name": "getPrice",
      "outputs": [
        {
          "internalType": "uint256",
          "name": "",
          "type": "uint256"
        }
      ],
      "stateMutability": "view",
      "type": "function"
    },
    {
      "inputs": [
        {
          "internalType": "address",
          "name": "owner",
          "type": "address"
        },
        {
          "internalType": "address",
          "name": "operator",
          "type": "address"
        }
      ],
      "name": "isApprovedForAll",
      "outputs": [
        {
          "internalType": "bool",
          "name": "",
          "type": "bool"
        }
      ],
      "stateMutability": "view",
      "type": "function"
    },
    {
      "inputs": [],
      "name": "mintNFT",
      "outputs": [
        {
          "internalType": "uint256",
          "name": "",
          "type": "uint256"
        }
      ],
      "stateMutability": "payable",
      "type": "function"
    },
    {
      "inputs": [],
      "name": "name",
      "outputs": [
        {
          "internalType": "string",
          "name": "",
          "type": "string"
        }
      ],
      "stateMutability": "view",
      "type": "function"
    },
    {
      "inputs": [
        {
          "internalType": "uint256",
          "name": "tokenId",
          "type": "uint256"
        }
      ],
      "name": "ownerOf",
      "outputs": [
        {
          "internalType": "address",
          "name": "",
          "type": "address"
        }
      ],
      "stateMutability": "view",
      "type": "function"
    },
    {
      "inputs": [
        {
          "internalType": "address",
          "name": "from",
          "type": "address"
        },
        {
          "internalType": "address",
          "name": "to",
          "type": "address"
        },
        {
          "internalType": "uint256",
          "name": "tokenId",
          "type": "uint256"
        }
      ],
      "name": "safeTransferFrom",
      "outputs": [],
      "stateMutability": "nonpayable",
      "type": "function"
    },
    {
      "inputs": [
        {
          "internalType": "address",
          "name": "from",
          "type": "address"
        },
        {
          "internalType": "address",
          "name": "to",
          "type": "address"
        },
        {
          "internalType": "uint256",
          "name": "tokenId",
          "type": "uint256"
        },
        {
          "internalType": "bytes",
          "name": "_data",
          "type": "bytes"
        }
      ],
      "name": "safeTransferFrom",
      "outputs": [],
      "stateMutability": "nonpayable",
      "type": "function"
    },
    {
      "inputs": [
        {
          "internalType": "address",
          "name": "operator",
          "type": "address"
        },
        {
          "internalType": "bool",
          "name": "approved",
          "type": "bool"
        }
      ],
      "name": "setApprovalForAll",
      "outputs": [],
      "stateMutability": "nonpayable",
      "type": "function"
    },
    {
      "inputs": [
        {
          "internalType": "bytes4",
          "name": "interfaceId",
          "type": "bytes4"
        }
      ],
      "name": "supportsInterface",
      "outputs": [
        {
          "internalType": "bool",
          "name": "",
          "type": "bool"
        }
      ],
      "stateMutability": "view",
      "type": "function"
    },
    {
      "inputs": [],
      "name": "symbol",
      "outputs": [
        {
          "internalType": "string",
          "name": "",
          "type": "string"
        }
      ],
      "stateMutability": "view",
      "type": "function"
    },
    {
      "inputs": [
        {
          "internalType": "uint256",
          "name": "tokenId",
          "type": "uint256"
        }
      ],
      "name": "tokenURI",
      "outputs": [
        {
          "internalType": "string",
          "name": "",
          "type": "string"
        }
      ],
      "stateMutability": "view",
      "type": "function"
    },
    {
      "inputs": [
        {
          "internalType": "address",
          "name": "from",
          "type": "address"
        },
        {
          "internalType": "address",
          "name": "to",
          "type": "address"
        },
        {
          "internalType": "uint256",
          "name": "tokenId",
          "type": "uint256"
        }
      ],
      "name": "transferFrom",
      "outputs": [],
      "stateMutability": "nonpayable",
      "type": "function"
    }
  ],
  "bytecode": {
    "object": "0x60806040523480156200001157600080fd5b50604080518082018252600a81526921b7b63632b1ba34b7b760b11b60208083019182528351808501909452600384526221ac2760e91b9084015281519192916200005f916000916200007e565b508051620000759060019060208401906200007e565b50505062000161565b8280546200008c9062000124565b90600052602060002090601f016020900481019282620000b05760008555620000fb565b82601f10620000cb57805160ff1916838001178555620000fb565b82800160010185558215620000fb579182015b82811115620000fb578251825591602001919060010190620000de565b50620001099291506200010d565b5090565b5b808211156200010957600081556001016200010e565b600181811c908216806200013957607f821691505b602082108114156200015b57634e487b7160e01b600052602260045260246000fd5b50919050565b611c2180620001716000396000f3fe60806040526004361061012a5760003560e01c806370a08231116100ab578063a22cb4651161006f578063a22cb46514610308578063a5f24b8f14610328578063b88d4fde14610346578063c87b56dd14610366578063e985e9c514610386578063eaed4fbc146103cf57600080fd5b806370a08231146102805780637b9e6200146102a057806395d89b41146102c057806398d5fdca146102d55780639c024b26146102ea57600080fd5b806323b872dd116100f257806323b872dd146101f657806342842e0e1461021657806356189236146102365780636352211e1461024b57806363e1d57c1461026b57600080fd5b806301ffc9a71461012f57806306fdde0314610164578063081812fc14610186578063095ea7b3146101be57806314f710fe146101e0575b600080fd5b34801561013b57600080fd5b5061014f61014a3660046116cf565b6103e4565b60405190151581526020015b60405180910390f35b34801561017057600080fd5b50610179610436565b60405161015b9190611744565b34801561019257600080fd5b506101a66101a1366004611757565b6104c8565b6040516001600160a01b03909116815260200161015b565b3480156101ca57600080fd5b506101de6101d936600461178c565b610555565b005b6101e861066b565b60405190815260200161015b565b34801561020257600080fd5b506101de6102113660046117b6565b6108d8565b34801561022257600080fd5b506101de6102313660046117b6565b610909565b34801561024257600080fd5b506007546101e8565b34801561025757600080fd5b506101a6610266366004611757565b610924565b34801561027757600080fd5b50600a546101e8565b34801561028c57600080fd5b506101e861029b3660046117f2565b61099b565b3480156102ac57600080fd5b506101796102bb36600461180d565b610a22565b3480156102cc57600080fd5b50610179610a55565b3480156102e157600080fd5b506009546101e8565b3480156102f657600080fd5b506008546001600160a01b03166101a6565b34801561031457600080fd5b506101de61032336600461182f565b610a64565b34801561033457600080fd5b50600b546001600160a01b03166101a6565b34801561035257600080fd5b506101de610361366004611881565b610a73565b34801561037257600080fd5b50610179610381366004611757565b610aab565b34801561039257600080fd5b5061014f6103a136600461195d565b6001600160a01b03918216600090815260056020908152604080832093909416825291909152205460ff1690565b3480156103db57600080fd5b50610179610c22565b60006001600160e01b031982166380ac58cd60e01b148061041557506001600160e01b03198216635b5e139f60e01b145b8061043057506301ffc9a760e01b6001600160e01b03198316145b92915050565b60606000805461044590611990565b80601f016020809104026020016040519081016040528092919081815260200182805461047190611990565b80156104be5780601f10610493576101008083540402835291602001916104be565b820191906000526020600020905b8154815290600101906020018083116104a157829003601f168201915b5050505050905090565b60006104d382610c31565b6105395760405162461bcd60e51b815260206004820152602c60248201527f4552433732313a20617070726f76656420717565727920666f72206e6f6e657860448201526b34b9ba32b73a103a37b5b2b760a11b60648201526084015b60405180910390fd5b506000908152600460205260409020546001600160a01b031690565b600061056082610924565b9050806001600160a01b0316836001600160a01b031614156105ce5760405162461bcd60e51b815260206004820152602160248201527f4552433732313a20617070726f76616c20746f2063757272656e74206f776e656044820152603960f91b6064820152608401610530565b336001600160a01b03821614806105ea57506105ea81336103a1565b61065c5760405162461bcd60e51b815260206004820152603860248201527f4552433732313a20617070726f76652063616c6c6572206973206e6f74206f7760448201527f6e6572206e6f7220617070726f76656420666f7220616c6c00000000000000006064820152608401610530565b6106668383610c4e565b505050565b60006106776000610cbc565b600880546001600160a01b0319166001600160a01b03929092169190911790556106a16028610ce1565b6009556106ae6048610ce1565b600a556106bb6014610cbc565b600b80546001600160a01b0319166001600160a01b039290921691909117905560006106e960686002610d03565b9050600081600081518110610700576107006119cb565b6020026020010151905060008260018151811061071f5761071f6119cb565b602090810291909101015190508171ffffffffffffffffffffffffffffffffffff19821661074d8282610a22565b805161076191600c9160209091019061161d565b5060095434146107a85760405162461bcd60e51b8152602060048201526012602482015271496e73756666696369656e742066756e647360701b6044820152606401610530565b600a54600754106107f45760405162461bcd60e51b815260206004820152601660248201527510dbdb1b1958dd1a5bdb881a5cc81cdbdb19081bdd5d60521b6044820152606401610530565b610802600780546001019055565b600061080d60075490565b90506108193382610ddb565b6108ce816108c9604051806060016040528060228152602001611bca60229139600c805461084690611990565b80601f016020809104026020016040519081016040528092919081815260200182805461087290611990565b80156108bf5780601f10610894576101008083540402835291602001916108bf565b820191906000526020600020905b8154815290600101906020018083116108a257829003601f168201915b5050505050610f0e565b610f3a565b9695505050505050565b6108e23382610fc5565b6108fe5760405162461bcd60e51b8152600401610530906119e1565b6106668383836110ab565b61066683838360405180602001604052806000815250610a73565b6000818152600260205260408120546001600160a01b0316806104305760405162461bcd60e51b815260206004820152602960248201527f4552433732313a206f776e657220717565727920666f72206e6f6e657869737460448201526832b73a103a37b5b2b760b91b6064820152608401610530565b60006001600160a01b038216610a065760405162461bcd60e51b815260206004820152602a60248201527f4552433732313a2062616c616e636520717565727920666f7220746865207a65604482015269726f206164647265737360b01b6064820152608401610530565b506001600160a01b031660009081526003602052604090205490565b60408051602e80825260608281019093526000919060208201818036833750505060208101949094525050604082015290565b60606001805461044590611990565b610a6f338383611247565b5050565b610a7d3383610fc5565b610a995760405162461bcd60e51b8152600401610530906119e1565b610aa584848484611316565b50505050565b6060610ab682610c31565b610b1c5760405162461bcd60e51b815260206004820152603160248201527f45524337323155524953746f726167653a2055524920717565727920666f72206044820152703737b732bc34b9ba32b73a103a37b5b2b760791b6064820152608401610530565b60008281526006602052604081208054610b3590611990565b80601f0160208091040260200160405190810160405280929190818152602001828054610b6190611990565b8015610bae5780601f10610b8357610100808354040283529160200191610bae565b820191906000526020600020905b815481529060010190602001808311610b9157829003601f168201915b505050505090506000610bcc60408051602081019091526000815290565b9050805160001415610bdf575092915050565b815115610c11578082604051602001610bf9929190611a32565b60405160208183030381529060405292505050919050565b610c1a84611349565b949350505050565b6060600c805461044590611990565b6000908152600260205260409020546001600160a01b0316151590565b600081815260046020526040902080546001600160a01b0319166001600160a01b0384169081179091558190610c8382610924565b6001600160a01b03167f8c5be1e5ebec7d5bd14f71427d1e84f3dd0314c0f7b2291e5b200ac8c7c3b92560405160405180910390a45050565b600080610cd3600119368181013560f01c90030190565b929092013560601c92915050565b600080610cf8600119368181013560f01c90030190565b929092013592915050565b60606000610d1b600119368181013560f01c90030190565b905060008367ffffffffffffffff1667ffffffffffffffff811115610d4257610d4261186b565b604051908082528060200260200182016040528015610d6b578160200160208202803683370190505b50925060005b8467ffffffffffffffff168167ffffffffffffffff161015610dd257602081028684010135915081848267ffffffffffffffff1681518110610db557610db56119cb565b602090810291909101015280610dca81611a77565b915050610d71565b50505092915050565b6001600160a01b038216610e315760405162461bcd60e51b815260206004820181905260248201527f4552433732313a206d696e7420746f20746865207a65726f20616464726573736044820152606401610530565b610e3a81610c31565b15610e875760405162461bcd60e51b815260206004820152601c60248201527f4552433732313a20746f6b656e20616c7265616479206d696e746564000000006044820152606401610530565b6001600160a01b0382166000908152600360205260408120805460019290610eb0908490611a9f565b909155505060008181526002602052604080822080546001600160a01b0319166001600160a01b03861690811790915590518392907fddf252ad1be2c89b69c2b068fc378daa952ba7f163c4a11628f55a4df523b3ef908290a45050565b60608282604051602001610f23929190611a32565b604051602081830303815290604052905092915050565b610f4382610c31565b610fa65760405162461bcd60e51b815260206004820152602e60248201527f45524337323155524953746f726167653a2055524920736574206f66206e6f6e60448201526d32bc34b9ba32b73a103a37b5b2b760911b6064820152608401610530565b600082815260066020908152604090912082516106669284019061161d565b6000610fd082610c31565b6110315760405162461bcd60e51b815260206004820152602c60248201527f4552433732313a206f70657261746f7220717565727920666f72206e6f6e657860448201526b34b9ba32b73a103a37b5b2b760a11b6064820152608401610530565b600061103c83610924565b9050806001600160a01b0316846001600160a01b031614806110775750836001600160a01b031661106c846104c8565b6001600160a01b0316145b80610c1a57506001600160a01b0380821660009081526005602090815260408083209388168352929052205460ff16610c1a565b826001600160a01b03166110be82610924565b6001600160a01b0316146111225760405162461bcd60e51b815260206004820152602560248201527f4552433732313a207472616e736665722066726f6d20696e636f72726563742060448201526437bbb732b960d91b6064820152608401610530565b6001600160a01b0382166111845760405162461bcd60e51b8152602060048201526024808201527f4552433732313a207472616e7366657220746f20746865207a65726f206164646044820152637265737360e01b6064820152608401610530565b61118f600082610c4e565b6001600160a01b03831660009081526003602052604081208054600192906111b8908490611ab7565b90915550506001600160a01b03821660009081526003602052604081208054600192906111e6908490611a9f565b909155505060008181526002602052604080822080546001600160a01b0319166001600160a01b0386811691821790925591518493918716917fddf252ad1be2c89b69c2b068fc378daa952ba7f163c4a11628f55a4df523b3ef91a4505050565b816001600160a01b0316836001600160a01b031614156112a95760405162461bcd60e51b815260206004820152601960248201527f4552433732313a20617070726f766520746f2063616c6c6572000000000000006044820152606401610530565b6001600160a01b03838116600081815260056020908152604080832094871680845294825291829020805460ff191686151590811790915591519182527f17307eab39ab6107e8899845ad3d59bd9653f200f220920489ca2b5937696c31910160405180910390a3505050565b6113218484846110ab565b61132d84848484611421565b610aa55760405162461bcd60e51b815260040161053090611ace565b606061135482610c31565b6113b85760405162461bcd60e51b815260206004820152602f60248201527f4552433732314d657461646174613a2055524920717565727920666f72206e6f60448201526e3732bc34b9ba32b73a103a37b5b2b760891b6064820152608401610530565b60006113cf60408051602081019091526000815290565b905060008151116113ef576040518060200160405280600081525061141a565b806113f98461151f565b60405160200161140a929190611a32565b6040516020818303038152906040525b9392505050565b60006001600160a01b0384163b1561151457604051630a85bd0160e11b81526001600160a01b0385169063150b7a0290611465903390899088908890600401611b20565b6020604051808303816000875af19250505080156114a0575060408051601f3d908101601f1916820190925261149d91810190611b53565b60015b6114fa573d8080156114ce576040519150601f19603f3d011682016040523d82523d6000602084013e6114d3565b606091505b5080516114f25760405162461bcd60e51b815260040161053090611ace565b805181602001fd5b6001600160e01b031916630a85bd0160e11b149050610c1a565b506001949350505050565b6060816115435750506040805180820190915260018152600360fc1b602082015290565b8160005b811561156d578061155781611b70565b91506115669050600a83611ba1565b9150611547565b60008167ffffffffffffffff8111156115885761158861186b565b6040519080825280601f01601f1916602001820160405280156115b2576020820181803683370190505b5090505b8415610c1a576115c7600183611ab7565b91506115d4600a86611bb5565b6115df906030611a9f565b60f81b8183815181106115f4576115f46119cb565b60200101906001600160f81b031916908160001a905350611616600a86611ba1565b94506115b6565b82805461162990611990565b90600052602060002090601f01602090048101928261164b5760008555611691565b82601f1061166457805160ff1916838001178555611691565b82800160010185558215611691579182015b82811115611691578251825591602001919060010190611676565b5061169d9291506116a1565b5090565b5b8082111561169d57600081556001016116a2565b6001600160e01b0319811681146116cc57600080fd5b50565b6000602082840312156116e157600080fd5b813561141a816116b6565b60005b838110156117075781810151838201526020016116ef565b83811115610aa55750506000910152565b600081518084526117308160208601602086016116ec565b601f01601f19169290920160200192915050565b60208152600061141a6020830184611718565b60006020828403121561176957600080fd5b5035919050565b80356001600160a01b038116811461178757600080fd5b919050565b6000806040838503121561179f57600080fd5b6117a883611770565b946020939093013593505050565b6000806000606084860312156117cb57600080fd5b6117d484611770565b92506117e260208501611770565b9150604084013590509250925092565b60006020828403121561180457600080fd5b61141a82611770565b6000806040838503121561182057600080fd5b50508035926020909101359150565b6000806040838503121561184257600080fd5b61184b83611770565b91506020830135801515811461186057600080fd5b809150509250929050565b634e487b7160e01b600052604160045260246000fd5b6000806000806080858703121561189757600080fd5b6118a085611770565b93506118ae60208601611770565b925060408501359150606085013567ffffffffffffffff808211156118d257600080fd5b818701915087601f8301126118e657600080fd5b8135818111156118f8576118f861186b565b604051601f8201601f19908116603f011681019083821181831017156119205761192061186b565b816040528281528a602084870101111561193957600080fd5b82602086016020830137600060208483010152809550505050505092959194509250565b6000806040838503121561197057600080fd5b61197983611770565b915061198760208401611770565b90509250929050565b600181811c908216806119a457607f821691505b602082108114156119c557634e487b7160e01b600052602260045260246000fd5b50919050565b634e487b7160e01b600052603260045260246000fd5b60208082526031908201527f4552433732313a207472616e736665722063616c6c6572206973206e6f74206f6040820152701ddb995c881b9bdc88185c1c1c9bdd9959607a1b606082015260800190565b60008351611a448184602088016116ec565b835190830190611a588183602088016116ec565b01949350505050565b634e487b7160e01b600052601160045260246000fd5b600067ffffffffffffffff80831681811415611a9557611a95611a61565b6001019392505050565b60008219821115611ab257611ab2611a61565b500190565b600082821015611ac957611ac9611a61565b500390565b60208082526032908201527f4552433732313a207472616e7366657220746f206e6f6e20455243373231526560408201527131b2b4bb32b91034b6b83632b6b2b73a32b960711b606082015260800190565b6001600160a01b03858116825284166020820152604081018390526080606082018190526000906108ce90830184611718565b600060208284031215611b6557600080fd5b815161141a816116b6565b6000600019821415611b8457611b84611a61565b5060010190565b634e487b7160e01b600052601260045260246000fd5b600082611bb057611bb0611b8b565b500490565b600082611bc457611bc4611b8b565b50069056fe68747470733a2f2f676174657761792e70696e6174612e636c6f75642f697066732fa264697066735822122074574f3796f0273244a9b0372b25ca16f8e1d55fad0a7338c873ae6fc0e3d52864736f6c634300080a0033",
    "linkReferences": {}
  }
}