{
  "abi": [
    {
      "inputs": [],
      "stateMutability": "nonpayable",
      "type": "constructor"
    },
    {
      "anonymous": false,
      "inputs": [
        {
          "indexed": true,
          "internalType": "address",
          "name": "owner",
          "type": "address"
        },
        {
          "indexed": true,
          "internalType": "address",
          "name": "approved",
          "type": "address"
        },
        {
          "indexed": true,
          "internalType": "uint256",
          "name": "tokenId",
          "type": "uint256"
        }
      ],
      "name": "Approval",
      "type": "event"
    },
    {
      "anonymous": false,
      "inputs": [
        {
          "indexed": true,
          "internalType": "address",
          "name": "owner",
          "type": "address"
        },
        {
          "indexed": true,
          "internalType": "address",
          "name": "operator",
          "type": "address"
        },
        {
          "indexed": false,
          "internalType": "bool",
          "name": "approved",
          "type": "bool"
        }
      ],
      "name": "ApprovalForAll",
      "type": "event"
    },
    {
      "anonymous": false,
      "inputs": [
        {
          "indexed": false,
          "internalType": "string",
          "name": "id",
          "type": "string"
        },
        {
          "indexed": false,
          "internalType": "string",
          "name": "name",
          "type": "string"
        },
        {
          "indexed": false,
          "internalType": "string",
          "name": "description",
          "type": "string"
        },
        {
          "indexed": true,
          "internalType": "address",
          "name": "athleteAddress",
          "type": "address"
        },
        {
          "indexed": false,
          "internalType": "uint256",
          "name": "price",
          "type": "uint256"
        },
        {
          "indexed": false,
          "internalType": "uint256",
          "name": "maxSize",
          "type": "uint256"
        },
        {
          "indexed": true,
          "internalType": "address",
          "name": "addressToPay",
          "type": "address"
        },
        {
          "indexed": false,
          "internalType": "string",
          "name": "imageIpfsHash",
          "type": "string"
        },
        {
          "indexed": false,
          "internalType": "string",
          "name": "metadataIpfsHash",
          "type": "string"
        }
      ],
      "name": "NewCollection",
      "type": "event"
    },
    {
      "anonymous": false,
      "inputs": [
        {
          "indexed": true,
          "internalType": "address",
          "name": "from",
          "type": "address"
        },
        {
          "indexed": true,
          "internalType": "address",
          "name": "to",
          "type": "address"
        },
        {
          "indexed": true,
          "internalType": "uint256",
          "name": "tokenId",
          "type": "uint256"
        }
      ],
      "name": "Transfer",
      "type": "event"
    },
    {
      "inputs": [
        {
          "internalType": "address",
          "name": "to",
          "type": "address"
        },
        {
          "internalType": "uint256",
          "name": "tokenId",
          "type": "uint256"
        }
      ],
      "name": "approve",
      "outputs": [],
      "stateMutability": "nonpayable",
      "type": "function"
    },
    {
      "inputs": [
        {
          "internalType": "address",
          "name": "owner",
          "type": "address"
        }
      ],
      "name": "balanceOf",
      "outputs": [
        {
          "internalType": "uint256",
          "name": "",
          "type": "uint256"
        }
      ],
      "stateMutability": "view",
      "type": "function"
    },
    {
      "inputs": [
        {
          "internalType": "string",
          "name": "id",
          "type": "string"
        },
        {
          "internalType": "string",
          "name": "name",
          "type": "string"
        },
        {
          "internalType": "string",
          "name": "description",
          "type": "string"
        },
        {
          "internalType": "address",
          "name": "athleteAddress",
          "type": "address"
        },
        {
          "internalType": "uint256",
          "name": "price",
          "type": "uint256"
        },
        {
          "internalType": "uint256",
          "name": "maxSize",
          "type": "uint256"
        },
        {
          "internalType": "address",
          "name": "addressToPay",
          "type": "address"
        },
        {
          "internalType": "string",
          "name": "imageIpfsHash",
          "type": "string"
        },
        {
          "internalType": "string",
          "name": "metadataIpfsHash",
          "type": "string"
        }
      ],
      "name": "createCollection",
      "outputs": [],
      "stateMutability": "nonpayable",
      "type": "function"
    },
    {
      "inputs": [
        {
          "internalType": "uint256",
          "name": "tokenId",
          "type": "uint256"
        }
      ],
      "name": "getApproved",
      "outputs": [
        {
          "internalType": "address",
          "name": "",
          "type": "address"
        }
      ],
      "stateMutability": "view",
      "type": "function"
    },
    {
      "inputs": [
        {
          "internalType": "string[]",
          "name": "eventIds",
          "type": "string[]"
        }
      ],
      "name": "getEventCounters",
      "outputs": [
        {
          "internalType": "uint256[]",
          "name": "",
          "type": "uint256[]"
        }
      ],
      "stateMutability": "view",
      "type": "function"
    },
    {
      "inputs": [
        {
          "internalType": "address",
          "name": "owner",
          "type": "address"
        },
        {
          "internalType": "address",
          "name": "operator",
          "type": "address"
        }
      ],
      "name": "isApprovedForAll",
      "outputs": [
        {
          "internalType": "bool",
          "name": "",
          "type": "bool"
        }
      ],
      "stateMutability": "view",
      "type": "function"
    },
    {
      "inputs": [
        {
          "internalType": "string",
          "name": "collectionId",
          "type": "string"
        },
        {
          "internalType": "uint256",
          "name": "price",
          "type": "uint256"
        },
        {
          "internalType": "uint256",
          "name": "maxSize",
          "type": "uint256"
        },
        {
          "internalType": "address payable",
          "name": "addressToPay",
          "type": "address"
        },
        {
          "internalType": "string",
          "name": "tokenURI",
          "type": "string"
        }
      ],
      "name": "mintNFT",
      "outputs": [
        {
          "internalType": "uint256",
          "name": "",
          "type": "uint256"
        }
      ],
      "stateMutability": "payable",
      "type": "function"
    },
    {
      "inputs": [],
      "name": "name",
      "outputs": [
        {
          "internalType": "string",
          "name": "",
          "type": "string"
        }
      ],
      "stateMutability": "view",
      "type": "function"
    },
    {
      "inputs": [
        {
          "internalType": "uint256",
          "name": "tokenId",
          "type": "uint256"
        }
      ],
      "name": "ownerOf",
      "outputs": [
        {
          "internalType": "address",
          "name": "",
          "type": "address"
        }
      ],
      "stateMutability": "view",
      "type": "function"
    },
    {
      "inputs": [
        {
          "internalType": "address",
          "name": "from",
          "type": "address"
        },
        {
          "internalType": "address",
          "name": "to",
          "type": "address"
        },
        {
          "internalType": "uint256",
          "name": "tokenId",
          "type": "uint256"
        }
      ],
      "name": "safeTransferFrom",
      "outputs": [],
      "stateMutability": "nonpayable",
      "type": "function"
    },
    {
      "inputs": [
        {
          "internalType": "address",
          "name": "from",
          "type": "address"
        },
        {
          "internalType": "address",
          "name": "to",
          "type": "address"
        },
        {
          "internalType": "uint256",
          "name": "tokenId",
          "type": "uint256"
        },
        {
          "internalType": "bytes",
          "name": "_data",
          "type": "bytes"
        }
      ],
      "name": "safeTransferFrom",
      "outputs": [],
      "stateMutability": "nonpayable",
      "type": "function"
    },
    {
      "inputs": [
        {
          "internalType": "address",
          "name": "operator",
          "type": "address"
        },
        {
          "internalType": "bool",
          "name": "approved",
          "type": "bool"
        }
      ],
      "name": "setApprovalForAll",
      "outputs": [],
      "stateMutability": "nonpayable",
      "type": "function"
    },
    {
      "inputs": [
        {
          "internalType": "bytes4",
          "name": "interfaceId",
          "type": "bytes4"
        }
      ],
      "name": "supportsInterface",
      "outputs": [
        {
          "internalType": "bool",
          "name": "",
          "type": "bool"
        }
      ],
      "stateMutability": "view",
      "type": "function"
    },
    {
      "inputs": [],
      "name": "symbol",
      "outputs": [
        {
          "internalType": "string",
          "name": "",
          "type": "string"
        }
      ],
      "stateMutability": "view",
      "type": "function"
    },
    {
      "inputs": [
        {
          "internalType": "uint256",
          "name": "tokenId",
          "type": "uint256"
        }
      ],
      "name": "tokenURI",
      "outputs": [
        {
          "internalType": "string",
          "name": "",
          "type": "string"
        }
      ],
      "stateMutability": "view",
      "type": "function"
    },
    {
      "inputs": [
        {
          "internalType": "address",
          "name": "from",
          "type": "address"
        },
        {
          "internalType": "address",
          "name": "to",
          "type": "address"
        },
        {
          "internalType": "uint256",
          "name": "tokenId",
          "type": "uint256"
        }
      ],
      "name": "transferFrom",
      "outputs": [],
      "stateMutability": "nonpayable",
      "type": "function"
    }
  ],
  "bytecode": {
    "object": "0x60806040523480156200001157600080fd5b50604080518082018252600481526310d85c9960e21b60208083019182528351808501909452600384526210d49160ea1b908401528151919291620000599160009162000078565b5080516200006f90600190602084019062000078565b5050506200015b565b82805462000086906200011e565b90600052602060002090601f016020900481019282620000aa5760008555620000f5565b82601f10620000c557805160ff1916838001178555620000f5565b82800160010185558215620000f5579182015b82811115620000f5578251825591602001919060010190620000d8565b506200010392915062000107565b5090565b5b8082111562000103576000815560010162000108565b600181811c908216806200013357607f821691505b602082108114156200015557634e487b7160e01b600052602260045260246000fd5b50919050565b611d61806200016b6000396000f3fe6080604052600436106100f35760003560e01c806370a082311161008a578063c87b56dd11610059578063c87b56dd146102b9578063e743ceb5146102d9578063e985e9c5146102ec578063f32dc3041461033557600080fd5b806370a082311461023657806395d89b4114610264578063a22cb46514610279578063b88d4fde1461029957600080fd5b806323b872dd116100c657806323b872dd146101a957806342842e0e146101c95780635588fa34146101e95780636352211e1461021657600080fd5b806301ffc9a7146100f857806306fdde031461012d578063081812fc1461014f578063095ea7b314610187575b600080fd5b34801561010457600080fd5b506101186101133660046114ee565b610355565b60405190151581526020015b60405180910390f35b34801561013957600080fd5b506101426103a7565b6040516101249190611563565b34801561015b57600080fd5b5061016f61016a366004611576565b610439565b6040516001600160a01b039091168152602001610124565b34801561019357600080fd5b506101a76101a23660046115b4565b6104c6565b005b3480156101b557600080fd5b506101a76101c43660046115e0565b6105dc565b3480156101d557600080fd5b506101a76101e43660046115e0565b61060d565b3480156101f557600080fd5b506102096102043660046116e0565b610628565b60405161012491906117a3565b34801561022257600080fd5b5061016f610231366004611576565b6106a8565b34801561024257600080fd5b506102566102513660046117e7565b61071f565b604051908152602001610124565b34801561027057600080fd5b506101426107a6565b34801561028557600080fd5b506101a7610294366004611804565b6107b5565b3480156102a557600080fd5b506101a76102b4366004611842565b6107c4565b3480156102c557600080fd5b506101426102d4366004611576565b6107fc565b6102566102e73660046118c2565b610973565b3480156102f857600080fd5b5061011861030736600461194e565b6001600160a01b03918216600090815260056020908152604080832093909416825291909152205460ff1690565b34801561034157600080fd5b506101a761035036600461197c565b610b0a565b60006001600160e01b031982166380ac58cd60e01b148061038657506001600160e01b03198216635b5e139f60e01b145b806103a157506301ffc9a760e01b6001600160e01b03198316145b92915050565b6060600080546103b690611a83565b80601f01602080910402602001604051908101604052809291908181526020018280546103e290611a83565b801561042f5780601f106104045761010080835404028352916020019161042f565b820191906000526020600020905b81548152906001019060200180831161041257829003601f168201915b5050505050905090565b600061044482610b9b565b6104aa5760405162461bcd60e51b815260206004820152602c60248201527f4552433732313a20617070726f76656420717565727920666f72206e6f6e657860448201526b34b9ba32b73a103a37b5b2b760a11b60648201526084015b60405180910390fd5b506000908152600460205260409020546001600160a01b031690565b60006104d1826106a8565b9050806001600160a01b0316836001600160a01b0316141561053f5760405162461bcd60e51b815260206004820152602160248201527f4552433732313a20617070726f76616c20746f2063757272656e74206f776e656044820152603960f91b60648201526084016104a1565b336001600160a01b038216148061055b575061055b8133610307565b6105cd5760405162461bcd60e51b815260206004820152603860248201527f4552433732313a20617070726f76652063616c6c6572206973206e6f74206f7760448201527f6e6572206e6f7220617070726f76656420666f7220616c6c000000000000000060648201526084016104a1565b6105d78383610bb8565b505050565b6105e63382610c26565b6106025760405162461bcd60e51b81526004016104a190611abe565b6105d7838383610d0c565b6105d7838383604051806020016040528060008152506107c4565b60608060005b83518110156106a157600884828151811061064b5761064b611b0f565b60200260200101516040516106609190611b25565b90815260200160405180910390206000015482828151811061068457610684611b0f565b60209081029190910101528061069981611b57565b91505061062e565b5092915050565b6000818152600260205260408120546001600160a01b0316806103a15760405162461bcd60e51b815260206004820152602960248201527f4552433732313a206f776e657220717565727920666f72206e6f6e657869737460448201526832b73a103a37b5b2b760b91b60648201526084016104a1565b60006001600160a01b03821661078a5760405162461bcd60e51b815260206004820152602a60248201527f4552433732313a2062616c616e636520717565727920666f7220746865207a65604482015269726f206164647265737360b01b60648201526084016104a1565b506001600160a01b031660009081526003602052604090205490565b6060600180546103b690611a83565b6107c0338383610ea8565b5050565b6107ce3383610c26565b6107ea5760405162461bcd60e51b81526004016104a190611abe565b6107f684848484610f77565b50505050565b606061080782610b9b565b61086d5760405162461bcd60e51b815260206004820152603160248201527f45524337323155524953746f726167653a2055524920717565727920666f72206044820152703737b732bc34b9ba32b73a103a37b5b2b760791b60648201526084016104a1565b6000828152600660205260408120805461088690611a83565b80601f01602080910402602001604051908101604052809291908181526020018280546108b290611a83565b80156108ff5780601f106108d4576101008083540402835291602001916108ff565b820191906000526020600020905b8154815290600101906020018083116108e257829003601f168201915b50505050509050600061091d60408051602081019091526000815290565b9050805160001415610930575092915050565b81511561096257808260405160200161094a929190611b72565b60405160208183030381529060405292505050919050565b61096b84610faa565b949350505050565b6000843410156109ba5760405162461bcd60e51b8152602060048201526012602482015271496e73756666696369656e742066756e647360701b60448201526064016104a1565b836008876040516109cb9190611b25565b908152604051908190036020019020541015610a225760405162461bcd60e51b815260206004820152601660248201527510dbdb1b1958dd1a5bdb881a5cc81cdbdb19081bdd5d60521b60448201526064016104a1565b610a4c600887604051610a359190611b25565b908152602001604051809103902080546001019055565b6000610a73600888604051610a619190611b25565b90815260200160405180910390205490565b9050610a7f3382611082565b610a8981846111b5565b6040516001600160a01b0385169087156108fc029088906000818181858888f19350505050158015610abf573d6000803e3d6000fd5b5085341115610b0057336108fc610ad68834611ba1565b6040518115909202916000818181858888f19350505050158015610afe573d6000803e3d6000fd5b505b9695505050505050565b6040805160208101909152600081528060088b604051610b2a9190611b25565b90815260405190819003602001812091519091556001600160a01b0380861691908916907f1757a163ff57c262dc20ed61df13db5158e2cbe6f338bbe8369692226184f75790610b87908e908e908e908d908d908c908c90611bb8565b60405180910390a350505050505050505050565b6000908152600260205260409020546001600160a01b0316151590565b600081815260046020526040902080546001600160a01b0319166001600160a01b0384169081179091558190610bed826106a8565b6001600160a01b03167f8c5be1e5ebec7d5bd14f71427d1e84f3dd0314c0f7b2291e5b200ac8c7c3b92560405160405180910390a45050565b6000610c3182610b9b565b610c925760405162461bcd60e51b815260206004820152602c60248201527f4552433732313a206f70657261746f7220717565727920666f72206e6f6e657860448201526b34b9ba32b73a103a37b5b2b760a11b60648201526084016104a1565b6000610c9d836106a8565b9050806001600160a01b0316846001600160a01b03161480610cd85750836001600160a01b0316610ccd84610439565b6001600160a01b0316145b8061096b57506001600160a01b0380821660009081526005602090815260408083209388168352929052205460ff1661096b565b826001600160a01b0316610d1f826106a8565b6001600160a01b031614610d835760405162461bcd60e51b815260206004820152602560248201527f4552433732313a207472616e736665722066726f6d20696e636f72726563742060448201526437bbb732b960d91b60648201526084016104a1565b6001600160a01b038216610de55760405162461bcd60e51b8152602060048201526024808201527f4552433732313a207472616e7366657220746f20746865207a65726f206164646044820152637265737360e01b60648201526084016104a1565b610df0600082610bb8565b6001600160a01b0383166000908152600360205260408120805460019290610e19908490611ba1565b90915550506001600160a01b0382166000908152600360205260408120805460019290610e47908490611c33565b909155505060008181526002602052604080822080546001600160a01b0319166001600160a01b0386811691821790925591518493918716917fddf252ad1be2c89b69c2b068fc378daa952ba7f163c4a11628f55a4df523b3ef91a4505050565b816001600160a01b0316836001600160a01b03161415610f0a5760405162461bcd60e51b815260206004820152601960248201527f4552433732313a20617070726f766520746f2063616c6c65720000000000000060448201526064016104a1565b6001600160a01b03838116600081815260056020908152604080832094871680845294825291829020805460ff191686151590811790915591519182527f17307eab39ab6107e8899845ad3d59bd9653f200f220920489ca2b5937696c31910160405180910390a3505050565b610f82848484610d0c565b610f8e84848484611240565b6107f65760405162461bcd60e51b81526004016104a190611c4b565b6060610fb582610b9b565b6110195760405162461bcd60e51b815260206004820152602f60248201527f4552433732314d657461646174613a2055524920717565727920666f72206e6f60448201526e3732bc34b9ba32b73a103a37b5b2b760891b60648201526084016104a1565b600061103060408051602081019091526000815290565b90506000815111611050576040518060200160405280600081525061107b565b8061105a8461133e565b60405160200161106b929190611b72565b6040516020818303038152906040525b9392505050565b6001600160a01b0382166110d85760405162461bcd60e51b815260206004820181905260248201527f4552433732313a206d696e7420746f20746865207a65726f206164647265737360448201526064016104a1565b6110e181610b9b565b1561112e5760405162461bcd60e51b815260206004820152601c60248201527f4552433732313a20746f6b656e20616c7265616479206d696e7465640000000060448201526064016104a1565b6001600160a01b0382166000908152600360205260408120805460019290611157908490611c33565b909155505060008181526002602052604080822080546001600160a01b0319166001600160a01b03861690811790915590518392907fddf252ad1be2c89b69c2b068fc378daa952ba7f163c4a11628f55a4df523b3ef908290a45050565b6111be82610b9b565b6112215760405162461bcd60e51b815260206004820152602e60248201527f45524337323155524953746f726167653a2055524920736574206f66206e6f6e60448201526d32bc34b9ba32b73a103a37b5b2b760911b60648201526084016104a1565b600082815260066020908152604090912082516105d79284019061143c565b60006001600160a01b0384163b1561133357604051630a85bd0160e11b81526001600160a01b0385169063150b7a0290611284903390899088908890600401611c9d565b6020604051808303816000875af19250505080156112bf575060408051601f3d908101601f191682019092526112bc91810190611cd0565b60015b611319573d8080156112ed576040519150601f19603f3d011682016040523d82523d6000602084013e6112f2565b606091505b5080516113115760405162461bcd60e51b81526004016104a190611c4b565b805181602001fd5b6001600160e01b031916630a85bd0160e11b14905061096b565b506001949350505050565b6060816113625750506040805180820190915260018152600360fc1b602082015290565b8160005b811561138c578061137681611b57565b91506113859050600a83611d03565b9150611366565b60008167ffffffffffffffff8111156113a7576113a7611621565b6040519080825280601f01601f1916602001820160405280156113d1576020820181803683370190505b5090505b841561096b576113e6600183611ba1565b91506113f3600a86611d17565b6113fe906030611c33565b60f81b81838151811061141357611413611b0f565b60200101906001600160f81b031916908160001a905350611435600a86611d03565b94506113d5565b82805461144890611a83565b90600052602060002090601f01602090048101928261146a57600085556114b0565b82601f1061148357805160ff19168380011785556114b0565b828001600101855582156114b0579182015b828111156114b0578251825591602001919060010190611495565b506114bc9291506114c0565b5090565b5b808211156114bc57600081556001016114c1565b6001600160e01b0319811681146114eb57600080fd5b50565b60006020828403121561150057600080fd5b813561107b816114d5565b60005b8381101561152657818101518382015260200161150e565b838111156107f65750506000910152565b6000815180845261154f81602086016020860161150b565b601f01601f19169290920160200192915050565b60208152600061107b6020830184611537565b60006020828403121561158857600080fd5b5035919050565b6001600160a01b03811681146114eb57600080fd5b80356115af8161158f565b919050565b600080604083850312156115c757600080fd5b82356115d28161158f565b946020939093013593505050565b6000806000606084860312156115f557600080fd5b83356116008161158f565b925060208401356116108161158f565b929592945050506040919091013590565b634e487b7160e01b600052604160045260246000fd5b604051601f8201601f1916810167ffffffffffffffff8111828210171561166057611660611621565b604052919050565b600067ffffffffffffffff83111561168257611682611621565b611695601f8401601f1916602001611637565b90508281528383830111156116a957600080fd5b828260208301376000602084830101529392505050565b600082601f8301126116d157600080fd5b61107b83833560208501611668565b600060208083850312156116f357600080fd5b823567ffffffffffffffff8082111561170b57600080fd5b818501915085601f83011261171f57600080fd5b81358181111561173157611731611621565b8060051b611740858201611637565b918252838101850191858101908984111561175a57600080fd5b86860192505b83831015611796578235858111156117785760008081fd5b6117868b89838a01016116c0565b8352509186019190860190611760565b9998505050505050505050565b6020808252825182820181905260009190848201906040850190845b818110156117db578351835292840192918401916001016117bf565b50909695505050505050565b6000602082840312156117f957600080fd5b813561107b8161158f565b6000806040838503121561181757600080fd5b82356118228161158f565b91506020830135801515811461183757600080fd5b809150509250929050565b6000806000806080858703121561185857600080fd5b84356118638161158f565b935060208501356118738161158f565b925060408501359150606085013567ffffffffffffffff81111561189657600080fd5b8501601f810187136118a757600080fd5b6118b687823560208401611668565b91505092959194509250565b600080600080600060a086880312156118da57600080fd5b853567ffffffffffffffff808211156118f257600080fd5b6118fe89838a016116c0565b965060208801359550604088013594506060880135915061191e8261158f565b9092506080870135908082111561193457600080fd5b50611941888289016116c0565b9150509295509295909350565b6000806040838503121561196157600080fd5b823561196c8161158f565b915060208301356118378161158f565b60008060008060008060008060006101208a8c03121561199b57600080fd5b893567ffffffffffffffff808211156119b357600080fd5b6119bf8d838e016116c0565b9a5060208c01359150808211156119d557600080fd5b6119e18d838e016116c0565b995060408c01359150808211156119f757600080fd5b611a038d838e016116c0565b9850611a1160608d016115a4565b975060808c0135965060a08c01359550611a2d60c08d016115a4565b945060e08c0135915080821115611a4357600080fd5b611a4f8d838e016116c0565b93506101008c0135915080821115611a6657600080fd5b50611a738c828d016116c0565b9150509295985092959850929598565b600181811c90821680611a9757607f821691505b60208210811415611ab857634e487b7160e01b600052602260045260246000fd5b50919050565b60208082526031908201527f4552433732313a207472616e736665722063616c6c6572206973206e6f74206f6040820152701ddb995c881b9bdc88185c1c1c9bdd9959607a1b606082015260800190565b634e487b7160e01b600052603260045260246000fd5b60008251611b3781846020870161150b565b9190910192915050565b634e487b7160e01b600052601160045260246000fd5b6000600019821415611b6b57611b6b611b41565b5060010190565b60008351611b8481846020880161150b565b835190830190611b9881836020880161150b565b01949350505050565b600082821015611bb357611bb3611b41565b500390565b60e081526000611bcb60e083018a611537565b8281036020840152611bdd818a611537565b90508281036040840152611bf18189611537565b905086606084015285608084015282810360a0840152611c118186611537565b905082810360c0840152611c258185611537565b9a9950505050505050505050565b60008219821115611c4657611c46611b41565b500190565b60208082526032908201527f4552433732313a207472616e7366657220746f206e6f6e20455243373231526560408201527131b2b4bb32b91034b6b83632b6b2b73a32b960711b606082015260800190565b6001600160a01b0385811682528416602082015260408101839052608060608201819052600090610b0090830184611537565b600060208284031215611ce257600080fd5b815161107b816114d5565b634e487b7160e01b600052601260045260246000fd5b600082611d1257611d12611ced565b500490565b600082611d2657611d26611ced565b50069056fea2646970667358221220431cc893fc7727e76ca158bb6b3f3843da938a129c8042c8498ba294a864581d64736f6c634300080a0033",
    "linkReferences": {}
  }
}