{
  "contractName": "Card",
  "abi": [
    {
      "inputs": [],
      "stateMutability": "nonpayable",
      "type": "constructor"
    },
    {
      "anonymous": false,
      "inputs": [
        {
          "indexed": true,
          "internalType": "address",
          "name": "owner",
          "type": "address"
        },
        {
          "indexed": true,
          "internalType": "address",
          "name": "approved",
          "type": "address"
        },
        {
          "indexed": true,
          "internalType": "uint256",
          "name": "tokenId",
          "type": "uint256"
        }
      ],
      "name": "Approval",
      "type": "event"
    },
    {
      "anonymous": false,
      "inputs": [
        {
          "indexed": true,
          "internalType": "address",
          "name": "owner",
          "type": "address"
        },
        {
          "indexed": true,
          "internalType": "address",
          "name": "operator",
          "type": "address"
        },
        {
          "indexed": false,
          "internalType": "bool",
          "name": "approved",
          "type": "bool"
        }
      ],
      "name": "ApprovalForAll",
      "type": "event"
    },
    {
      "anonymous": false,
      "inputs": [
        {
          "indexed": false,
          "internalType": "string",
          "name": "collectionId",
          "type": "string"
        },
        {
          "indexed": false,
          "internalType": "string",
          "name": "collectionName",
          "type": "string"
        },
        {
          "indexed": true,
          "internalType": "address",
          "name": "athleteAddress",
          "type": "address"
        },
        {
          "indexed": false,
          "internalType": "uint256",
          "name": "maxSize",
          "type": "uint256"
        },
        {
          "indexed": true,
          "internalType": "address",
          "name": "addressToPay",
          "type": "address"
        },
        {
          "indexed": false,
          "internalType": "string",
          "name": "imageIpfsHash",
          "type": "string"
        }
      ],
      "name": "NewCollection",
      "type": "event"
    },
    {
      "anonymous": false,
      "inputs": [
        {
          "indexed": true,
          "internalType": "address",
          "name": "from",
          "type": "address"
        },
        {
          "indexed": true,
          "internalType": "address",
          "name": "to",
          "type": "address"
        },
        {
          "indexed": true,
          "internalType": "uint256",
          "name": "tokenId",
          "type": "uint256"
        }
      ],
      "name": "Transfer",
      "type": "event"
    },
    {
      "inputs": [
        {
          "internalType": "address",
          "name": "to",
          "type": "address"
        },
        {
          "internalType": "uint256",
          "name": "tokenId",
          "type": "uint256"
        }
      ],
      "name": "approve",
      "outputs": [],
      "stateMutability": "nonpayable",
      "type": "function"
    },
    {
      "inputs": [
        {
          "internalType": "address",
          "name": "owner",
          "type": "address"
        }
      ],
      "name": "balanceOf",
      "outputs": [
        {
          "internalType": "uint256",
          "name": "",
          "type": "uint256"
        }
      ],
      "stateMutability": "view",
      "type": "function",
      "constant": true
    },
    {
      "inputs": [
        {
          "internalType": "uint256",
          "name": "",
          "type": "uint256"
        }
      ],
      "name": "collections",
      "outputs": [
        {
          "internalType": "string",
          "name": "id",
          "type": "string"
        },
        {
          "internalType": "string",
          "name": "collectionName",
          "type": "string"
        },
        {
          "internalType": "address",
          "name": "athleteAddress",
          "type": "address"
        },
        {
          "internalType": "uint256",
          "name": "maxSize",
          "type": "uint256"
        },
        {
          "internalType": "uint256",
          "name": "numMints",
          "type": "uint256"
        },
        {
          "internalType": "address",
          "name": "addressToPay",
          "type": "address"
        },
        {
          "internalType": "string",
          "name": "imageIpfsHash",
          "type": "string"
        }
      ],
      "stateMutability": "view",
      "type": "function",
      "constant": true
    },
    {
      "inputs": [
        {
          "internalType": "uint256",
          "name": "tokenId",
          "type": "uint256"
        }
      ],
      "name": "getApproved",
      "outputs": [
        {
          "internalType": "address",
          "name": "",
          "type": "address"
        }
      ],
      "stateMutability": "view",
      "type": "function",
      "constant": true
    },
    {
      "inputs": [
        {
          "internalType": "address",
          "name": "owner",
          "type": "address"
        },
        {
          "internalType": "address",
          "name": "operator",
          "type": "address"
        }
      ],
      "name": "isApprovedForAll",
      "outputs": [
        {
          "internalType": "bool",
          "name": "",
          "type": "bool"
        }
      ],
      "stateMutability": "view",
      "type": "function",
      "constant": true
    },
    {
      "inputs": [],
      "name": "name",
      "outputs": [
        {
          "internalType": "string",
          "name": "",
          "type": "string"
        }
      ],
      "stateMutability": "view",
      "type": "function",
      "constant": true
    },
    {
      "inputs": [
        {
          "internalType": "uint256",
          "name": "tokenId",
          "type": "uint256"
        }
      ],
      "name": "ownerOf",
      "outputs": [
        {
          "internalType": "address",
          "name": "",
          "type": "address"
        }
      ],
      "stateMutability": "view",
      "type": "function",
      "constant": true
    },
    {
      "inputs": [
        {
          "internalType": "address",
          "name": "from",
          "type": "address"
        },
        {
          "internalType": "address",
          "name": "to",
          "type": "address"
        },
        {
          "internalType": "uint256",
          "name": "tokenId",
          "type": "uint256"
        }
      ],
      "name": "safeTransferFrom",
      "outputs": [],
      "stateMutability": "nonpayable",
      "type": "function"
    },
    {
      "inputs": [
        {
          "internalType": "address",
          "name": "from",
          "type": "address"
        },
        {
          "internalType": "address",
          "name": "to",
          "type": "address"
        },
        {
          "internalType": "uint256",
          "name": "tokenId",
          "type": "uint256"
        },
        {
          "internalType": "bytes",
          "name": "_data",
          "type": "bytes"
        }
      ],
      "name": "safeTransferFrom",
      "outputs": [],
      "stateMutability": "nonpayable",
      "type": "function"
    },
    {
      "inputs": [
        {
          "internalType": "address",
          "name": "operator",
          "type": "address"
        },
        {
          "internalType": "bool",
          "name": "approved",
          "type": "bool"
        }
      ],
      "name": "setApprovalForAll",
      "outputs": [],
      "stateMutability": "nonpayable",
      "type": "function"
    },
    {
      "inputs": [
        {
          "internalType": "bytes4",
          "name": "interfaceId",
          "type": "bytes4"
        }
      ],
      "name": "supportsInterface",
      "outputs": [
        {
          "internalType": "bool",
          "name": "",
          "type": "bool"
        }
      ],
      "stateMutability": "view",
      "type": "function",
      "constant": true
    },
    {
      "inputs": [],
      "name": "symbol",
      "outputs": [
        {
          "internalType": "string",
          "name": "",
          "type": "string"
        }
      ],
      "stateMutability": "view",
      "type": "function",
      "constant": true
    },
    {
      "inputs": [
        {
          "internalType": "uint256",
          "name": "tokenId",
          "type": "uint256"
        }
      ],
      "name": "tokenURI",
      "outputs": [
        {
          "internalType": "string",
          "name": "",
          "type": "string"
        }
      ],
      "stateMutability": "view",
      "type": "function",
      "constant": true
    },
    {
      "inputs": [
        {
          "internalType": "address",
          "name": "from",
          "type": "address"
        },
        {
          "internalType": "address",
          "name": "to",
          "type": "address"
        },
        {
          "internalType": "uint256",
          "name": "tokenId",
          "type": "uint256"
        }
      ],
      "name": "transferFrom",
      "outputs": [],
      "stateMutability": "nonpayable",
      "type": "function"
    },
    {
      "inputs": [
        {
          "internalType": "string",
          "name": "collectionId",
          "type": "string"
        },
        {
          "internalType": "string",
          "name": "collectionName",
          "type": "string"
        },
        {
          "internalType": "address",
          "name": "athleteAddress",
          "type": "address"
        },
        {
          "internalType": "uint256",
          "name": "maxSize",
          "type": "uint256"
        },
        {
          "internalType": "address",
          "name": "addressToPay",
          "type": "address"
        },
        {
          "internalType": "string",
          "name": "imageIpfsHash",
          "type": "string"
        }
      ],
      "name": "createCollection",
      "outputs": [],
      "stateMutability": "nonpayable",
      "type": "function"
    },
    {
      "inputs": [
        {
          "internalType": "address",
          "name": "recipient",
          "type": "address"
        },
        {
          "internalType": "string",
          "name": "tokenURI",
          "type": "string"
        }
      ],
      "name": "mintNFT",
      "outputs": [
        {
          "internalType": "uint256",
          "name": "",
          "type": "uint256"
        }
      ],
      "stateMutability": "nonpayable",
      "type": "function"
    }
  ],
  "bytecode": "0x60806040523480156200001157600080fd5b506040518060400160405280600481526020017f43617264000000000000000000000000000000000000000000000000000000008152506040518060400160405280600381526020017f4352440000000000000000000000000000000000000000000000000000000000815250816000908051906020019062000096929190620000b8565b508060019080519060200190620000af929190620000b8565b505050620001cd565b828054620000c69062000168565b90600052602060002090601f016020900481019282620000ea576000855562000136565b82601f106200010557805160ff191683800117855562000136565b8280016001018555821562000136579182015b828111156200013557825182559160200191906001019062000118565b5b50905062000145919062000149565b5090565b5b80821115620001645760008160009055506001016200014a565b5090565b600060028204905060018216806200018157607f821691505b602082108114156200019857620001976200019e565b5b50919050565b7f4e487b7100000000000000000000000000000000000000000000000000000000600052602260045260246000fd5b6131a880620001dd6000396000f3fe608060405234801561001057600080fd5b50600436106101005760003560e01c806370a0823111610097578063c87b56dd11610066578063c87b56dd146102a9578063e985e9c5146102d9578063eacabe1414610309578063fdbda0ec1461033957610100565b806370a082311461022357806395d89b4114610253578063a22cb46514610271578063b88d4fde1461028d57610100565b8063095ea7b3116100d3578063095ea7b31461019f57806323b872dd146101bb57806342842e0e146101d75780636352211e146101f357610100565b806301ffc9a71461010557806306fdde0314610135578063081812fc14610153578063091f56a214610183575b600080fd5b61011f600480360381019061011a91906120a6565b61036f565b60405161012c919061257d565b60405180910390f35b61013d610451565b60405161014a9190612598565b60405180910390f35b61016d600480360381019061016891906121c9565b6104e3565b60405161017a9190612516565b60405180910390f35b61019d600480360381019061019891906120f8565b610568565b005b6101b960048036038101906101b4919061206a565b610761565b005b6101d560048036038101906101d09190611f10565b610879565b005b6101f160048036038101906101ec9190611f10565b6108d9565b005b61020d600480360381019061020891906121c9565b6108f9565b60405161021a9190612516565b60405180910390f35b61023d60048036038101906102389190611eab565b6109ab565b60405161024a9190612898565b60405180910390f35b61025b610a63565b6040516102689190612598565b60405180910390f35b61028b60048036038101906102869190611fda565b610af5565b005b6102a760048036038101906102a29190611f5f565b610b0b565b005b6102c360048036038101906102be91906121c9565b610b6d565b6040516102d09190612598565b60405180910390f35b6102f360048036038101906102ee9190611ed4565b610cbf565b604051610300919061257d565b60405180910390f35b610323600480360381019061031e9190612016565b610d53565b6040516103309190612898565b60405180910390f35b610353600480360381019061034e91906121c9565b610d8b565b60405161036697969594939291906125ba565b60405180910390f35b60007f80ac58cd000000000000000000000000000000000000000000000000000000007bffffffffffffffffffffffffffffffffffffffffffffffffffffffff1916827bffffffffffffffffffffffffffffffffffffffffffffffffffffffff1916148061043a57507f5b5e139f000000000000000000000000000000000000000000000000000000007bffffffffffffffffffffffffffffffffffffffffffffffffffffffff1916827bffffffffffffffffffffffffffffffffffffffffffffffffffffffff1916145b8061044a575061044982610fb5565b5b9050919050565b60606000805461046090612aee565b80601f016020809104026020016040519081016040528092919081815260200182805461048c90612aee565b80156104d95780601f106104ae576101008083540402835291602001916104d9565b820191906000526020600020905b8154815290600101906020018083116104bc57829003601f168201915b5050505050905090565b60006104ee8261101f565b61052d576040517f08c379a0000000000000000000000000000000000000000000000000000000008152600401610524906127f8565b60405180910390fd5b6004600083815260200190815260200160002060009054906101000a900473ffffffffffffffffffffffffffffffffffffffff169050919050565b60086040518060e001604052808881526020018781526020018673ffffffffffffffffffffffffffffffffffffffff168152602001858152602001600081526020018473ffffffffffffffffffffffffffffffffffffffff168152602001838152509080600181540180825580915050600190039060005260206000209060070201600090919091909150600082015181600001908051906020019061060f929190611ccf565b50602082015181600101908051906020019061062c929190611ccf565b5060408201518160020160006101000a81548173ffffffffffffffffffffffffffffffffffffffff021916908373ffffffffffffffffffffffffffffffffffffffff160217905550606082015181600301556080820151816004015560a08201518160050160006101000a81548173ffffffffffffffffffffffffffffffffffffffff021916908373ffffffffffffffffffffffffffffffffffffffff16021790555060c08201518160060190805190602001906106eb929190611ccf565b5050508173ffffffffffffffffffffffffffffffffffffffff168473ffffffffffffffffffffffffffffffffffffffff167fae7824a90d2843cd436dfd44ac8d8578c871b938f6fd05855a111a976a33fb9688888786604051610751949392919061263e565b60405180910390a3505050505050565b600061076c826108f9565b90508073ffffffffffffffffffffffffffffffffffffffff168373ffffffffffffffffffffffffffffffffffffffff1614156107dd576040517f08c379a00000000000000000000000000000000000000000000000000000000081526004016107d490612858565b60405180910390fd5b8073ffffffffffffffffffffffffffffffffffffffff166107fc61108b565b73ffffffffffffffffffffffffffffffffffffffff16148061082b575061082a8161082561108b565b610cbf565b5b61086a576040517f08c379a000000000000000000000000000000000000000000000000000000000815260040161086190612738565b60405180910390fd5b6108748383611093565b505050565b61088a61088461108b565b8261114c565b6108c9576040517f08c379a00000000000000000000000000000000000000000000000000000000081526004016108c090612878565b60405180910390fd5b6108d483838361122a565b505050565b6108f483838360405180602001604052806000815250610b0b565b505050565b6000806002600084815260200190815260200160002060009054906101000a900473ffffffffffffffffffffffffffffffffffffffff169050600073ffffffffffffffffffffffffffffffffffffffff168173ffffffffffffffffffffffffffffffffffffffff1614156109a2576040517f08c379a000000000000000000000000000000000000000000000000000000000815260040161099990612778565b60405180910390fd5b80915050919050565b60008073ffffffffffffffffffffffffffffffffffffffff168273ffffffffffffffffffffffffffffffffffffffff161415610a1c576040517f08c379a0000000000000000000000000000000000000000000000000000000008152600401610a1390612758565b60405180910390fd5b600360008373ffffffffffffffffffffffffffffffffffffffff1673ffffffffffffffffffffffffffffffffffffffff168152602001908152602001600020549050919050565b606060018054610a7290612aee565b80601f0160208091040260200160405190810160405280929190818152602001828054610a9e90612aee565b8015610aeb5780601f10610ac057610100808354040283529160200191610aeb565b820191906000526020600020905b815481529060010190602001808311610ace57829003601f168201915b5050505050905090565b610b07610b0061108b565b8383611486565b5050565b610b1c610b1661108b565b8361114c565b610b5b576040517f08c379a0000000000000000000000000000000000000000000000000000000008152600401610b5290612878565b60405180910390fd5b610b67848484846115f3565b50505050565b6060610b788261101f565b610bb7576040517f08c379a0000000000000000000000000000000000000000000000000000000008152600401610bae906127d8565b60405180910390fd5b6000600660008481526020019081526020016000208054610bd790612aee565b80601f0160208091040260200160405190810160405280929190818152602001828054610c0390612aee565b8015610c505780601f10610c2557610100808354040283529160200191610c50565b820191906000526020600020905b815481529060010190602001808311610c3357829003601f168201915b505050505090506000610c6161164f565b9050600081511415610c77578192505050610cba565b600082511115610cac578082604051602001610c949291906124f2565b60405160208183030381529060405292505050610cba565b610cb584611666565b925050505b919050565b6000600560008473ffffffffffffffffffffffffffffffffffffffff1673ffffffffffffffffffffffffffffffffffffffff16815260200190815260200160002060008373ffffffffffffffffffffffffffffffffffffffff1673ffffffffffffffffffffffffffffffffffffffff16815260200190815260200160002060009054906101000a900460ff16905092915050565b6000610d5f600761170d565b6000610d6b6007611723565b9050610d778482611731565b610d8181846118ff565b8091505092915050565b60088181548110610d9b57600080fd5b9060005260206000209060070201600091509050806000018054610dbe90612aee565b80601f0160208091040260200160405190810160405280929190818152602001828054610dea90612aee565b8015610e375780601f10610e0c57610100808354040283529160200191610e37565b820191906000526020600020905b815481529060010190602001808311610e1a57829003601f168201915b505050505090806001018054610e4c90612aee565b80601f0160208091040260200160405190810160405280929190818152602001828054610e7890612aee565b8015610ec55780601f10610e9a57610100808354040283529160200191610ec5565b820191906000526020600020905b815481529060010190602001808311610ea857829003601f168201915b5050505050908060020160009054906101000a900473ffffffffffffffffffffffffffffffffffffffff16908060030154908060040154908060050160009054906101000a900473ffffffffffffffffffffffffffffffffffffffff1690806006018054610f3290612aee565b80601f0160208091040260200160405190810160405280929190818152602001828054610f5e90612aee565b8015610fab5780601f10610f8057610100808354040283529160200191610fab565b820191906000526020600020905b815481529060010190602001808311610f8e57829003601f168201915b5050505050905087565b60007f01ffc9a7000000000000000000000000000000000000000000000000000000007bffffffffffffffffffffffffffffffffffffffffffffffffffffffff1916827bffffffffffffffffffffffffffffffffffffffffffffffffffffffff1916149050919050565b60008073ffffffffffffffffffffffffffffffffffffffff166002600084815260200190815260200160002060009054906101000a900473ffffffffffffffffffffffffffffffffffffffff1673ffffffffffffffffffffffffffffffffffffffff1614159050919050565b600033905090565b816004600083815260200190815260200160002060006101000a81548173ffffffffffffffffffffffffffffffffffffffff021916908373ffffffffffffffffffffffffffffffffffffffff160217905550808273ffffffffffffffffffffffffffffffffffffffff16611106836108f9565b73ffffffffffffffffffffffffffffffffffffffff167f8c5be1e5ebec7d5bd14f71427d1e84f3dd0314c0f7b2291e5b200ac8c7c3b92560405160405180910390a45050565b60006111578261101f565b611196576040517f08c379a000000000000000000000000000000000000000000000000000000000815260040161118d90612718565b60405180910390fd5b60006111a1836108f9565b90508073ffffffffffffffffffffffffffffffffffffffff168473ffffffffffffffffffffffffffffffffffffffff16148061121057508373ffffffffffffffffffffffffffffffffffffffff166111f8846104e3565b73ffffffffffffffffffffffffffffffffffffffff16145b8061122157506112208185610cbf565b5b91505092915050565b8273ffffffffffffffffffffffffffffffffffffffff1661124a826108f9565b73ffffffffffffffffffffffffffffffffffffffff16146112a0576040517f08c379a000000000000000000000000000000000000000000000000000000000815260040161129790612818565b60405180910390fd5b600073ffffffffffffffffffffffffffffffffffffffff168273ffffffffffffffffffffffffffffffffffffffff161415611310576040517f08c379a0000000000000000000000000000000000000000000000000000000008152600401611307906126d8565b60405180910390fd5b61131b838383611973565b611326600082611093565b6001600360008573ffffffffffffffffffffffffffffffffffffffff1673ffffffffffffffffffffffffffffffffffffffff16815260200190815260200160002060008282546113769190612a04565b925050819055506001600360008473ffffffffffffffffffffffffffffffffffffffff1673ffffffffffffffffffffffffffffffffffffffff16815260200190815260200160002060008282546113cd919061297d565b92505081905550816002600083815260200190815260200160002060006101000a81548173ffffffffffffffffffffffffffffffffffffffff021916908373ffffffffffffffffffffffffffffffffffffffff160217905550808273ffffffffffffffffffffffffffffffffffffffff168473ffffffffffffffffffffffffffffffffffffffff167fddf252ad1be2c89b69c2b068fc378daa952ba7f163c4a11628f55a4df523b3ef60405160405180910390a4505050565b8173ffffffffffffffffffffffffffffffffffffffff168373ffffffffffffffffffffffffffffffffffffffff1614156114f5576040517f08c379a00000000000000000000000000000000000000000000000000000000081526004016114ec906126f8565b60405180910390fd5b80600560008573ffffffffffffffffffffffffffffffffffffffff1673ffffffffffffffffffffffffffffffffffffffff16815260200190815260200160002060008473ffffffffffffffffffffffffffffffffffffffff1673ffffffffffffffffffffffffffffffffffffffff16815260200190815260200160002060006101000a81548160ff0219169083151502179055508173ffffffffffffffffffffffffffffffffffffffff168373ffffffffffffffffffffffffffffffffffffffff167f17307eab39ab6107e8899845ad3d59bd9653f200f220920489ca2b5937696c31836040516115e6919061257d565b60405180910390a3505050565b6115fe84848461122a565b61160a84848484611978565b611649576040517f08c379a000000000000000000000000000000000000000000000000000000000815260040161164090612698565b60405180910390fd5b50505050565b606060405180602001604052806000815250905090565b60606116718261101f565b6116b0576040517f08c379a00000000000000000000000000000000000000000000000000000000081526004016116a790612838565b60405180910390fd5b60006116ba61164f565b905060008151116116da5760405180602001604052806000815250611705565b806116e484611b0f565b6040516020016116f59291906124f2565b6040516020818303038152906040525b915050919050565b6001816000016000828254019250508190555050565b600081600001549050919050565b600073ffffffffffffffffffffffffffffffffffffffff168273ffffffffffffffffffffffffffffffffffffffff1614156117a1576040517f08c379a0000000000000000000000000000000000000000000000000000000008152600401611798906127b8565b60405180910390fd5b6117aa8161101f565b156117ea576040517f08c379a00000000000000000000000000000000000000000000000000000000081526004016117e1906126b8565b60405180910390fd5b6117f660008383611973565b6001600360008473ffffffffffffffffffffffffffffffffffffffff1673ffffffffffffffffffffffffffffffffffffffff1681526020019081526020016000206000828254611846919061297d565b92505081905550816002600083815260200190815260200160002060006101000a81548173ffffffffffffffffffffffffffffffffffffffff021916908373ffffffffffffffffffffffffffffffffffffffff160217905550808273ffffffffffffffffffffffffffffffffffffffff16600073ffffffffffffffffffffffffffffffffffffffff167fddf252ad1be2c89b69c2b068fc378daa952ba7f163c4a11628f55a4df523b3ef60405160405180910390a45050565b6119088261101f565b611947576040517f08c379a000000000000000000000000000000000000000000000000000000000815260040161193e90612798565b60405180910390fd5b8060066000848152602001908152602001600020908051906020019061196e929190611ccf565b505050565b505050565b60006119998473ffffffffffffffffffffffffffffffffffffffff16611cbc565b15611b02578373ffffffffffffffffffffffffffffffffffffffff1663150b7a026119c261108b565b8786866040518563ffffffff1660e01b81526004016119e49493929190612531565b602060405180830381600087803b1580156119fe57600080fd5b505af1925050508015611a2f57506040513d601f19601f82011682018060405250810190611a2c91906120cf565b60015b611ab2573d8060008114611a5f576040519150601f19603f3d011682016040523d82523d6000602084013e611a64565b606091505b50600081511415611aaa576040517f08c379a0000000000000000000000000000000000000000000000000000000008152600401611aa190612698565b60405180910390fd5b805181602001fd5b63150b7a0260e01b7bffffffffffffffffffffffffffffffffffffffffffffffffffffffff1916817bffffffffffffffffffffffffffffffffffffffffffffffffffffffff191614915050611b07565b600190505b949350505050565b60606000821415611b57576040518060400160405280600181526020017f30000000000000000000000000000000000000000000000000000000000000008152509050611cb7565b600082905060005b60008214611b89578080611b7290612b51565b915050600a82611b8291906129d3565b9150611b5f565b60008167ffffffffffffffff811115611bcb577f4e487b7100000000000000000000000000000000000000000000000000000000600052604160045260246000fd5b6040519080825280601f01601f191660200182016040528015611bfd5781602001600182028036833780820191505090505b5090505b60008514611cb057600182611c169190612a04565b9150600a85611c259190612b9a565b6030611c31919061297d565b60f81b818381518110611c6d577f4e487b7100000000000000000000000000000000000000000000000000000000600052603260045260246000fd5b60200101907effffffffffffffffffffffffffffffffffffffffffffffffffffffffffffff1916908160001a905350600a85611ca991906129d3565b9450611c01565b8093505050505b919050565b600080823b905060008111915050919050565b828054611cdb90612aee565b90600052602060002090601f016020900481019282611cfd5760008555611d44565b82601f10611d1657805160ff1916838001178555611d44565b82800160010185558215611d44579182015b82811115611d43578251825591602001919060010190611d28565b5b509050611d519190611d55565b5090565b5b80821115611d6e576000816000905550600101611d56565b5090565b6000611d85611d80846128d8565b6128b3565b905082815260208101848484011115611d9d57600080fd5b611da8848285612aac565b509392505050565b6000611dc3611dbe84612909565b6128b3565b905082815260208101848484011115611ddb57600080fd5b611de6848285612aac565b509392505050565b600081359050611dfd81613116565b92915050565b600081359050611e128161312d565b92915050565b600081359050611e2781613144565b92915050565b600081519050611e3c81613144565b92915050565b600082601f830112611e5357600080fd5b8135611e63848260208601611d72565b91505092915050565b600082601f830112611e7d57600080fd5b8135611e8d848260208601611db0565b91505092915050565b600081359050611ea58161315b565b92915050565b600060208284031215611ebd57600080fd5b6000611ecb84828501611dee565b91505092915050565b60008060408385031215611ee757600080fd5b6000611ef585828601611dee565b9250506020611f0685828601611dee565b9150509250929050565b600080600060608486031215611f2557600080fd5b6000611f3386828701611dee565b9350506020611f4486828701611dee565b9250506040611f5586828701611e96565b9150509250925092565b60008060008060808587031215611f7557600080fd5b6000611f8387828801611dee565b9450506020611f9487828801611dee565b9350506040611fa587828801611e96565b925050606085013567ffffffffffffffff811115611fc257600080fd5b611fce87828801611e42565b91505092959194509250565b60008060408385031215611fed57600080fd5b6000611ffb85828601611dee565b925050602061200c85828601611e03565b9150509250929050565b6000806040838503121561202957600080fd5b600061203785828601611dee565b925050602083013567ffffffffffffffff81111561205457600080fd5b61206085828601611e6c565b9150509250929050565b6000806040838503121561207d57600080fd5b600061208b85828601611dee565b925050602061209c85828601611e96565b9150509250929050565b6000602082840312156120b857600080fd5b60006120c684828501611e18565b91505092915050565b6000602082840312156120e157600080fd5b60006120ef84828501611e2d565b91505092915050565b60008060008060008060c0878903121561211157600080fd5b600087013567ffffffffffffffff81111561212b57600080fd5b61213789828a01611e6c565b965050602087013567ffffffffffffffff81111561215457600080fd5b61216089828a01611e6c565b955050604061217189828a01611dee565b945050606061218289828a01611e96565b935050608061219389828a01611dee565b92505060a087013567ffffffffffffffff8111156121b057600080fd5b6121bc89828a01611e6c565b9150509295509295509295565b6000602082840312156121db57600080fd5b60006121e984828501611e96565b91505092915050565b6121fb81612a38565b82525050565b61220a81612a4a565b82525050565b600061221b8261293a565b6122258185612950565b9350612235818560208601612abb565b61223e81612c87565b840191505092915050565b600061225482612945565b61225e8185612961565b935061226e818560208601612abb565b61227781612c87565b840191505092915050565b600061228d82612945565b6122978185612972565b93506122a7818560208601612abb565b80840191505092915050565b60006122c0603283612961565b91506122cb82612c98565b604082019050919050565b60006122e3601c83612961565b91506122ee82612ce7565b602082019050919050565b6000612306602483612961565b915061231182612d10565b604082019050919050565b6000612329601983612961565b915061233482612d5f565b602082019050919050565b600061234c602c83612961565b915061235782612d88565b604082019050919050565b600061236f603883612961565b915061237a82612dd7565b604082019050919050565b6000612392602a83612961565b915061239d82612e26565b604082019050919050565b60006123b5602983612961565b91506123c082612e75565b604082019050919050565b60006123d8602e83612961565b91506123e382612ec4565b604082019050919050565b60006123fb602083612961565b915061240682612f13565b602082019050919050565b600061241e603183612961565b915061242982612f3c565b604082019050919050565b6000612441602c83612961565b915061244c82612f8b565b604082019050919050565b6000612464602983612961565b915061246f82612fda565b604082019050919050565b6000612487602f83612961565b915061249282613029565b604082019050919050565b60006124aa602183612961565b91506124b582613078565b604082019050919050565b60006124cd603183612961565b91506124d8826130c7565b604082019050919050565b6124ec81612aa2565b82525050565b60006124fe8285612282565b915061250a8284612282565b91508190509392505050565b600060208201905061252b60008301846121f2565b92915050565b600060808201905061254660008301876121f2565b61255360208301866121f2565b61256060408301856124e3565b81810360608301526125728184612210565b905095945050505050565b60006020820190506125926000830184612201565b92915050565b600060208201905081810360008301526125b28184612249565b905092915050565b600060e08201905081810360008301526125d4818a612249565b905081810360208301526125e88189612249565b90506125f760408301886121f2565b61260460608301876124e3565b61261160808301866124e3565b61261e60a08301856121f2565b81810360c08301526126308184612249565b905098975050505050505050565b600060808201905081810360008301526126588187612249565b9050818103602083015261266c8186612249565b905061267b60408301856124e3565b818103606083015261268d8184612249565b905095945050505050565b600060208201905081810360008301526126b1816122b3565b9050919050565b600060208201905081810360008301526126d1816122d6565b9050919050565b600060208201905081810360008301526126f1816122f9565b9050919050565b600060208201905081810360008301526127118161231c565b9050919050565b600060208201905081810360008301526127318161233f565b9050919050565b6000602082019050818103600083015261275181612362565b9050919050565b6000602082019050818103600083015261277181612385565b9050919050565b60006020820190508181036000830152612791816123a8565b9050919050565b600060208201905081810360008301526127b1816123cb565b9050919050565b600060208201905081810360008301526127d1816123ee565b9050919050565b600060208201905081810360008301526127f181612411565b9050919050565b6000602082019050818103600083015261281181612434565b9050919050565b6000602082019050818103600083015261283181612457565b9050919050565b600060208201905081810360008301526128518161247a565b9050919050565b600060208201905081810360008301526128718161249d565b9050919050565b60006020820190508181036000830152612891816124c0565b9050919050565b60006020820190506128ad60008301846124e3565b92915050565b60006128bd6128ce565b90506128c98282612b20565b919050565b6000604051905090565b600067ffffffffffffffff8211156128f3576128f2612c58565b5b6128fc82612c87565b9050602081019050919050565b600067ffffffffffffffff82111561292457612923612c58565b5b61292d82612c87565b9050602081019050919050565b600081519050919050565b600081519050919050565b600082825260208201905092915050565b600082825260208201905092915050565b600081905092915050565b600061298882612aa2565b915061299383612aa2565b9250827fffffffffffffffffffffffffffffffffffffffffffffffffffffffffffffffff038211156129c8576129c7612bcb565b5b828201905092915050565b60006129de82612aa2565b91506129e983612aa2565b9250826129f9576129f8612bfa565b5b828204905092915050565b6000612a0f82612aa2565b9150612a1a83612aa2565b925082821015612a2d57612a2c612bcb565b5b828203905092915050565b6000612a4382612a82565b9050919050565b60008115159050919050565b60007fffffffff0000000000000000000000000000000000000000000000000000000082169050919050565b600073ffffffffffffffffffffffffffffffffffffffff82169050919050565b6000819050919050565b82818337600083830152505050565b60005b83811015612ad9578082015181840152602081019050612abe565b83811115612ae8576000848401525b50505050565b60006002820490506001821680612b0657607f821691505b60208210811415612b1a57612b19612c29565b5b50919050565b612b2982612c87565b810181811067ffffffffffffffff82111715612b4857612b47612c58565b5b80604052505050565b6000612b5c82612aa2565b91507fffffffffffffffffffffffffffffffffffffffffffffffffffffffffffffffff821415612b8f57612b8e612bcb565b5b600182019050919050565b6000612ba582612aa2565b9150612bb083612aa2565b925082612bc057612bbf612bfa565b5b828206905092915050565b7f4e487b7100000000000000000000000000000000000000000000000000000000600052601160045260246000fd5b7f4e487b7100000000000000000000000000000000000000000000000000000000600052601260045260246000fd5b7f4e487b7100000000000000000000000000000000000000000000000000000000600052602260045260246000fd5b7f4e487b7100000000000000000000000000000000000000000000000000000000600052604160045260246000fd5b6000601f19601f8301169050919050565b7f4552433732313a207472616e7366657220746f206e6f6e20455243373231526560008201527f63656976657220696d706c656d656e7465720000000000000000000000000000602082015250565b7f4552433732313a20746f6b656e20616c7265616479206d696e74656400000000600082015250565b7f4552433732313a207472616e7366657220746f20746865207a65726f2061646460008201527f7265737300000000000000000000000000000000000000000000000000000000602082015250565b7f4552433732313a20617070726f766520746f2063616c6c657200000000000000600082015250565b7f4552433732313a206f70657261746f7220717565727920666f72206e6f6e657860008201527f697374656e7420746f6b656e0000000000000000000000000000000000000000602082015250565b7f4552433732313a20617070726f76652063616c6c6572206973206e6f74206f7760008201527f6e6572206e6f7220617070726f76656420666f7220616c6c0000000000000000602082015250565b7f4552433732313a2062616c616e636520717565727920666f7220746865207a6560008201527f726f206164647265737300000000000000000000000000000000000000000000602082015250565b7f4552433732313a206f776e657220717565727920666f72206e6f6e657869737460008201527f656e7420746f6b656e0000000000000000000000000000000000000000000000602082015250565b7f45524337323155524953746f726167653a2055524920736574206f66206e6f6e60008201527f6578697374656e7420746f6b656e000000000000000000000000000000000000602082015250565b7f4552433732313a206d696e7420746f20746865207a65726f2061646472657373600082015250565b7f45524337323155524953746f726167653a2055524920717565727920666f722060008201527f6e6f6e6578697374656e7420746f6b656e000000000000000000000000000000602082015250565b7f4552433732313a20617070726f76656420717565727920666f72206e6f6e657860008201527f697374656e7420746f6b656e0000000000000000000000000000000000000000602082015250565b7f4552433732313a207472616e73666572206f6620746f6b656e2074686174206960008201527f73206e6f74206f776e0000000000000000000000000000000000000000000000602082015250565b7f4552433732314d657461646174613a2055524920717565727920666f72206e6f60008201527f6e6578697374656e7420746f6b656e0000000000000000000000000000000000602082015250565b7f4552433732313a20617070726f76616c20746f2063757272656e74206f776e6560008201527f7200000000000000000000000000000000000000000000000000000000000000602082015250565b7f4552433732313a207472616e736665722063616c6c6572206973206e6f74206f60008201527f776e6572206e6f7220617070726f766564000000000000000000000000000000602082015250565b61311f81612a38565b811461312a57600080fd5b50565b61313681612a4a565b811461314157600080fd5b50565b61314d81612a56565b811461315857600080fd5b50565b61316481612aa2565b811461316f57600080fd5b5056fea2646970667358221220675c7fbe93a29f2f59077ad9351b6c9781665ba3a0b8d5216d366c32bda1e53064736f6c63430008040033",
  "immutableReferences": {},
  "source": "//Contract based on [https://docs.openzeppelin.com/contracts/3.x/erc721](https://docs.openzeppelin.com/contracts/3.x/erc721)\n// SPDX-License-Identifier: MIT\npragma solidity ^0.8.4;\n\nimport \"@openzeppelin/contracts/token/ERC721/ERC721.sol\";\nimport \"@openzeppelin/contracts/utils/Counters.sol\";\nimport \"@openzeppelin/contracts/token/ERC721/extensions/ERC721URIStorage.sol\";\n\ncontract Card is ERC721URIStorage {\n    using Counters for Counters.Counter;\n    Counters.Counter private _tokenIds;\n\n    struct Collection {\n        string id;\n        string collectionName;\n        address athleteAddress;\n        uint256 maxSize;\n        uint256 numMints;\n        address addressToPay;\n        string imageIpfsHash;\n    }\n\n    Collection[] public collections;\n\n    event NewCollection(\n        string collectionId,\n        string collectionName,\n        address indexed athleteAddress,\n        uint256 maxSize,\n        address indexed addressToPay,\n        string imageIpfsHash\n    );\n\n    constructor() public ERC721(\"Card\", \"CRD\") {}\n\n    function createCollection(\n        string memory collectionId,\n        string memory collectionName,\n        address athleteAddress,\n        uint256 maxSize,\n        address addressToPay,\n        string memory imageIpfsHash\n    ) external {\n        collections.push(\n            Collection(\n                collectionId,\n                collectionName,\n                athleteAddress,\n                maxSize,\n                0,\n                addressToPay,\n                imageIpfsHash\n            )\n        );\n        emit NewCollection(\n            collectionId,\n            collectionName,\n            athleteAddress,\n            maxSize,\n            addressToPay,\n            imageIpfsHash\n        );\n    }\n\n    function mintNFT(address recipient, string memory tokenURI)\n        public\n        returns (uint256)\n    {\n        _tokenIds.increment();\n\n        uint256 newItemId = _tokenIds.current();\n        _mint(recipient, newItemId);\n        _setTokenURI(newItemId, tokenURI);\n\n        return newItemId;\n    }\n}\n",
  "sourcePath": "/Users/leojacoby/Hacking/crypto/holiday-cards/truffle/contracts/Card.sol",
  "compiler": {
    "name": "solc",
    "version": "0.8.4+commit.c7e474f2.Emscripten.clang"
  },
  "schemaVersion": "3.4.4",
  "updatedAt": "2022-02-19T05:06:09.677Z",
  "networkType": "ethereum",
  "devdoc": {
    "kind": "dev",
    "methods": {
      "approve(address,uint256)": {
        "details": "See {IERC721-approve}."
      },
      "balanceOf(address)": {
        "details": "See {IERC721-balanceOf}."
      },
      "getApproved(uint256)": {
        "details": "See {IERC721-getApproved}."
      },
      "isApprovedForAll(address,address)": {
        "details": "See {IERC721-isApprovedForAll}."
      },
      "name()": {
        "details": "See {IERC721Metadata-name}."
      },
      "ownerOf(uint256)": {
        "details": "See {IERC721-ownerOf}."
      },
      "safeTransferFrom(address,address,uint256)": {
        "details": "See {IERC721-safeTransferFrom}."
      },
      "safeTransferFrom(address,address,uint256,bytes)": {
        "details": "See {IERC721-safeTransferFrom}."
      },
      "setApprovalForAll(address,bool)": {
        "details": "See {IERC721-setApprovalForAll}."
      },
      "supportsInterface(bytes4)": {
        "details": "See {IERC165-supportsInterface}."
      },
      "symbol()": {
        "details": "See {IERC721Metadata-symbol}."
      },
      "tokenURI(uint256)": {
        "details": "See {IERC721Metadata-tokenURI}."
      },
      "transferFrom(address,address,uint256)": {
        "details": "See {IERC721-transferFrom}."
      }
    },
    "version": 1
  },
  "userdoc": {
    "kind": "user",
    "methods": {},
    "version": 1
  }
}