{
  "contractName": "Card",
  "abi": [
    {
      "inputs": [],
      "stateMutability": "nonpayable",
      "type": "constructor"
    },
    {
      "anonymous": false,
      "inputs": [
        {
          "indexed": true,
          "internalType": "address",
          "name": "owner",
          "type": "address"
        },
        {
          "indexed": true,
          "internalType": "address",
          "name": "approved",
          "type": "address"
        },
        {
          "indexed": true,
          "internalType": "uint256",
          "name": "tokenId",
          "type": "uint256"
        }
      ],
      "name": "Approval",
      "type": "event"
    },
    {
      "anonymous": false,
      "inputs": [
        {
          "indexed": true,
          "internalType": "address",
          "name": "owner",
          "type": "address"
        },
        {
          "indexed": true,
          "internalType": "address",
          "name": "operator",
          "type": "address"
        },
        {
          "indexed": false,
          "internalType": "bool",
          "name": "approved",
          "type": "bool"
        }
      ],
      "name": "ApprovalForAll",
      "type": "event"
    },
    {
      "anonymous": false,
      "inputs": [
        {
          "indexed": false,
          "internalType": "string",
          "name": "collectionId",
          "type": "string"
        },
        {
          "indexed": false,
          "internalType": "string",
          "name": "collectionName",
          "type": "string"
        },
        {
          "indexed": true,
          "internalType": "address",
          "name": "athleteAddress",
          "type": "address"
        },
        {
          "indexed": false,
          "internalType": "uint256",
          "name": "maxSize",
          "type": "uint256"
        },
        {
          "indexed": true,
          "internalType": "address",
          "name": "addressToPay",
          "type": "address"
        }
      ],
      "name": "NewCollection",
      "type": "event"
    },
    {
      "anonymous": false,
      "inputs": [
        {
          "indexed": true,
          "internalType": "address",
          "name": "from",
          "type": "address"
        },
        {
          "indexed": true,
          "internalType": "address",
          "name": "to",
          "type": "address"
        },
        {
          "indexed": true,
          "internalType": "uint256",
          "name": "tokenId",
          "type": "uint256"
        }
      ],
      "name": "Transfer",
      "type": "event"
    },
    {
      "inputs": [
        {
          "internalType": "address",
          "name": "to",
          "type": "address"
        },
        {
          "internalType": "uint256",
          "name": "tokenId",
          "type": "uint256"
        }
      ],
      "name": "approve",
      "outputs": [],
      "stateMutability": "nonpayable",
      "type": "function"
    },
    {
      "inputs": [
        {
          "internalType": "address",
          "name": "owner",
          "type": "address"
        }
      ],
      "name": "balanceOf",
      "outputs": [
        {
          "internalType": "uint256",
          "name": "",
          "type": "uint256"
        }
      ],
      "stateMutability": "view",
      "type": "function",
      "constant": true
    },
    {
      "inputs": [
        {
          "internalType": "uint256",
          "name": "",
          "type": "uint256"
        }
      ],
      "name": "collections",
      "outputs": [
        {
          "internalType": "string",
          "name": "id",
          "type": "string"
        },
        {
          "internalType": "string",
          "name": "collectionName",
          "type": "string"
        },
        {
          "internalType": "address",
          "name": "athleteAddress",
          "type": "address"
        },
        {
          "internalType": "uint256",
          "name": "maxSize",
          "type": "uint256"
        },
        {
          "internalType": "uint256",
          "name": "numMints",
          "type": "uint256"
        },
        {
          "internalType": "address",
          "name": "addressToPay",
          "type": "address"
        }
      ],
      "stateMutability": "view",
      "type": "function",
      "constant": true
    },
    {
      "inputs": [
        {
          "internalType": "uint256",
          "name": "tokenId",
          "type": "uint256"
        }
      ],
      "name": "getApproved",
      "outputs": [
        {
          "internalType": "address",
          "name": "",
          "type": "address"
        }
      ],
      "stateMutability": "view",
      "type": "function",
      "constant": true
    },
    {
      "inputs": [
        {
          "internalType": "address",
          "name": "owner",
          "type": "address"
        },
        {
          "internalType": "address",
          "name": "operator",
          "type": "address"
        }
      ],
      "name": "isApprovedForAll",
      "outputs": [
        {
          "internalType": "bool",
          "name": "",
          "type": "bool"
        }
      ],
      "stateMutability": "view",
      "type": "function",
      "constant": true
    },
    {
      "inputs": [],
      "name": "name",
      "outputs": [
        {
          "internalType": "string",
          "name": "",
          "type": "string"
        }
      ],
      "stateMutability": "view",
      "type": "function",
      "constant": true
    },
    {
      "inputs": [
        {
          "internalType": "uint256",
          "name": "tokenId",
          "type": "uint256"
        }
      ],
      "name": "ownerOf",
      "outputs": [
        {
          "internalType": "address",
          "name": "",
          "type": "address"
        }
      ],
      "stateMutability": "view",
      "type": "function",
      "constant": true
    },
    {
      "inputs": [
        {
          "internalType": "address",
          "name": "from",
          "type": "address"
        },
        {
          "internalType": "address",
          "name": "to",
          "type": "address"
        },
        {
          "internalType": "uint256",
          "name": "tokenId",
          "type": "uint256"
        }
      ],
      "name": "safeTransferFrom",
      "outputs": [],
      "stateMutability": "nonpayable",
      "type": "function"
    },
    {
      "inputs": [
        {
          "internalType": "address",
          "name": "from",
          "type": "address"
        },
        {
          "internalType": "address",
          "name": "to",
          "type": "address"
        },
        {
          "internalType": "uint256",
          "name": "tokenId",
          "type": "uint256"
        },
        {
          "internalType": "bytes",
          "name": "_data",
          "type": "bytes"
        }
      ],
      "name": "safeTransferFrom",
      "outputs": [],
      "stateMutability": "nonpayable",
      "type": "function"
    },
    {
      "inputs": [
        {
          "internalType": "address",
          "name": "operator",
          "type": "address"
        },
        {
          "internalType": "bool",
          "name": "approved",
          "type": "bool"
        }
      ],
      "name": "setApprovalForAll",
      "outputs": [],
      "stateMutability": "nonpayable",
      "type": "function"
    },
    {
      "inputs": [
        {
          "internalType": "bytes4",
          "name": "interfaceId",
          "type": "bytes4"
        }
      ],
      "name": "supportsInterface",
      "outputs": [
        {
          "internalType": "bool",
          "name": "",
          "type": "bool"
        }
      ],
      "stateMutability": "view",
      "type": "function",
      "constant": true
    },
    {
      "inputs": [],
      "name": "symbol",
      "outputs": [
        {
          "internalType": "string",
          "name": "",
          "type": "string"
        }
      ],
      "stateMutability": "view",
      "type": "function",
      "constant": true
    },
    {
      "inputs": [
        {
          "internalType": "uint256",
          "name": "tokenId",
          "type": "uint256"
        }
      ],
      "name": "tokenURI",
      "outputs": [
        {
          "internalType": "string",
          "name": "",
          "type": "string"
        }
      ],
      "stateMutability": "view",
      "type": "function",
      "constant": true
    },
    {
      "inputs": [
        {
          "internalType": "address",
          "name": "from",
          "type": "address"
        },
        {
          "internalType": "address",
          "name": "to",
          "type": "address"
        },
        {
          "internalType": "uint256",
          "name": "tokenId",
          "type": "uint256"
        }
      ],
      "name": "transferFrom",
      "outputs": [],
      "stateMutability": "nonpayable",
      "type": "function"
    },
    {
      "inputs": [
        {
          "internalType": "string",
          "name": "collectionId",
          "type": "string"
        },
        {
          "internalType": "string",
          "name": "collectionName",
          "type": "string"
        },
        {
          "internalType": "address",
          "name": "athleteAddress",
          "type": "address"
        },
        {
          "internalType": "uint256",
          "name": "maxSize",
          "type": "uint256"
        },
        {
          "internalType": "address",
          "name": "addressToPay",
          "type": "address"
        }
      ],
      "name": "createCollection",
      "outputs": [],
      "stateMutability": "nonpayable",
      "type": "function"
    },
    {
      "inputs": [
        {
          "internalType": "address",
          "name": "recipient",
          "type": "address"
        },
        {
          "internalType": "string",
          "name": "tokenURI",
          "type": "string"
        }
      ],
      "name": "mintNFT",
      "outputs": [
        {
          "internalType": "uint256",
          "name": "",
          "type": "uint256"
        }
      ],
      "stateMutability": "nonpayable",
      "type": "function"
    }
  ],
  "bytecode": "0x60806040523480156200001157600080fd5b506040518060400160405280600481526020017f43617264000000000000000000000000000000000000000000000000000000008152506040518060400160405280600381526020017f4352440000000000000000000000000000000000000000000000000000000000815250816000908051906020019062000096929190620000b8565b508060019080519060200190620000af929190620000b8565b505050620001cd565b828054620000c69062000168565b90600052602060002090601f016020900481019282620000ea576000855562000136565b82601f106200010557805160ff191683800117855562000136565b8280016001018555821562000136579182015b828111156200013557825182559160200191906001019062000118565b5b50905062000145919062000149565b5090565b5b80821115620001645760008160009055506001016200014a565b5090565b600060028204905060018216806200018157607f821691505b602082108114156200019857620001976200019e565b5b50919050565b7f4e487b7100000000000000000000000000000000000000000000000000000000600052602260045260246000fd5b61309f80620001dd6000396000f3fe608060405234801561001057600080fd5b50600436106101005760003560e01c806370a0823111610097578063c87b56dd11610066578063c87b56dd146102a9578063e985e9c5146102d9578063eacabe1414610309578063fdbda0ec1461033957610100565b806370a082311461022357806395d89b4114610253578063a22cb46514610271578063b88d4fde1461028d57610100565b806323b872dd116100d357806323b872dd1461019f57806342842e0e146101bb578063560bd450146101d75780636352211e146101f357610100565b806301ffc9a71461010557806306fdde0314610135578063081812fc14610153578063095ea7b314610183575b600080fd5b61011f600480360381019061011a9190611ff1565b61036e565b60405161012c919061249e565b60405180910390f35b61013d610450565b60405161014a91906124b9565b60405180910390f35b61016d600480360381019061016891906120ea565b6104e2565b60405161017a9190612437565b60405180910390f35b61019d60048036038101906101989190611fb5565b610567565b005b6101b960048036038101906101b49190611e5b565b61067f565b005b6101d560048036038101906101d09190611e5b565b6106df565b005b6101f160048036038101906101ec9190612043565b6106ff565b005b61020d600480360381019061020891906120ea565b6108d2565b60405161021a9190612437565b60405180910390f35b61023d60048036038101906102389190611df6565b610984565b60405161024a919061278f565b60405180910390f35b61025b610a3c565b60405161026891906124b9565b60405180910390f35b61028b60048036038101906102869190611f25565b610ace565b005b6102a760048036038101906102a29190611eaa565b610ae4565b005b6102c360048036038101906102be91906120ea565b610b46565b6040516102d091906124b9565b60405180910390f35b6102f360048036038101906102ee9190611e1f565b610c98565b604051610300919061249e565b60405180910390f35b610323600480360381019061031e9190611f61565b610d2c565b604051610330919061278f565b60405180910390f35b610353600480360381019061034e91906120ea565b610d64565b604051610365969594939291906124db565b60405180910390f35b60007f80ac58cd000000000000000000000000000000000000000000000000000000007bffffffffffffffffffffffffffffffffffffffffffffffffffffffff1916827bffffffffffffffffffffffffffffffffffffffffffffffffffffffff1916148061043957507f5b5e139f000000000000000000000000000000000000000000000000000000007bffffffffffffffffffffffffffffffffffffffffffffffffffffffff1916827bffffffffffffffffffffffffffffffffffffffffffffffffffffffff1916145b80610449575061044882610f00565b5b9050919050565b60606000805461045f906129e5565b80601f016020809104026020016040519081016040528092919081815260200182805461048b906129e5565b80156104d85780601f106104ad576101008083540402835291602001916104d8565b820191906000526020600020905b8154815290600101906020018083116104bb57829003601f168201915b5050505050905090565b60006104ed82610f6a565b61052c576040517f08c379a0000000000000000000000000000000000000000000000000000000008152600401610523906126ef565b60405180910390fd5b6004600083815260200190815260200160002060009054906101000a900473ffffffffffffffffffffffffffffffffffffffff169050919050565b6000610572826108d2565b90508073ffffffffffffffffffffffffffffffffffffffff168373ffffffffffffffffffffffffffffffffffffffff1614156105e3576040517f08c379a00000000000000000000000000000000000000000000000000000000081526004016105da9061274f565b60405180910390fd5b8073ffffffffffffffffffffffffffffffffffffffff16610602610fd6565b73ffffffffffffffffffffffffffffffffffffffff16148061063157506106308161062b610fd6565b610c98565b5b610670576040517f08c379a00000000000000000000000000000000000000000000000000000000081526004016106679061262f565b60405180910390fd5b61067a8383610fde565b505050565b61069061068a610fd6565b82611097565b6106cf576040517f08c379a00000000000000000000000000000000000000000000000000000000081526004016106c69061276f565b60405180910390fd5b6106da838383611175565b505050565b6106fa83838360405180602001604052806000815250610ae4565b505050565b60086040518060c001604052808781526020018681526020018573ffffffffffffffffffffffffffffffffffffffff168152602001848152602001600081526020018373ffffffffffffffffffffffffffffffffffffffff16815250908060018154018082558091505060019003906000526020600020906006020160009091909190915060008201518160000190805190602001906107a0929190611c1a565b5060208201518160010190805190602001906107bd929190611c1a565b5060408201518160020160006101000a81548173ffffffffffffffffffffffffffffffffffffffff021916908373ffffffffffffffffffffffffffffffffffffffff160217905550606082015181600301556080820151816004015560a08201518160050160006101000a81548173ffffffffffffffffffffffffffffffffffffffff021916908373ffffffffffffffffffffffffffffffffffffffff16021790555050508073ffffffffffffffffffffffffffffffffffffffff168373ffffffffffffffffffffffffffffffffffffffff167f844c9a3f3f2ba8996f099c938efdfb6802aa672f4980aa44df59da011316da448787866040516108c39392919061254a565b60405180910390a35050505050565b6000806002600084815260200190815260200160002060009054906101000a900473ffffffffffffffffffffffffffffffffffffffff169050600073ffffffffffffffffffffffffffffffffffffffff168173ffffffffffffffffffffffffffffffffffffffff16141561097b576040517f08c379a00000000000000000000000000000000000000000000000000000000081526004016109729061266f565b60405180910390fd5b80915050919050565b60008073ffffffffffffffffffffffffffffffffffffffff168273ffffffffffffffffffffffffffffffffffffffff1614156109f5576040517f08c379a00000000000000000000000000000000000000000000000000000000081526004016109ec9061264f565b60405180910390fd5b600360008373ffffffffffffffffffffffffffffffffffffffff1673ffffffffffffffffffffffffffffffffffffffff168152602001908152602001600020549050919050565b606060018054610a4b906129e5565b80601f0160208091040260200160405190810160405280929190818152602001828054610a77906129e5565b8015610ac45780601f10610a9957610100808354040283529160200191610ac4565b820191906000526020600020905b815481529060010190602001808311610aa757829003601f168201915b5050505050905090565b610ae0610ad9610fd6565b83836113d1565b5050565b610af5610aef610fd6565b83611097565b610b34576040517f08c379a0000000000000000000000000000000000000000000000000000000008152600401610b2b9061276f565b60405180910390fd5b610b408484848461153e565b50505050565b6060610b5182610f6a565b610b90576040517f08c379a0000000000000000000000000000000000000000000000000000000008152600401610b87906126cf565b60405180910390fd5b6000600660008481526020019081526020016000208054610bb0906129e5565b80601f0160208091040260200160405190810160405280929190818152602001828054610bdc906129e5565b8015610c295780601f10610bfe57610100808354040283529160200191610c29565b820191906000526020600020905b815481529060010190602001808311610c0c57829003601f168201915b505050505090506000610c3a61159a565b9050600081511415610c50578192505050610c93565b600082511115610c85578082604051602001610c6d929190612413565b60405160208183030381529060405292505050610c93565b610c8e846115b1565b925050505b919050565b6000600560008473ffffffffffffffffffffffffffffffffffffffff1673ffffffffffffffffffffffffffffffffffffffff16815260200190815260200160002060008373ffffffffffffffffffffffffffffffffffffffff1673ffffffffffffffffffffffffffffffffffffffff16815260200190815260200160002060009054906101000a900460ff16905092915050565b6000610d386007611658565b6000610d44600761166e565b9050610d50848261167c565b610d5a818461184a565b8091505092915050565b60088181548110610d7457600080fd5b9060005260206000209060060201600091509050806000018054610d97906129e5565b80601f0160208091040260200160405190810160405280929190818152602001828054610dc3906129e5565b8015610e105780601f10610de557610100808354040283529160200191610e10565b820191906000526020600020905b815481529060010190602001808311610df357829003601f168201915b505050505090806001018054610e25906129e5565b80601f0160208091040260200160405190810160405280929190818152602001828054610e51906129e5565b8015610e9e5780601f10610e7357610100808354040283529160200191610e9e565b820191906000526020600020905b815481529060010190602001808311610e8157829003601f168201915b5050505050908060020160009054906101000a900473ffffffffffffffffffffffffffffffffffffffff16908060030154908060040154908060050160009054906101000a900473ffffffffffffffffffffffffffffffffffffffff16905086565b60007f01ffc9a7000000000000000000000000000000000000000000000000000000007bffffffffffffffffffffffffffffffffffffffffffffffffffffffff1916827bffffffffffffffffffffffffffffffffffffffffffffffffffffffff1916149050919050565b60008073ffffffffffffffffffffffffffffffffffffffff166002600084815260200190815260200160002060009054906101000a900473ffffffffffffffffffffffffffffffffffffffff1673ffffffffffffffffffffffffffffffffffffffff1614159050919050565b600033905090565b816004600083815260200190815260200160002060006101000a81548173ffffffffffffffffffffffffffffffffffffffff021916908373ffffffffffffffffffffffffffffffffffffffff160217905550808273ffffffffffffffffffffffffffffffffffffffff16611051836108d2565b73ffffffffffffffffffffffffffffffffffffffff167f8c5be1e5ebec7d5bd14f71427d1e84f3dd0314c0f7b2291e5b200ac8c7c3b92560405160405180910390a45050565b60006110a282610f6a565b6110e1576040517f08c379a00000000000000000000000000000000000000000000000000000000081526004016110d89061260f565b60405180910390fd5b60006110ec836108d2565b90508073ffffffffffffffffffffffffffffffffffffffff168473ffffffffffffffffffffffffffffffffffffffff16148061115b57508373ffffffffffffffffffffffffffffffffffffffff16611143846104e2565b73ffffffffffffffffffffffffffffffffffffffff16145b8061116c575061116b8185610c98565b5b91505092915050565b8273ffffffffffffffffffffffffffffffffffffffff16611195826108d2565b73ffffffffffffffffffffffffffffffffffffffff16146111eb576040517f08c379a00000000000000000000000000000000000000000000000000000000081526004016111e29061270f565b60405180910390fd5b600073ffffffffffffffffffffffffffffffffffffffff168273ffffffffffffffffffffffffffffffffffffffff16141561125b576040517f08c379a0000000000000000000000000000000000000000000000000000000008152600401611252906125cf565b60405180910390fd5b6112668383836118be565b611271600082610fde565b6001600360008573ffffffffffffffffffffffffffffffffffffffff1673ffffffffffffffffffffffffffffffffffffffff16815260200190815260200160002060008282546112c191906128fb565b925050819055506001600360008473ffffffffffffffffffffffffffffffffffffffff1673ffffffffffffffffffffffffffffffffffffffff16815260200190815260200160002060008282546113189190612874565b92505081905550816002600083815260200190815260200160002060006101000a81548173ffffffffffffffffffffffffffffffffffffffff021916908373ffffffffffffffffffffffffffffffffffffffff160217905550808273ffffffffffffffffffffffffffffffffffffffff168473ffffffffffffffffffffffffffffffffffffffff167fddf252ad1be2c89b69c2b068fc378daa952ba7f163c4a11628f55a4df523b3ef60405160405180910390a4505050565b8173ffffffffffffffffffffffffffffffffffffffff168373ffffffffffffffffffffffffffffffffffffffff161415611440576040517f08c379a0000000000000000000000000000000000000000000000000000000008152600401611437906125ef565b60405180910390fd5b80600560008573ffffffffffffffffffffffffffffffffffffffff1673ffffffffffffffffffffffffffffffffffffffff16815260200190815260200160002060008473ffffffffffffffffffffffffffffffffffffffff1673ffffffffffffffffffffffffffffffffffffffff16815260200190815260200160002060006101000a81548160ff0219169083151502179055508173ffffffffffffffffffffffffffffffffffffffff168373ffffffffffffffffffffffffffffffffffffffff167f17307eab39ab6107e8899845ad3d59bd9653f200f220920489ca2b5937696c3183604051611531919061249e565b60405180910390a3505050565b611549848484611175565b611555848484846118c3565b611594576040517f08c379a000000000000000000000000000000000000000000000000000000000815260040161158b9061258f565b60405180910390fd5b50505050565b606060405180602001604052806000815250905090565b60606115bc82610f6a565b6115fb576040517f08c379a00000000000000000000000000000000000000000000000000000000081526004016115f29061272f565b60405180910390fd5b600061160561159a565b905060008151116116255760405180602001604052806000815250611650565b8061162f84611a5a565b604051602001611640929190612413565b6040516020818303038152906040525b915050919050565b6001816000016000828254019250508190555050565b600081600001549050919050565b600073ffffffffffffffffffffffffffffffffffffffff168273ffffffffffffffffffffffffffffffffffffffff1614156116ec576040517f08c379a00000000000000000000000000000000000000000000000000000000081526004016116e3906126af565b60405180910390fd5b6116f581610f6a565b15611735576040517f08c379a000000000000000000000000000000000000000000000000000000000815260040161172c906125af565b60405180910390fd5b611741600083836118be565b6001600360008473ffffffffffffffffffffffffffffffffffffffff1673ffffffffffffffffffffffffffffffffffffffff16815260200190815260200160002060008282546117919190612874565b92505081905550816002600083815260200190815260200160002060006101000a81548173ffffffffffffffffffffffffffffffffffffffff021916908373ffffffffffffffffffffffffffffffffffffffff160217905550808273ffffffffffffffffffffffffffffffffffffffff16600073ffffffffffffffffffffffffffffffffffffffff167fddf252ad1be2c89b69c2b068fc378daa952ba7f163c4a11628f55a4df523b3ef60405160405180910390a45050565b61185382610f6a565b611892576040517f08c379a00000000000000000000000000000000000000000000000000000000081526004016118899061268f565b60405180910390fd5b806006600084815260200190815260200160002090805190602001906118b9929190611c1a565b505050565b505050565b60006118e48473ffffffffffffffffffffffffffffffffffffffff16611c07565b15611a4d578373ffffffffffffffffffffffffffffffffffffffff1663150b7a0261190d610fd6565b8786866040518563ffffffff1660e01b815260040161192f9493929190612452565b602060405180830381600087803b15801561194957600080fd5b505af192505050801561197a57506040513d601f19601f82011682018060405250810190611977919061201a565b60015b6119fd573d80600081146119aa576040519150601f19603f3d011682016040523d82523d6000602084013e6119af565b606091505b506000815114156119f5576040517f08c379a00000000000000000000000000000000000000000000000000000000081526004016119ec9061258f565b60405180910390fd5b805181602001fd5b63150b7a0260e01b7bffffffffffffffffffffffffffffffffffffffffffffffffffffffff1916817bffffffffffffffffffffffffffffffffffffffffffffffffffffffff191614915050611a52565b600190505b949350505050565b60606000821415611aa2576040518060400160405280600181526020017f30000000000000000000000000000000000000000000000000000000000000008152509050611c02565b600082905060005b60008214611ad4578080611abd90612a48565b915050600a82611acd91906128ca565b9150611aaa565b60008167ffffffffffffffff811115611b16577f4e487b7100000000000000000000000000000000000000000000000000000000600052604160045260246000fd5b6040519080825280601f01601f191660200182016040528015611b485781602001600182028036833780820191505090505b5090505b60008514611bfb57600182611b6191906128fb565b9150600a85611b709190612a91565b6030611b7c9190612874565b60f81b818381518110611bb8577f4e487b7100000000000000000000000000000000000000000000000000000000600052603260045260246000fd5b60200101907effffffffffffffffffffffffffffffffffffffffffffffffffffffffffffff1916908160001a905350600a85611bf491906128ca565b9450611b4c565b8093505050505b919050565b600080823b905060008111915050919050565b828054611c26906129e5565b90600052602060002090601f016020900481019282611c485760008555611c8f565b82601f10611c6157805160ff1916838001178555611c8f565b82800160010185558215611c8f579182015b82811115611c8e578251825591602001919060010190611c73565b5b509050611c9c9190611ca0565b5090565b5b80821115611cb9576000816000905550600101611ca1565b5090565b6000611cd0611ccb846127cf565b6127aa565b905082815260208101848484011115611ce857600080fd5b611cf38482856129a3565b509392505050565b6000611d0e611d0984612800565b6127aa565b905082815260208101848484011115611d2657600080fd5b611d318482856129a3565b509392505050565b600081359050611d488161300d565b92915050565b600081359050611d5d81613024565b92915050565b600081359050611d728161303b565b92915050565b600081519050611d878161303b565b92915050565b600082601f830112611d9e57600080fd5b8135611dae848260208601611cbd565b91505092915050565b600082601f830112611dc857600080fd5b8135611dd8848260208601611cfb565b91505092915050565b600081359050611df081613052565b92915050565b600060208284031215611e0857600080fd5b6000611e1684828501611d39565b91505092915050565b60008060408385031215611e3257600080fd5b6000611e4085828601611d39565b9250506020611e5185828601611d39565b9150509250929050565b600080600060608486031215611e7057600080fd5b6000611e7e86828701611d39565b9350506020611e8f86828701611d39565b9250506040611ea086828701611de1565b9150509250925092565b60008060008060808587031215611ec057600080fd5b6000611ece87828801611d39565b9450506020611edf87828801611d39565b9350506040611ef087828801611de1565b925050606085013567ffffffffffffffff811115611f0d57600080fd5b611f1987828801611d8d565b91505092959194509250565b60008060408385031215611f3857600080fd5b6000611f4685828601611d39565b9250506020611f5785828601611d4e565b9150509250929050565b60008060408385031215611f7457600080fd5b6000611f8285828601611d39565b925050602083013567ffffffffffffffff811115611f9f57600080fd5b611fab85828601611db7565b9150509250929050565b60008060408385031215611fc857600080fd5b6000611fd685828601611d39565b9250506020611fe785828601611de1565b9150509250929050565b60006020828403121561200357600080fd5b600061201184828501611d63565b91505092915050565b60006020828403121561202c57600080fd5b600061203a84828501611d78565b91505092915050565b600080600080600060a0868803121561205b57600080fd5b600086013567ffffffffffffffff81111561207557600080fd5b61208188828901611db7565b955050602086013567ffffffffffffffff81111561209e57600080fd5b6120aa88828901611db7565b94505060406120bb88828901611d39565b93505060606120cc88828901611de1565b92505060806120dd88828901611d39565b9150509295509295909350565b6000602082840312156120fc57600080fd5b600061210a84828501611de1565b91505092915050565b61211c8161292f565b82525050565b61212b81612941565b82525050565b600061213c82612831565b6121468185612847565b93506121568185602086016129b2565b61215f81612b7e565b840191505092915050565b60006121758261283c565b61217f8185612858565b935061218f8185602086016129b2565b61219881612b7e565b840191505092915050565b60006121ae8261283c565b6121b88185612869565b93506121c88185602086016129b2565b80840191505092915050565b60006121e1603283612858565b91506121ec82612b8f565b604082019050919050565b6000612204601c83612858565b915061220f82612bde565b602082019050919050565b6000612227602483612858565b915061223282612c07565b604082019050919050565b600061224a601983612858565b915061225582612c56565b602082019050919050565b600061226d602c83612858565b915061227882612c7f565b604082019050919050565b6000612290603883612858565b915061229b82612cce565b604082019050919050565b60006122b3602a83612858565b91506122be82612d1d565b604082019050919050565b60006122d6602983612858565b91506122e182612d6c565b604082019050919050565b60006122f9602e83612858565b915061230482612dbb565b604082019050919050565b600061231c602083612858565b915061232782612e0a565b602082019050919050565b600061233f603183612858565b915061234a82612e33565b604082019050919050565b6000612362602c83612858565b915061236d82612e82565b604082019050919050565b6000612385602983612858565b915061239082612ed1565b604082019050919050565b60006123a8602f83612858565b91506123b382612f20565b604082019050919050565b60006123cb602183612858565b91506123d682612f6f565b604082019050919050565b60006123ee603183612858565b91506123f982612fbe565b604082019050919050565b61240d81612999565b82525050565b600061241f82856121a3565b915061242b82846121a3565b91508190509392505050565b600060208201905061244c6000830184612113565b92915050565b60006080820190506124676000830187612113565b6124746020830186612113565b6124816040830185612404565b81810360608301526124938184612131565b905095945050505050565b60006020820190506124b36000830184612122565b92915050565b600060208201905081810360008301526124d3818461216a565b905092915050565b600060c08201905081810360008301526124f5818961216a565b90508181036020830152612509818861216a565b90506125186040830187612113565b6125256060830186612404565b6125326080830185612404565b61253f60a0830184612113565b979650505050505050565b60006060820190508181036000830152612564818661216a565b90508181036020830152612578818561216a565b90506125876040830184612404565b949350505050565b600060208201905081810360008301526125a8816121d4565b9050919050565b600060208201905081810360008301526125c8816121f7565b9050919050565b600060208201905081810360008301526125e88161221a565b9050919050565b600060208201905081810360008301526126088161223d565b9050919050565b6000602082019050818103600083015261262881612260565b9050919050565b6000602082019050818103600083015261264881612283565b9050919050565b60006020820190508181036000830152612668816122a6565b9050919050565b60006020820190508181036000830152612688816122c9565b9050919050565b600060208201905081810360008301526126a8816122ec565b9050919050565b600060208201905081810360008301526126c88161230f565b9050919050565b600060208201905081810360008301526126e881612332565b9050919050565b6000602082019050818103600083015261270881612355565b9050919050565b6000602082019050818103600083015261272881612378565b9050919050565b600060208201905081810360008301526127488161239b565b9050919050565b60006020820190508181036000830152612768816123be565b9050919050565b60006020820190508181036000830152612788816123e1565b9050919050565b60006020820190506127a46000830184612404565b92915050565b60006127b46127c5565b90506127c08282612a17565b919050565b6000604051905090565b600067ffffffffffffffff8211156127ea576127e9612b4f565b5b6127f382612b7e565b9050602081019050919050565b600067ffffffffffffffff82111561281b5761281a612b4f565b5b61282482612b7e565b9050602081019050919050565b600081519050919050565b600081519050919050565b600082825260208201905092915050565b600082825260208201905092915050565b600081905092915050565b600061287f82612999565b915061288a83612999565b9250827fffffffffffffffffffffffffffffffffffffffffffffffffffffffffffffffff038211156128bf576128be612ac2565b5b828201905092915050565b60006128d582612999565b91506128e083612999565b9250826128f0576128ef612af1565b5b828204905092915050565b600061290682612999565b915061291183612999565b92508282101561292457612923612ac2565b5b828203905092915050565b600061293a82612979565b9050919050565b60008115159050919050565b60007fffffffff0000000000000000000000000000000000000000000000000000000082169050919050565b600073ffffffffffffffffffffffffffffffffffffffff82169050919050565b6000819050919050565b82818337600083830152505050565b60005b838110156129d05780820151818401526020810190506129b5565b838111156129df576000848401525b50505050565b600060028204905060018216806129fd57607f821691505b60208210811415612a1157612a10612b20565b5b50919050565b612a2082612b7e565b810181811067ffffffffffffffff82111715612a3f57612a3e612b4f565b5b80604052505050565b6000612a5382612999565b91507fffffffffffffffffffffffffffffffffffffffffffffffffffffffffffffffff821415612a8657612a85612ac2565b5b600182019050919050565b6000612a9c82612999565b9150612aa783612999565b925082612ab757612ab6612af1565b5b828206905092915050565b7f4e487b7100000000000000000000000000000000000000000000000000000000600052601160045260246000fd5b7f4e487b7100000000000000000000000000000000000000000000000000000000600052601260045260246000fd5b7f4e487b7100000000000000000000000000000000000000000000000000000000600052602260045260246000fd5b7f4e487b7100000000000000000000000000000000000000000000000000000000600052604160045260246000fd5b6000601f19601f8301169050919050565b7f4552433732313a207472616e7366657220746f206e6f6e20455243373231526560008201527f63656976657220696d706c656d656e7465720000000000000000000000000000602082015250565b7f4552433732313a20746f6b656e20616c7265616479206d696e74656400000000600082015250565b7f4552433732313a207472616e7366657220746f20746865207a65726f2061646460008201527f7265737300000000000000000000000000000000000000000000000000000000602082015250565b7f4552433732313a20617070726f766520746f2063616c6c657200000000000000600082015250565b7f4552433732313a206f70657261746f7220717565727920666f72206e6f6e657860008201527f697374656e7420746f6b656e0000000000000000000000000000000000000000602082015250565b7f4552433732313a20617070726f76652063616c6c6572206973206e6f74206f7760008201527f6e6572206e6f7220617070726f76656420666f7220616c6c0000000000000000602082015250565b7f4552433732313a2062616c616e636520717565727920666f7220746865207a6560008201527f726f206164647265737300000000000000000000000000000000000000000000602082015250565b7f4552433732313a206f776e657220717565727920666f72206e6f6e657869737460008201527f656e7420746f6b656e0000000000000000000000000000000000000000000000602082015250565b7f45524337323155524953746f726167653a2055524920736574206f66206e6f6e60008201527f6578697374656e7420746f6b656e000000000000000000000000000000000000602082015250565b7f4552433732313a206d696e7420746f20746865207a65726f2061646472657373600082015250565b7f45524337323155524953746f726167653a2055524920717565727920666f722060008201527f6e6f6e6578697374656e7420746f6b656e000000000000000000000000000000602082015250565b7f4552433732313a20617070726f76656420717565727920666f72206e6f6e657860008201527f697374656e7420746f6b656e0000000000000000000000000000000000000000602082015250565b7f4552433732313a207472616e73666572206f6620746f6b656e2074686174206960008201527f73206e6f74206f776e0000000000000000000000000000000000000000000000602082015250565b7f4552433732314d657461646174613a2055524920717565727920666f72206e6f60008201527f6e6578697374656e7420746f6b656e0000000000000000000000000000000000602082015250565b7f4552433732313a20617070726f76616c20746f2063757272656e74206f776e6560008201527f7200000000000000000000000000000000000000000000000000000000000000602082015250565b7f4552433732313a207472616e736665722063616c6c6572206973206e6f74206f60008201527f776e6572206e6f7220617070726f766564000000000000000000000000000000602082015250565b6130168161292f565b811461302157600080fd5b50565b61302d81612941565b811461303857600080fd5b50565b6130448161294d565b811461304f57600080fd5b50565b61305b81612999565b811461306657600080fd5b5056fea26469706673582212204e879f03755e74bfec6ac6b833215bcab72d7053b8c4c719cd55557c9b9c6d2b64736f6c63430008040033",
  "immutableReferences": {},
  "source": "//Contract based on [https://docs.openzeppelin.com/contracts/3.x/erc721](https://docs.openzeppelin.com/contracts/3.x/erc721)\n// SPDX-License-Identifier: MIT\npragma solidity ^0.8.4;\n\nimport \"@openzeppelin/contracts/token/ERC721/ERC721.sol\";\nimport \"@openzeppelin/contracts/utils/Counters.sol\";\nimport \"@openzeppelin/contracts/token/ERC721/extensions/ERC721URIStorage.sol\";\n\ncontract Card is ERC721URIStorage {\n    using Counters for Counters.Counter;\n    Counters.Counter private _tokenIds;\n\n    struct Collection {\n        string id;\n        string collectionName;\n        address athleteAddress;\n        uint maxSize;\n        uint numMints;\n        address addressToPay;\n    }\n\n    Collection[] public collections;\n\n    event NewCollection(\n        string collectionId,\n        string collectionName, \n        address indexed athleteAddress, \n        uint maxSize, \n        address indexed addressToPay\n    );\n\n    constructor() public ERC721(\"Card\", \"CRD\") {}\n\n    function createCollection(\n        string memory collectionId,\n        string memory collectionName, \n        address athleteAddress, \n        uint maxSize, \n        address addressToPay) external {\n        collections.push(Collection(collectionId, collectionName, athleteAddress, maxSize, 0, addressToPay));\n        emit NewCollection(collectionId, collectionName, athleteAddress, maxSize, addressToPay);\n    }\n\n\n    function mintNFT(address recipient, string memory tokenURI)\n        public\n        returns (uint256)\n    {\n        _tokenIds.increment();\n\n        uint256 newItemId = _tokenIds.current();\n        _mint(recipient, newItemId);\n        _setTokenURI(newItemId, tokenURI);\n\n        return newItemId;\n    }\n}",
  "sourcePath": "/Users/leojacoby/Hacking/crypto/holiday-cards/truffle/contracts/Card.sol",
  "compiler": {
    "name": "solc",
    "version": "0.8.4+commit.c7e474f2.Emscripten.clang"
  },
  "schemaVersion": "3.4.4",
  "updatedAt": "2022-02-17T22:41:12.536Z",
  "networkType": "ethereum",
  "devdoc": {
    "kind": "dev",
    "methods": {
      "approve(address,uint256)": {
        "details": "See {IERC721-approve}."
      },
      "balanceOf(address)": {
        "details": "See {IERC721-balanceOf}."
      },
      "getApproved(uint256)": {
        "details": "See {IERC721-getApproved}."
      },
      "isApprovedForAll(address,address)": {
        "details": "See {IERC721-isApprovedForAll}."
      },
      "name()": {
        "details": "See {IERC721Metadata-name}."
      },
      "ownerOf(uint256)": {
        "details": "See {IERC721-ownerOf}."
      },
      "safeTransferFrom(address,address,uint256)": {
        "details": "See {IERC721-safeTransferFrom}."
      },
      "safeTransferFrom(address,address,uint256,bytes)": {
        "details": "See {IERC721-safeTransferFrom}."
      },
      "setApprovalForAll(address,bool)": {
        "details": "See {IERC721-setApprovalForAll}."
      },
      "supportsInterface(bytes4)": {
        "details": "See {IERC165-supportsInterface}."
      },
      "symbol()": {
        "details": "See {IERC721Metadata-symbol}."
      },
      "tokenURI(uint256)": {
        "details": "See {IERC721Metadata-tokenURI}."
      },
      "transferFrom(address,address,uint256)": {
        "details": "See {IERC721-transferFrom}."
      }
    },
    "version": 1
  },
  "userdoc": {
    "kind": "user",
    "methods": {},
    "version": 1
  }
}