{
  "contractName": "Card",
  "abi": [
    {
      "inputs": [],
      "stateMutability": "nonpayable",
      "type": "constructor"
    },
    {
      "anonymous": false,
      "inputs": [
        {
          "indexed": true,
          "internalType": "address",
          "name": "owner",
          "type": "address"
        },
        {
          "indexed": true,
          "internalType": "address",
          "name": "approved",
          "type": "address"
        },
        {
          "indexed": true,
          "internalType": "uint256",
          "name": "tokenId",
          "type": "uint256"
        }
      ],
      "name": "Approval",
      "type": "event"
    },
    {
      "anonymous": false,
      "inputs": [
        {
          "indexed": true,
          "internalType": "address",
          "name": "owner",
          "type": "address"
        },
        {
          "indexed": true,
          "internalType": "address",
          "name": "operator",
          "type": "address"
        },
        {
          "indexed": false,
          "internalType": "bool",
          "name": "approved",
          "type": "bool"
        }
      ],
      "name": "ApprovalForAll",
      "type": "event"
    },
    {
      "anonymous": false,
      "inputs": [
        {
          "indexed": false,
          "internalType": "string",
          "name": "id",
          "type": "string"
        },
        {
          "indexed": false,
          "internalType": "string",
          "name": "name",
          "type": "string"
        },
        {
          "indexed": false,
          "internalType": "string",
          "name": "description",
          "type": "string"
        },
        {
          "indexed": true,
          "internalType": "address",
          "name": "athleteAddress",
          "type": "address"
        },
        {
          "indexed": false,
          "internalType": "uint256",
          "name": "price",
          "type": "uint256"
        },
        {
          "indexed": false,
          "internalType": "uint256",
          "name": "maxSize",
          "type": "uint256"
        },
        {
          "indexed": true,
          "internalType": "address",
          "name": "addressToPay",
          "type": "address"
        },
        {
          "indexed": false,
          "internalType": "string",
          "name": "imageIpfsHash",
          "type": "string"
        },
        {
          "indexed": false,
          "internalType": "string",
          "name": "metadataIpfsHash",
          "type": "string"
        }
      ],
      "name": "NewCollection",
      "type": "event"
    },
    {
      "anonymous": false,
      "inputs": [
        {
          "indexed": true,
          "internalType": "address",
          "name": "from",
          "type": "address"
        },
        {
          "indexed": true,
          "internalType": "address",
          "name": "to",
          "type": "address"
        },
        {
          "indexed": true,
          "internalType": "uint256",
          "name": "tokenId",
          "type": "uint256"
        }
      ],
      "name": "Transfer",
      "type": "event"
    },
    {
      "inputs": [
        {
          "internalType": "address",
          "name": "to",
          "type": "address"
        },
        {
          "internalType": "uint256",
          "name": "tokenId",
          "type": "uint256"
        }
      ],
      "name": "approve",
      "outputs": [],
      "stateMutability": "nonpayable",
      "type": "function"
    },
    {
      "inputs": [
        {
          "internalType": "address",
          "name": "owner",
          "type": "address"
        }
      ],
      "name": "balanceOf",
      "outputs": [
        {
          "internalType": "uint256",
          "name": "",
          "type": "uint256"
        }
      ],
      "stateMutability": "view",
      "type": "function",
      "constant": true
    },
    {
      "inputs": [
        {
          "internalType": "uint256",
          "name": "tokenId",
          "type": "uint256"
        }
      ],
      "name": "getApproved",
      "outputs": [
        {
          "internalType": "address",
          "name": "",
          "type": "address"
        }
      ],
      "stateMutability": "view",
      "type": "function",
      "constant": true
    },
    {
      "inputs": [
        {
          "internalType": "address",
          "name": "owner",
          "type": "address"
        },
        {
          "internalType": "address",
          "name": "operator",
          "type": "address"
        }
      ],
      "name": "isApprovedForAll",
      "outputs": [
        {
          "internalType": "bool",
          "name": "",
          "type": "bool"
        }
      ],
      "stateMutability": "view",
      "type": "function",
      "constant": true
    },
    {
      "inputs": [],
      "name": "name",
      "outputs": [
        {
          "internalType": "string",
          "name": "",
          "type": "string"
        }
      ],
      "stateMutability": "view",
      "type": "function",
      "constant": true
    },
    {
      "inputs": [
        {
          "internalType": "uint256",
          "name": "tokenId",
          "type": "uint256"
        }
      ],
      "name": "ownerOf",
      "outputs": [
        {
          "internalType": "address",
          "name": "",
          "type": "address"
        }
      ],
      "stateMutability": "view",
      "type": "function",
      "constant": true
    },
    {
      "inputs": [
        {
          "internalType": "address",
          "name": "from",
          "type": "address"
        },
        {
          "internalType": "address",
          "name": "to",
          "type": "address"
        },
        {
          "internalType": "uint256",
          "name": "tokenId",
          "type": "uint256"
        }
      ],
      "name": "safeTransferFrom",
      "outputs": [],
      "stateMutability": "nonpayable",
      "type": "function"
    },
    {
      "inputs": [
        {
          "internalType": "address",
          "name": "from",
          "type": "address"
        },
        {
          "internalType": "address",
          "name": "to",
          "type": "address"
        },
        {
          "internalType": "uint256",
          "name": "tokenId",
          "type": "uint256"
        },
        {
          "internalType": "bytes",
          "name": "_data",
          "type": "bytes"
        }
      ],
      "name": "safeTransferFrom",
      "outputs": [],
      "stateMutability": "nonpayable",
      "type": "function"
    },
    {
      "inputs": [
        {
          "internalType": "address",
          "name": "operator",
          "type": "address"
        },
        {
          "internalType": "bool",
          "name": "approved",
          "type": "bool"
        }
      ],
      "name": "setApprovalForAll",
      "outputs": [],
      "stateMutability": "nonpayable",
      "type": "function"
    },
    {
      "inputs": [
        {
          "internalType": "bytes4",
          "name": "interfaceId",
          "type": "bytes4"
        }
      ],
      "name": "supportsInterface",
      "outputs": [
        {
          "internalType": "bool",
          "name": "",
          "type": "bool"
        }
      ],
      "stateMutability": "view",
      "type": "function",
      "constant": true
    },
    {
      "inputs": [],
      "name": "symbol",
      "outputs": [
        {
          "internalType": "string",
          "name": "",
          "type": "string"
        }
      ],
      "stateMutability": "view",
      "type": "function",
      "constant": true
    },
    {
      "inputs": [
        {
          "internalType": "uint256",
          "name": "tokenId",
          "type": "uint256"
        }
      ],
      "name": "tokenURI",
      "outputs": [
        {
          "internalType": "string",
          "name": "",
          "type": "string"
        }
      ],
      "stateMutability": "view",
      "type": "function",
      "constant": true
    },
    {
      "inputs": [
        {
          "internalType": "address",
          "name": "from",
          "type": "address"
        },
        {
          "internalType": "address",
          "name": "to",
          "type": "address"
        },
        {
          "internalType": "uint256",
          "name": "tokenId",
          "type": "uint256"
        }
      ],
      "name": "transferFrom",
      "outputs": [],
      "stateMutability": "nonpayable",
      "type": "function"
    },
    {
      "inputs": [
        {
          "internalType": "string",
          "name": "id",
          "type": "string"
        },
        {
          "internalType": "string",
          "name": "name",
          "type": "string"
        },
        {
          "internalType": "string",
          "name": "description",
          "type": "string"
        },
        {
          "internalType": "address",
          "name": "athleteAddress",
          "type": "address"
        },
        {
          "internalType": "uint256",
          "name": "price",
          "type": "uint256"
        },
        {
          "internalType": "uint256",
          "name": "maxSize",
          "type": "uint256"
        },
        {
          "internalType": "address",
          "name": "addressToPay",
          "type": "address"
        },
        {
          "internalType": "string",
          "name": "imageIpfsHash",
          "type": "string"
        },
        {
          "internalType": "string",
          "name": "metadataIpfsHash",
          "type": "string"
        }
      ],
      "name": "createCollection",
      "outputs": [],
      "stateMutability": "nonpayable",
      "type": "function"
    },
    {
      "inputs": [
        {
          "internalType": "string[]",
          "name": "eventIds",
          "type": "string[]"
        }
      ],
      "name": "getEventCounters",
      "outputs": [
        {
          "internalType": "uint256[]",
          "name": "",
          "type": "uint256[]"
        }
      ],
      "stateMutability": "view",
      "type": "function",
      "constant": true
    },
    {
      "inputs": [
        {
          "internalType": "string",
          "name": "collectionId",
          "type": "string"
        },
        {
          "internalType": "uint256",
          "name": "price",
          "type": "uint256"
        },
        {
          "internalType": "uint256",
          "name": "maxSize",
          "type": "uint256"
        },
        {
          "internalType": "address payable",
          "name": "addressToPay",
          "type": "address"
        },
        {
          "internalType": "string",
          "name": "tokenURI",
          "type": "string"
        }
      ],
      "name": "mintNFT",
      "outputs": [
        {
          "internalType": "uint256",
          "name": "",
          "type": "uint256"
        }
      ],
      "stateMutability": "payable",
      "type": "function",
      "payable": true
    }
  ],
  "bytecode": "0x60806040523480156200001157600080fd5b506040518060400160405280600481526020017f43617264000000000000000000000000000000000000000000000000000000008152506040518060400160405280600381526020017f4352440000000000000000000000000000000000000000000000000000000000815250816000908051906020019062000096929190620000b8565b508060019080519060200190620000af929190620000b8565b505050620001cd565b828054620000c69062000168565b90600052602060002090601f016020900481019282620000ea576000855562000136565b82601f106200010557805160ff191683800117855562000136565b8280016001018555821562000136579182015b828111156200013557825182559160200191906001019062000118565b5b50905062000145919062000149565b5090565b5b80821115620001645760008160009055506001016200014a565b5090565b600060028204905060018216806200018157607f821691505b602082108114156200019857620001976200019e565b5b50919050565b7f4e487b7100000000000000000000000000000000000000000000000000000000600052602260045260246000fd5b61363480620001dd6000396000f3fe6080604052600436106100f35760003560e01c806370a082311161008a578063c87b56dd11610059578063c87b56dd1461034c578063e743ceb514610389578063e985e9c5146103b9578063f32dc304146103f6576100f3565b806370a082311461029257806395d89b41146102cf578063a22cb465146102fa578063b88d4fde14610323576100f3565b806323b872dd116100c657806323b872dd146101c657806342842e0e146101ef5780635588fa34146102185780636352211e14610255576100f3565b806301ffc9a7146100f857806306fdde0314610135578063081812fc14610160578063095ea7b31461019d575b600080fd5b34801561010457600080fd5b5061011f600480360381019061011a9190612180565b61041f565b60405161012c9190612892565b60405180910390f35b34801561014157600080fd5b5061014a610501565b60405161015791906128ad565b60405180910390f35b34801561016c57600080fd5b50610187600480360381019061018291906123b7565b610593565b6040516101949190612809565b60405180910390f35b3480156101a957600080fd5b506101c460048036038101906101bf9190612103565b610618565b005b3480156101d257600080fd5b506101ed60048036038101906101e89190611ffd565b610730565b005b3480156101fb57600080fd5b5061021660048036038101906102119190611ffd565b610790565b005b34801561022457600080fd5b5061023f600480360381019061023a919061213f565b6107b0565b60405161024c9190612870565b60405180910390f35b34801561026157600080fd5b5061027c600480360381019061027791906123b7565b610883565b6040516102899190612809565b60405180910390f35b34801561029e57600080fd5b506102b960048036038101906102b49190611f98565b610935565b6040516102c69190612bc1565b60405180910390f35b3480156102db57600080fd5b506102e46109ed565b6040516102f191906128ad565b60405180910390f35b34801561030657600080fd5b50610321600480360381019061031c91906120c7565b610a7f565b005b34801561032f57600080fd5b5061034a6004803603810190610345919061204c565b610a95565b005b34801561035857600080fd5b50610373600480360381019061036e91906123b7565b610af7565b60405161038091906128ad565b60405180910390f35b6103a3600480360381019061039e9190612310565b610c49565b6040516103b09190612bc1565b60405180910390f35b3480156103c557600080fd5b506103e060048036038101906103db9190611fc1565b610e73565b6040516103ed9190612892565b60405180910390f35b34801561040257600080fd5b5061041d600480360381019061041891906121d2565b610f07565b005b60007f80ac58cd000000000000000000000000000000000000000000000000000000007bffffffffffffffffffffffffffffffffffffffffffffffffffffffff1916827bffffffffffffffffffffffffffffffffffffffffffffffffffffffff191614806104ea57507f5b5e139f000000000000000000000000000000000000000000000000000000007bffffffffffffffffffffffffffffffffffffffffffffffffffffffff1916827bffffffffffffffffffffffffffffffffffffffffffffffffffffffff1916145b806104fa57506104f982610fca565b5b9050919050565b60606000805461051090612ee8565b80601f016020809104026020016040519081016040528092919081815260200182805461053c90612ee8565b80156105895780601f1061055e57610100808354040283529160200191610589565b820191906000526020600020905b81548152906001019060200180831161056c57829003601f168201915b5050505050905090565b600061059e82611034565b6105dd576040517f08c379a00000000000000000000000000000000000000000000000000000000081526004016105d490612b01565b60405180910390fd5b6004600083815260200190815260200160002060009054906101000a900473ffffffffffffffffffffffffffffffffffffffff169050919050565b600061062382610883565b90508073ffffffffffffffffffffffffffffffffffffffff168373ffffffffffffffffffffffffffffffffffffffff161415610694576040517f08c379a000000000000000000000000000000000000000000000000000000000815260040161068b90612b61565b60405180910390fd5b8073ffffffffffffffffffffffffffffffffffffffff166106b36110a0565b73ffffffffffffffffffffffffffffffffffffffff1614806106e257506106e1816106dc6110a0565b610e73565b5b610721576040517f08c379a000000000000000000000000000000000000000000000000000000000815260040161071890612a41565b60405180910390fd5b61072b83836110a8565b505050565b61074161073b6110a0565b82611161565b610780576040517f08c379a000000000000000000000000000000000000000000000000000000000815260040161077790612b81565b60405180910390fd5b61078b83838361123f565b505050565b6107ab83838360405180602001604052806000815250610a95565b505050565b60608060005b83518110156108795760088482815181106107fa577f4e487b7100000000000000000000000000000000000000000000000000000000600052603260045260246000fd5b602002602001015160405161080f91906127ce565b90815260200160405180910390206000015482828151811061085a577f4e487b7100000000000000000000000000000000000000000000000000000000600052603260045260246000fd5b602002602001018181525050808061087190612f4b565b9150506107b6565b5080915050919050565b6000806002600084815260200190815260200160002060009054906101000a900473ffffffffffffffffffffffffffffffffffffffff169050600073ffffffffffffffffffffffffffffffffffffffff168173ffffffffffffffffffffffffffffffffffffffff16141561092c576040517f08c379a000000000000000000000000000000000000000000000000000000000815260040161092390612a81565b60405180910390fd5b80915050919050565b60008073ffffffffffffffffffffffffffffffffffffffff168273ffffffffffffffffffffffffffffffffffffffff1614156109a6576040517f08c379a000000000000000000000000000000000000000000000000000000000815260040161099d90612a61565b60405180910390fd5b600360008373ffffffffffffffffffffffffffffffffffffffff1673ffffffffffffffffffffffffffffffffffffffff168152602001908152602001600020549050919050565b6060600180546109fc90612ee8565b80601f0160208091040260200160405190810160405280929190818152602001828054610a2890612ee8565b8015610a755780601f10610a4a57610100808354040283529160200191610a75565b820191906000526020600020905b815481529060010190602001808311610a5857829003601f168201915b5050505050905090565b610a91610a8a6110a0565b838361149b565b5050565b610aa6610aa06110a0565b83611161565b610ae5576040517f08c379a0000000000000000000000000000000000000000000000000000000008152600401610adc90612b81565b60405180910390fd5b610af184848484611608565b50505050565b6060610b0282611034565b610b41576040517f08c379a0000000000000000000000000000000000000000000000000000000008152600401610b3890612ae1565b60405180910390fd5b6000600660008481526020019081526020016000208054610b6190612ee8565b80601f0160208091040260200160405190810160405280929190818152602001828054610b8d90612ee8565b8015610bda5780601f10610baf57610100808354040283529160200191610bda565b820191906000526020600020905b815481529060010190602001808311610bbd57829003601f168201915b505050505090506000610beb611664565b9050600081511415610c01578192505050610c44565b600082511115610c36578082604051602001610c1e9291906127e5565b60405160208183030381529060405292505050610c44565b610c3f8461167b565b925050505b919050565b600084341015610c8e576040517f08c379a0000000000000000000000000000000000000000000000000000000008152600401610c8590612a21565b60405180910390fd5b8273ffffffffffffffffffffffffffffffffffffffff168373ffffffffffffffffffffffffffffffffffffffff1614610cfc576040517f08c379a0000000000000000000000000000000000000000000000000000000008152600401610cf390612ba1565b60405180910390fd5b83600887604051610d0d91906127ce565b9081526020016040518091039020600001541015610d60576040517f08c379a0000000000000000000000000000000000000000000000000000000008152600401610d57906129e1565b60405180910390fd5b610d86600887604051610d7391906127ce565b9081526020016040518091039020611722565b6000610dae600888604051610d9b91906127ce565b9081526020016040518091039020611738565b9050610dba3382611746565b610dc48184611914565b8373ffffffffffffffffffffffffffffffffffffffff166108fc879081150290604051600060405180830381858888f19350505050158015610e0a573d6000803e3d6000fd5b5085341115610e66573373ffffffffffffffffffffffffffffffffffffffff166108fc8734610e399190612dec565b9081150290604051600060405180830381858888f19350505050158015610e64573d6000803e3d6000fd5b505b8091505095945050505050565b6000600560008473ffffffffffffffffffffffffffffffffffffffff1673ffffffffffffffffffffffffffffffffffffffff16815260200190815260200160002060008373ffffffffffffffffffffffffffffffffffffffff1673ffffffffffffffffffffffffffffffffffffffff16815260200190815260200160002060009054906101000a900460ff16905092915050565b610f0f611ce4565b8060088b604051610f2091906127ce565b9081526020016040518091039020600082015181600001559050506000601887610f4a9190612d92565b90508473ffffffffffffffffffffffffffffffffffffffff168873ffffffffffffffffffffffffffffffffffffffff167f1757a163ff57c262dc20ed61df13db5158e2cbe6f338bbe8369692226184f7578d8d8d868c8b8b604051610fb597969594939291906128cf565b60405180910390a35050505050505050505050565b60007f01ffc9a7000000000000000000000000000000000000000000000000000000007bffffffffffffffffffffffffffffffffffffffffffffffffffffffff1916827bffffffffffffffffffffffffffffffffffffffffffffffffffffffff1916149050919050565b60008073ffffffffffffffffffffffffffffffffffffffff166002600084815260200190815260200160002060009054906101000a900473ffffffffffffffffffffffffffffffffffffffff1673ffffffffffffffffffffffffffffffffffffffff1614159050919050565b600033905090565b816004600083815260200190815260200160002060006101000a81548173ffffffffffffffffffffffffffffffffffffffff021916908373ffffffffffffffffffffffffffffffffffffffff160217905550808273ffffffffffffffffffffffffffffffffffffffff1661111b83610883565b73ffffffffffffffffffffffffffffffffffffffff167f8c5be1e5ebec7d5bd14f71427d1e84f3dd0314c0f7b2291e5b200ac8c7c3b92560405160405180910390a45050565b600061116c82611034565b6111ab576040517f08c379a00000000000000000000000000000000000000000000000000000000081526004016111a290612a01565b60405180910390fd5b60006111b683610883565b90508073ffffffffffffffffffffffffffffffffffffffff168473ffffffffffffffffffffffffffffffffffffffff16148061122557508373ffffffffffffffffffffffffffffffffffffffff1661120d84610593565b73ffffffffffffffffffffffffffffffffffffffff16145b8061123657506112358185610e73565b5b91505092915050565b8273ffffffffffffffffffffffffffffffffffffffff1661125f82610883565b73ffffffffffffffffffffffffffffffffffffffff16146112b5576040517f08c379a00000000000000000000000000000000000000000000000000000000081526004016112ac90612b21565b60405180910390fd5b600073ffffffffffffffffffffffffffffffffffffffff168273ffffffffffffffffffffffffffffffffffffffff161415611325576040517f08c379a000000000000000000000000000000000000000000000000000000000815260040161131c906129a1565b60405180910390fd5b611330838383611988565b61133b6000826110a8565b6001600360008573ffffffffffffffffffffffffffffffffffffffff1673ffffffffffffffffffffffffffffffffffffffff168152602001908152602001600020600082825461138b9190612dec565b925050819055506001600360008473ffffffffffffffffffffffffffffffffffffffff1673ffffffffffffffffffffffffffffffffffffffff16815260200190815260200160002060008282546113e29190612d0b565b92505081905550816002600083815260200190815260200160002060006101000a81548173ffffffffffffffffffffffffffffffffffffffff021916908373ffffffffffffffffffffffffffffffffffffffff160217905550808273ffffffffffffffffffffffffffffffffffffffff168473ffffffffffffffffffffffffffffffffffffffff167fddf252ad1be2c89b69c2b068fc378daa952ba7f163c4a11628f55a4df523b3ef60405160405180910390a4505050565b8173ffffffffffffffffffffffffffffffffffffffff168373ffffffffffffffffffffffffffffffffffffffff16141561150a576040517f08c379a0000000000000000000000000000000000000000000000000000000008152600401611501906129c1565b60405180910390fd5b80600560008573ffffffffffffffffffffffffffffffffffffffff1673ffffffffffffffffffffffffffffffffffffffff16815260200190815260200160002060008473ffffffffffffffffffffffffffffffffffffffff1673ffffffffffffffffffffffffffffffffffffffff16815260200190815260200160002060006101000a81548160ff0219169083151502179055508173ffffffffffffffffffffffffffffffffffffffff168373ffffffffffffffffffffffffffffffffffffffff167f17307eab39ab6107e8899845ad3d59bd9653f200f220920489ca2b5937696c31836040516115fb9190612892565b60405180910390a3505050565b61161384848461123f565b61161f8484848461198d565b61165e576040517f08c379a000000000000000000000000000000000000000000000000000000000815260040161165590612961565b60405180910390fd5b50505050565b606060405180602001604052806000815250905090565b606061168682611034565b6116c5576040517f08c379a00000000000000000000000000000000000000000000000000000000081526004016116bc90612b41565b60405180910390fd5b60006116cf611664565b905060008151116116ef576040518060200160405280600081525061171a565b806116f984611b24565b60405160200161170a9291906127e5565b6040516020818303038152906040525b915050919050565b6001816000016000828254019250508190555050565b600081600001549050919050565b600073ffffffffffffffffffffffffffffffffffffffff168273ffffffffffffffffffffffffffffffffffffffff1614156117b6576040517f08c379a00000000000000000000000000000000000000000000000000000000081526004016117ad90612ac1565b60405180910390fd5b6117bf81611034565b156117ff576040517f08c379a00000000000000000000000000000000000000000000000000000000081526004016117f690612981565b60405180910390fd5b61180b60008383611988565b6001600360008473ffffffffffffffffffffffffffffffffffffffff1673ffffffffffffffffffffffffffffffffffffffff168152602001908152602001600020600082825461185b9190612d0b565b92505081905550816002600083815260200190815260200160002060006101000a81548173ffffffffffffffffffffffffffffffffffffffff021916908373ffffffffffffffffffffffffffffffffffffffff160217905550808273ffffffffffffffffffffffffffffffffffffffff16600073ffffffffffffffffffffffffffffffffffffffff167fddf252ad1be2c89b69c2b068fc378daa952ba7f163c4a11628f55a4df523b3ef60405160405180910390a45050565b61191d82611034565b61195c576040517f08c379a000000000000000000000000000000000000000000000000000000000815260040161195390612aa1565b60405180910390fd5b80600660008481526020019081526020016000209080519060200190611983929190611cf7565b505050565b505050565b60006119ae8473ffffffffffffffffffffffffffffffffffffffff16611cd1565b15611b17578373ffffffffffffffffffffffffffffffffffffffff1663150b7a026119d76110a0565b8786866040518563ffffffff1660e01b81526004016119f99493929190612824565b602060405180830381600087803b158015611a1357600080fd5b505af1925050508015611a4457506040513d601f19601f82011682018060405250810190611a4191906121a9565b60015b611ac7573d8060008114611a74576040519150601f19603f3d011682016040523d82523d6000602084013e611a79565b606091505b50600081511415611abf576040517f08c379a0000000000000000000000000000000000000000000000000000000008152600401611ab690612961565b60405180910390fd5b805181602001fd5b63150b7a0260e01b7bffffffffffffffffffffffffffffffffffffffffffffffffffffffff1916817bffffffffffffffffffffffffffffffffffffffffffffffffffffffff191614915050611b1c565b600190505b949350505050565b60606000821415611b6c576040518060400160405280600181526020017f30000000000000000000000000000000000000000000000000000000000000008152509050611ccc565b600082905060005b60008214611b9e578080611b8790612f4b565b915050600a82611b979190612d61565b9150611b74565b60008167ffffffffffffffff811115611be0577f4e487b7100000000000000000000000000000000000000000000000000000000600052604160045260246000fd5b6040519080825280601f01601f191660200182016040528015611c125781602001600182028036833780820191505090505b5090505b60008514611cc557600182611c2b9190612dec565b9150600a85611c3a9190612f94565b6030611c469190612d0b565b60f81b818381518110611c82577f4e487b7100000000000000000000000000000000000000000000000000000000600052603260045260246000fd5b60200101907effffffffffffffffffffffffffffffffffffffffffffffffffffffffffffff1916908160001a905350600a85611cbe9190612d61565b9450611c16565b8093505050505b919050565b600080823b905060008111915050919050565b6040518060200160405280600081525090565b828054611d0390612ee8565b90600052602060002090601f016020900481019282611d255760008555611d6c565b82601f10611d3e57805160ff1916838001178555611d6c565b82800160010185558215611d6c579182015b82811115611d6b578251825591602001919060010190611d50565b5b509050611d799190611d7d565b5090565b5b80821115611d96576000816000905550600101611d7e565b5090565b6000611dad611da884612c01565b612bdc565b90508083825260208201905082856020860282011115611dcc57600080fd5b60005b85811015611e1657813567ffffffffffffffff811115611dee57600080fd5b808601611dfb8982611f59565b85526020850194506020840193505050600181019050611dcf565b5050509392505050565b6000611e33611e2e84612c2d565b612bdc565b905082815260208101848484011115611e4b57600080fd5b611e56848285612ea6565b509392505050565b6000611e71611e6c84612c5e565b612bdc565b905082815260208101848484011115611e8957600080fd5b611e94848285612ea6565b509392505050565b600081359050611eab8161358b565b92915050565b600081359050611ec0816135a2565b92915050565b600082601f830112611ed757600080fd5b8135611ee7848260208601611d9a565b91505092915050565b600081359050611eff816135b9565b92915050565b600081359050611f14816135d0565b92915050565b600081519050611f29816135d0565b92915050565b600082601f830112611f4057600080fd5b8135611f50848260208601611e20565b91505092915050565b600082601f830112611f6a57600080fd5b8135611f7a848260208601611e5e565b91505092915050565b600081359050611f92816135e7565b92915050565b600060208284031215611faa57600080fd5b6000611fb884828501611e9c565b91505092915050565b60008060408385031215611fd457600080fd5b6000611fe285828601611e9c565b9250506020611ff385828601611e9c565b9150509250929050565b60008060006060848603121561201257600080fd5b600061202086828701611e9c565b935050602061203186828701611e9c565b925050604061204286828701611f83565b9150509250925092565b6000806000806080858703121561206257600080fd5b600061207087828801611e9c565b945050602061208187828801611e9c565b935050604061209287828801611f83565b925050606085013567ffffffffffffffff8111156120af57600080fd5b6120bb87828801611f2f565b91505092959194509250565b600080604083850312156120da57600080fd5b60006120e885828601611e9c565b92505060206120f985828601611ef0565b9150509250929050565b6000806040838503121561211657600080fd5b600061212485828601611e9c565b925050602061213585828601611f83565b9150509250929050565b60006020828403121561215157600080fd5b600082013567ffffffffffffffff81111561216b57600080fd5b61217784828501611ec6565b91505092915050565b60006020828403121561219257600080fd5b60006121a084828501611f05565b91505092915050565b6000602082840312156121bb57600080fd5b60006121c984828501611f1a565b91505092915050565b60008060008060008060008060006101208a8c0312156121f157600080fd5b60008a013567ffffffffffffffff81111561220b57600080fd5b6122178c828d01611f59565b99505060208a013567ffffffffffffffff81111561223457600080fd5b6122408c828d01611f59565b98505060408a013567ffffffffffffffff81111561225d57600080fd5b6122698c828d01611f59565b975050606061227a8c828d01611e9c565b965050608061228b8c828d01611f83565b95505060a061229c8c828d01611f83565b94505060c06122ad8c828d01611e9c565b93505060e08a013567ffffffffffffffff8111156122ca57600080fd5b6122d68c828d01611f59565b9250506101008a013567ffffffffffffffff8111156122f457600080fd5b6123008c828d01611f59565b9150509295985092959850929598565b600080600080600060a0868803121561232857600080fd5b600086013567ffffffffffffffff81111561234257600080fd5b61234e88828901611f59565b955050602061235f88828901611f83565b945050604061237088828901611f83565b935050606061238188828901611eb1565b925050608086013567ffffffffffffffff81111561239e57600080fd5b6123aa88828901611f59565b9150509295509295909350565b6000602082840312156123c957600080fd5b60006123d784828501611f83565b91505092915050565b60006123ec83836127b0565b60208301905092915050565b61240181612e20565b82525050565b600061241282612c9f565b61241c8185612ccd565b935061242783612c8f565b8060005b8381101561245857815161243f88826123e0565b975061244a83612cc0565b92505060018101905061242b565b5085935050505092915050565b61246e81612e44565b82525050565b600061247f82612caa565b6124898185612cde565b9350612499818560208601612eb5565b6124a281613081565b840191505092915050565b60006124b882612cb5565b6124c28185612cef565b93506124d2818560208601612eb5565b6124db81613081565b840191505092915050565b60006124f182612cb5565b6124fb8185612d00565b935061250b818560208601612eb5565b80840191505092915050565b6000612524603283612cef565b915061252f82613092565b604082019050919050565b6000612547601c83612cef565b9150612552826130e1565b602082019050919050565b600061256a602483612cef565b91506125758261310a565b604082019050919050565b600061258d601983612cef565b915061259882613159565b602082019050919050565b60006125b0601683612cef565b91506125bb82613182565b602082019050919050565b60006125d3602c83612cef565b91506125de826131ab565b604082019050919050565b60006125f6601283612cef565b9150612601826131fa565b602082019050919050565b6000612619603883612cef565b915061262482613223565b604082019050919050565b600061263c602a83612cef565b915061264782613272565b604082019050919050565b600061265f602983612cef565b915061266a826132c1565b604082019050919050565b6000612682602e83612cef565b915061268d82613310565b604082019050919050565b60006126a5602083612cef565b91506126b08261335f565b602082019050919050565b60006126c8603183612cef565b91506126d382613388565b604082019050919050565b60006126eb602c83612cef565b91506126f6826133d7565b604082019050919050565b600061270e602983612cef565b915061271982613426565b604082019050919050565b6000612731602f83612cef565b915061273c82613475565b604082019050919050565b6000612754602183612cef565b915061275f826134c4565b604082019050919050565b6000612777603183612cef565b915061278282613513565b604082019050919050565b600061279a601683612cef565b91506127a582613562565b602082019050919050565b6127b981612e9c565b82525050565b6127c881612e9c565b82525050565b60006127da82846124e6565b915081905092915050565b60006127f182856124e6565b91506127fd82846124e6565b91508190509392505050565b600060208201905061281e60008301846123f8565b92915050565b600060808201905061283960008301876123f8565b61284660208301866123f8565b61285360408301856127bf565b81810360608301526128658184612474565b905095945050505050565b6000602082019050818103600083015261288a8184612407565b905092915050565b60006020820190506128a76000830184612465565b92915050565b600060208201905081810360008301526128c781846124ad565b905092915050565b600060e08201905081810360008301526128e9818a6124ad565b905081810360208301526128fd81896124ad565b9050818103604083015261291181886124ad565b905061292060608301876127bf565b61292d60808301866127bf565b81810360a083015261293f81856124ad565b905081810360c083015261295381846124ad565b905098975050505050505050565b6000602082019050818103600083015261297a81612517565b9050919050565b6000602082019050818103600083015261299a8161253a565b9050919050565b600060208201905081810360008301526129ba8161255d565b9050919050565b600060208201905081810360008301526129da81612580565b9050919050565b600060208201905081810360008301526129fa816125a3565b9050919050565b60006020820190508181036000830152612a1a816125c6565b9050919050565b60006020820190508181036000830152612a3a816125e9565b9050919050565b60006020820190508181036000830152612a5a8161260c565b9050919050565b60006020820190508181036000830152612a7a8161262f565b9050919050565b60006020820190508181036000830152612a9a81612652565b9050919050565b60006020820190508181036000830152612aba81612675565b9050919050565b60006020820190508181036000830152612ada81612698565b9050919050565b60006020820190508181036000830152612afa816126bb565b9050919050565b60006020820190508181036000830152612b1a816126de565b9050919050565b60006020820190508181036000830152612b3a81612701565b9050919050565b60006020820190508181036000830152612b5a81612724565b9050919050565b60006020820190508181036000830152612b7a81612747565b9050919050565b60006020820190508181036000830152612b9a8161276a565b9050919050565b60006020820190508181036000830152612bba8161278d565b9050919050565b6000602082019050612bd660008301846127bf565b92915050565b6000612be6612bf7565b9050612bf28282612f1a565b919050565b6000604051905090565b600067ffffffffffffffff821115612c1c57612c1b613052565b5b602082029050602081019050919050565b600067ffffffffffffffff821115612c4857612c47613052565b5b612c5182613081565b9050602081019050919050565b600067ffffffffffffffff821115612c7957612c78613052565b5b612c8282613081565b9050602081019050919050565b6000819050602082019050919050565b600081519050919050565b600081519050919050565b600081519050919050565b6000602082019050919050565b600082825260208201905092915050565b600082825260208201905092915050565b600082825260208201905092915050565b600081905092915050565b6000612d1682612e9c565b9150612d2183612e9c565b9250827fffffffffffffffffffffffffffffffffffffffffffffffffffffffffffffffff03821115612d5657612d55612fc5565b5b828201905092915050565b6000612d6c82612e9c565b9150612d7783612e9c565b925082612d8757612d86612ff4565b5b828204905092915050565b6000612d9d82612e9c565b9150612da883612e9c565b9250817fffffffffffffffffffffffffffffffffffffffffffffffffffffffffffffffff0483118215151615612de157612de0612fc5565b5b828202905092915050565b6000612df782612e9c565b9150612e0283612e9c565b925082821015612e1557612e14612fc5565b5b828203905092915050565b6000612e2b82612e7c565b9050919050565b6000612e3d82612e7c565b9050919050565b60008115159050919050565b60007fffffffff0000000000000000000000000000000000000000000000000000000082169050919050565b600073ffffffffffffffffffffffffffffffffffffffff82169050919050565b6000819050919050565b82818337600083830152505050565b60005b83811015612ed3578082015181840152602081019050612eb8565b83811115612ee2576000848401525b50505050565b60006002820490506001821680612f0057607f821691505b60208210811415612f1457612f13613023565b5b50919050565b612f2382613081565b810181811067ffffffffffffffff82111715612f4257612f41613052565b5b80604052505050565b6000612f5682612e9c565b91507fffffffffffffffffffffffffffffffffffffffffffffffffffffffffffffffff821415612f8957612f88612fc5565b5b600182019050919050565b6000612f9f82612e9c565b9150612faa83612e9c565b925082612fba57612fb9612ff4565b5b828206905092915050565b7f4e487b7100000000000000000000000000000000000000000000000000000000600052601160045260246000fd5b7f4e487b7100000000000000000000000000000000000000000000000000000000600052601260045260246000fd5b7f4e487b7100000000000000000000000000000000000000000000000000000000600052602260045260246000fd5b7f4e487b7100000000000000000000000000000000000000000000000000000000600052604160045260246000fd5b6000601f19601f8301169050919050565b7f4552433732313a207472616e7366657220746f206e6f6e20455243373231526560008201527f63656976657220696d706c656d656e7465720000000000000000000000000000602082015250565b7f4552433732313a20746f6b656e20616c7265616479206d696e74656400000000600082015250565b7f4552433732313a207472616e7366657220746f20746865207a65726f2061646460008201527f7265737300000000000000000000000000000000000000000000000000000000602082015250565b7f4552433732313a20617070726f766520746f2063616c6c657200000000000000600082015250565b7f436f6c6c656374696f6e20697320736f6c64206f757400000000000000000000600082015250565b7f4552433732313a206f70657261746f7220717565727920666f72206e6f6e657860008201527f697374656e7420746f6b656e0000000000000000000000000000000000000000602082015250565b7f496e73756666696369656e742066756e64730000000000000000000000000000600082015250565b7f4552433732313a20617070726f76652063616c6c6572206973206e6f74206f7760008201527f6e6572206e6f7220617070726f76656420666f7220616c6c0000000000000000602082015250565b7f4552433732313a2062616c616e636520717565727920666f7220746865207a6560008201527f726f206164647265737300000000000000000000000000000000000000000000602082015250565b7f4552433732313a206f776e657220717565727920666f72206e6f6e657869737460008201527f656e7420746f6b656e0000000000000000000000000000000000000000000000602082015250565b7f45524337323155524953746f726167653a2055524920736574206f66206e6f6e60008201527f6578697374656e7420746f6b656e000000000000000000000000000000000000602082015250565b7f4552433732313a206d696e7420746f20746865207a65726f2061646472657373600082015250565b7f45524337323155524953746f726167653a2055524920717565727920666f722060008201527f6e6f6e6578697374656e7420746f6b656e000000000000000000000000000000602082015250565b7f4552433732313a20617070726f76656420717565727920666f72206e6f6e657860008201527f697374656e7420746f6b656e0000000000000000000000000000000000000000602082015250565b7f4552433732313a207472616e73666572206f6620746f6b656e2074686174206960008201527f73206e6f74206f776e0000000000000000000000000000000000000000000000602082015250565b7f4552433732314d657461646174613a2055524920717565727920666f72206e6f60008201527f6e6578697374656e7420746f6b656e0000000000000000000000000000000000602082015250565b7f4552433732313a20617070726f76616c20746f2063757272656e74206f776e6560008201527f7200000000000000000000000000000000000000000000000000000000000000602082015250565b7f4552433732313a207472616e736665722063616c6c6572206973206e6f74206f60008201527f776e6572206e6f7220617070726f766564000000000000000000000000000000602082015250565b7f496e76616c6964206164647265737320746f2070617900000000000000000000600082015250565b61359481612e20565b811461359f57600080fd5b50565b6135ab81612e32565b81146135b657600080fd5b50565b6135c281612e44565b81146135cd57600080fd5b50565b6135d981612e50565b81146135e457600080fd5b50565b6135f081612e9c565b81146135fb57600080fd5b5056fea26469706673582212201e54a347103926eecd71532cbb2ea49d0f071ac22b5286c41f216c1826a2778c64736f6c63430008040033",
  "immutableReferences": {},
  "source": "//Contract based on [https://docs.openzeppelin.com/contracts/3.x/erc721](https://docs.openzeppelin.com/contracts/3.x/erc721)\n// SPDX-License-Identifier: MIT\npragma solidity ^0.8.4;\n\nimport \"@openzeppelin/contracts/token/ERC721/ERC721.sol\";\nimport \"@openzeppelin/contracts/utils/Counters.sol\";\nimport \"@openzeppelin/contracts/token/ERC721/extensions/ERC721URIStorage.sol\";\n\ncontract Card is ERC721URIStorage {\n    using Counters for Counters.Counter;\n    Counters.Counter private _tokenIds;\n\n    mapping(string => Counters.Counter) private collectionIdToCounter;\n\n    event NewCollection(\n        string id,\n        string name,\n        string description,\n        address indexed athleteAddress,\n        uint256 price,\n        uint256 maxSize,\n        address indexed addressToPay,\n        string imageIpfsHash,\n        string metadataIpfsHash\n    );\n\n    constructor() public ERC721(\"Card\", \"CRD\") {}\n\n    function createCollection(\n        string memory id,\n        string memory name,\n        string memory description,\n        address athleteAddress,\n        uint256 price,\n        uint256 maxSize,\n        address addressToPay,\n        string memory imageIpfsHash,\n        string memory metadataIpfsHash\n    ) external {\n        Counters.Counter memory initTokenId;\n        collectionIdToCounter[id] = initTokenId;\n        uint256 priceInWei = price * (10 ^ 18);\n        emit NewCollection(\n            id,\n            name,\n            description,\n            athleteAddress,\n            priceInWei,\n            maxSize,\n            addressToPay,\n            imageIpfsHash,\n            metadataIpfsHash\n        );\n    }\n\n    function getEventCounters(string[] memory eventIds)\n        external\n        view\n        returns (uint256[] memory)\n    {\n        uint256[] memory requestedCollectionCounters;\n        for (uint256 i = 0; i < eventIds.length; i++) {\n            requestedCollectionCounters[i] = collectionIdToCounter[eventIds[i]]\n                ._value;\n        }\n        return requestedCollectionCounters;\n    }\n\n    function mintNFT(\n        string memory collectionId,\n        uint256 price,\n        uint256 maxSize,\n        address payable addressToPay,\n        string memory tokenURI\n    ) public payable returns (uint256) {\n        require(msg.value >= price, \"Insufficient funds\");\n        require(\n            addressToPay == address(addressToPay),\n            \"Invalid address to pay\"\n        );\n        require(\n            collectionIdToCounter[collectionId]._value >= maxSize,\n            \"Collection is sold out\"\n        );\n        collectionIdToCounter[collectionId].increment();\n\n        uint256 newItemId = collectionIdToCounter[collectionId].current();\n        _mint(msg.sender, newItemId);\n        _setTokenURI(newItemId, tokenURI);\n        addressToPay.transfer(price);\n        if (msg.value > price) {\n            payable(msg.sender).transfer(msg.value - price);\n        }\n        return newItemId;\n    }\n}\n",
  "sourcePath": "/Users/leojacoby/Hacking/crypto/holiday-cards/truffle/contracts/Card.sol",
  "compiler": {
    "name": "solc",
    "version": "0.8.4+commit.c7e474f2.Emscripten.clang"
  },
  "schemaVersion": "3.4.4",
  "updatedAt": "2022-02-21T06:46:43.388Z",
  "networkType": "ethereum",
  "devdoc": {
    "kind": "dev",
    "methods": {
      "approve(address,uint256)": {
        "details": "See {IERC721-approve}."
      },
      "balanceOf(address)": {
        "details": "See {IERC721-balanceOf}."
      },
      "getApproved(uint256)": {
        "details": "See {IERC721-getApproved}."
      },
      "isApprovedForAll(address,address)": {
        "details": "See {IERC721-isApprovedForAll}."
      },
      "name()": {
        "details": "See {IERC721Metadata-name}."
      },
      "ownerOf(uint256)": {
        "details": "See {IERC721-ownerOf}."
      },
      "safeTransferFrom(address,address,uint256)": {
        "details": "See {IERC721-safeTransferFrom}."
      },
      "safeTransferFrom(address,address,uint256,bytes)": {
        "details": "See {IERC721-safeTransferFrom}."
      },
      "setApprovalForAll(address,bool)": {
        "details": "See {IERC721-setApprovalForAll}."
      },
      "supportsInterface(bytes4)": {
        "details": "See {IERC165-supportsInterface}."
      },
      "symbol()": {
        "details": "See {IERC721Metadata-symbol}."
      },
      "tokenURI(uint256)": {
        "details": "See {IERC721Metadata-tokenURI}."
      },
      "transferFrom(address,address,uint256)": {
        "details": "See {IERC721-transferFrom}."
      }
    },
    "version": 1
  },
  "userdoc": {
    "kind": "user",
    "methods": {},
    "version": 1
  }
}