{
  "contractName": "Card",
  "abi": [
    {
      "inputs": [],
      "stateMutability": "nonpayable",
      "type": "constructor"
    },
    {
      "anonymous": false,
      "inputs": [
        {
          "indexed": true,
          "internalType": "address",
          "name": "owner",
          "type": "address"
        },
        {
          "indexed": true,
          "internalType": "address",
          "name": "approved",
          "type": "address"
        },
        {
          "indexed": true,
          "internalType": "uint256",
          "name": "tokenId",
          "type": "uint256"
        }
      ],
      "name": "Approval",
      "type": "event"
    },
    {
      "anonymous": false,
      "inputs": [
        {
          "indexed": true,
          "internalType": "address",
          "name": "owner",
          "type": "address"
        },
        {
          "indexed": true,
          "internalType": "address",
          "name": "operator",
          "type": "address"
        },
        {
          "indexed": false,
          "internalType": "bool",
          "name": "approved",
          "type": "bool"
        }
      ],
      "name": "ApprovalForAll",
      "type": "event"
    },
    {
      "anonymous": false,
      "inputs": [
        {
          "indexed": false,
          "internalType": "string",
          "name": "collectionId",
          "type": "string"
        },
        {
          "indexed": false,
          "internalType": "string",
          "name": "collectionName",
          "type": "string"
        },
        {
          "indexed": true,
          "internalType": "string",
          "name": "athleteId",
          "type": "string"
        },
        {
          "indexed": false,
          "internalType": "uint256",
          "name": "maxSize",
          "type": "uint256"
        },
        {
          "indexed": true,
          "internalType": "address",
          "name": "addressToPay",
          "type": "address"
        }
      ],
      "name": "NewCollection",
      "type": "event"
    },
    {
      "anonymous": false,
      "inputs": [
        {
          "indexed": true,
          "internalType": "address",
          "name": "from",
          "type": "address"
        },
        {
          "indexed": true,
          "internalType": "address",
          "name": "to",
          "type": "address"
        },
        {
          "indexed": true,
          "internalType": "uint256",
          "name": "tokenId",
          "type": "uint256"
        }
      ],
      "name": "Transfer",
      "type": "event"
    },
    {
      "inputs": [
        {
          "internalType": "address",
          "name": "to",
          "type": "address"
        },
        {
          "internalType": "uint256",
          "name": "tokenId",
          "type": "uint256"
        }
      ],
      "name": "approve",
      "outputs": [],
      "stateMutability": "nonpayable",
      "type": "function"
    },
    {
      "inputs": [
        {
          "internalType": "address",
          "name": "owner",
          "type": "address"
        }
      ],
      "name": "balanceOf",
      "outputs": [
        {
          "internalType": "uint256",
          "name": "",
          "type": "uint256"
        }
      ],
      "stateMutability": "view",
      "type": "function",
      "constant": true
    },
    {
      "inputs": [
        {
          "internalType": "uint256",
          "name": "",
          "type": "uint256"
        }
      ],
      "name": "collections",
      "outputs": [
        {
          "internalType": "string",
          "name": "id",
          "type": "string"
        },
        {
          "internalType": "string",
          "name": "collectionName",
          "type": "string"
        },
        {
          "internalType": "string",
          "name": "athleteId",
          "type": "string"
        },
        {
          "internalType": "uint256",
          "name": "maxSize",
          "type": "uint256"
        },
        {
          "internalType": "uint256",
          "name": "numMints",
          "type": "uint256"
        },
        {
          "internalType": "address",
          "name": "addressToPay",
          "type": "address"
        }
      ],
      "stateMutability": "view",
      "type": "function",
      "constant": true
    },
    {
      "inputs": [
        {
          "internalType": "uint256",
          "name": "tokenId",
          "type": "uint256"
        }
      ],
      "name": "getApproved",
      "outputs": [
        {
          "internalType": "address",
          "name": "",
          "type": "address"
        }
      ],
      "stateMutability": "view",
      "type": "function",
      "constant": true
    },
    {
      "inputs": [
        {
          "internalType": "address",
          "name": "owner",
          "type": "address"
        },
        {
          "internalType": "address",
          "name": "operator",
          "type": "address"
        }
      ],
      "name": "isApprovedForAll",
      "outputs": [
        {
          "internalType": "bool",
          "name": "",
          "type": "bool"
        }
      ],
      "stateMutability": "view",
      "type": "function",
      "constant": true
    },
    {
      "inputs": [],
      "name": "name",
      "outputs": [
        {
          "internalType": "string",
          "name": "",
          "type": "string"
        }
      ],
      "stateMutability": "view",
      "type": "function",
      "constant": true
    },
    {
      "inputs": [
        {
          "internalType": "uint256",
          "name": "tokenId",
          "type": "uint256"
        }
      ],
      "name": "ownerOf",
      "outputs": [
        {
          "internalType": "address",
          "name": "",
          "type": "address"
        }
      ],
      "stateMutability": "view",
      "type": "function",
      "constant": true
    },
    {
      "inputs": [
        {
          "internalType": "address",
          "name": "from",
          "type": "address"
        },
        {
          "internalType": "address",
          "name": "to",
          "type": "address"
        },
        {
          "internalType": "uint256",
          "name": "tokenId",
          "type": "uint256"
        }
      ],
      "name": "safeTransferFrom",
      "outputs": [],
      "stateMutability": "nonpayable",
      "type": "function"
    },
    {
      "inputs": [
        {
          "internalType": "address",
          "name": "from",
          "type": "address"
        },
        {
          "internalType": "address",
          "name": "to",
          "type": "address"
        },
        {
          "internalType": "uint256",
          "name": "tokenId",
          "type": "uint256"
        },
        {
          "internalType": "bytes",
          "name": "_data",
          "type": "bytes"
        }
      ],
      "name": "safeTransferFrom",
      "outputs": [],
      "stateMutability": "nonpayable",
      "type": "function"
    },
    {
      "inputs": [
        {
          "internalType": "address",
          "name": "operator",
          "type": "address"
        },
        {
          "internalType": "bool",
          "name": "approved",
          "type": "bool"
        }
      ],
      "name": "setApprovalForAll",
      "outputs": [],
      "stateMutability": "nonpayable",
      "type": "function"
    },
    {
      "inputs": [
        {
          "internalType": "bytes4",
          "name": "interfaceId",
          "type": "bytes4"
        }
      ],
      "name": "supportsInterface",
      "outputs": [
        {
          "internalType": "bool",
          "name": "",
          "type": "bool"
        }
      ],
      "stateMutability": "view",
      "type": "function",
      "constant": true
    },
    {
      "inputs": [],
      "name": "symbol",
      "outputs": [
        {
          "internalType": "string",
          "name": "",
          "type": "string"
        }
      ],
      "stateMutability": "view",
      "type": "function",
      "constant": true
    },
    {
      "inputs": [
        {
          "internalType": "uint256",
          "name": "tokenId",
          "type": "uint256"
        }
      ],
      "name": "tokenURI",
      "outputs": [
        {
          "internalType": "string",
          "name": "",
          "type": "string"
        }
      ],
      "stateMutability": "view",
      "type": "function",
      "constant": true
    },
    {
      "inputs": [
        {
          "internalType": "address",
          "name": "from",
          "type": "address"
        },
        {
          "internalType": "address",
          "name": "to",
          "type": "address"
        },
        {
          "internalType": "uint256",
          "name": "tokenId",
          "type": "uint256"
        }
      ],
      "name": "transferFrom",
      "outputs": [],
      "stateMutability": "nonpayable",
      "type": "function"
    },
    {
      "inputs": [
        {
          "internalType": "string",
          "name": "collectionId",
          "type": "string"
        },
        {
          "internalType": "string",
          "name": "collectionName",
          "type": "string"
        },
        {
          "internalType": "string",
          "name": "athleteId",
          "type": "string"
        },
        {
          "internalType": "uint256",
          "name": "maxSize",
          "type": "uint256"
        },
        {
          "internalType": "address",
          "name": "addressToPay",
          "type": "address"
        }
      ],
      "name": "createCollection",
      "outputs": [],
      "stateMutability": "nonpayable",
      "type": "function"
    },
    {
      "inputs": [
        {
          "internalType": "address",
          "name": "recipient",
          "type": "address"
        },
        {
          "internalType": "string",
          "name": "tokenURI",
          "type": "string"
        }
      ],
      "name": "mintNFT",
      "outputs": [
        {
          "internalType": "uint256",
          "name": "",
          "type": "uint256"
        }
      ],
      "stateMutability": "nonpayable",
      "type": "function"
    }
  ],
  "bytecode": "0x60806040523480156200001157600080fd5b506040518060400160405280600481526020017f43617264000000000000000000000000000000000000000000000000000000008152506040518060400160405280600381526020017f4352440000000000000000000000000000000000000000000000000000000000815250816000908051906020019062000096929190620000b8565b508060019080519060200190620000af929190620000b8565b505050620001cd565b828054620000c69062000168565b90600052602060002090601f016020900481019282620000ea576000855562000136565b82601f106200010557805160ff191683800117855562000136565b8280016001018555821562000136579182015b828111156200013557825182559160200191906001019062000118565b5b50905062000145919062000149565b5090565b5b80821115620001645760008160009055506001016200014a565b5090565b600060028204905060018216806200018157607f821691505b602082108114156200019857620001976200019e565b5b50919050565b7f4e487b7100000000000000000000000000000000000000000000000000000000600052602260045260246000fd5b6130fc80620001dd6000396000f3fe608060405234801561001057600080fd5b50600436106101005760003560e01c806370a0823111610097578063c87b56dd11610066578063c87b56dd146102a9578063e985e9c5146102d9578063eacabe1414610309578063fdbda0ec1461033957610100565b806370a082311461022357806395d89b4114610253578063a22cb46514610271578063b88d4fde1461028d57610100565b806323b872dd116100d357806323b872dd1461019f57806342842e0e146101bb5780634e82994c146101d75780636352211e146101f357610100565b806301ffc9a71461010557806306fdde0314610135578063081812fc14610153578063095ea7b314610183575b600080fd5b61011f600480360381019061011a9190612018565b61036e565b60405161012c91906124f4565b60405180910390f35b61013d610450565b60405161014a919061250f565b60405180910390f35b61016d60048036038101906101689190612129565b6104e2565b60405161017a919061248d565b60405180910390f35b61019d60048036038101906101989190611fdc565b610567565b005b6101b960048036038101906101b49190611e82565b61067f565b005b6101d560048036038101906101d09190611e82565b6106df565b005b6101f160048036038101906101ec919061206a565b6106ff565b005b61020d60048036038101906102089190612129565b610891565b60405161021a919061248d565b60405180910390f35b61023d60048036038101906102389190611e1d565b610943565b60405161024a91906127ec565b60405180910390f35b61025b6109fb565b604051610268919061250f565b60405180910390f35b61028b60048036038101906102869190611f4c565b610a8d565b005b6102a760048036038101906102a29190611ed1565b610aa3565b005b6102c360048036038101906102be9190612129565b610b05565b6040516102d0919061250f565b60405180910390f35b6102f360048036038101906102ee9190611e46565b610c57565b60405161030091906124f4565b60405180910390f35b610323600480360381019061031e9190611f88565b610ceb565b60405161033091906127ec565b60405180910390f35b610353600480360381019061034e9190612129565b610d23565b60405161036596959493929190612531565b60405180910390f35b60007f80ac58cd000000000000000000000000000000000000000000000000000000007bffffffffffffffffffffffffffffffffffffffffffffffffffffffff1916827bffffffffffffffffffffffffffffffffffffffffffffffffffffffff1916148061043957507f5b5e139f000000000000000000000000000000000000000000000000000000007bffffffffffffffffffffffffffffffffffffffffffffffffffffffff1916827bffffffffffffffffffffffffffffffffffffffffffffffffffffffff1916145b80610449575061044882610f27565b5b9050919050565b60606000805461045f90612a42565b80601f016020809104026020016040519081016040528092919081815260200182805461048b90612a42565b80156104d85780601f106104ad576101008083540402835291602001916104d8565b820191906000526020600020905b8154815290600101906020018083116104bb57829003601f168201915b5050505050905090565b60006104ed82610f91565b61052c576040517f08c379a00000000000000000000000000000000000000000000000000000000081526004016105239061274c565b60405180910390fd5b6004600083815260200190815260200160002060009054906101000a900473ffffffffffffffffffffffffffffffffffffffff169050919050565b600061057282610891565b90508073ffffffffffffffffffffffffffffffffffffffff168373ffffffffffffffffffffffffffffffffffffffff1614156105e3576040517f08c379a00000000000000000000000000000000000000000000000000000000081526004016105da906127ac565b60405180910390fd5b8073ffffffffffffffffffffffffffffffffffffffff16610602610ffd565b73ffffffffffffffffffffffffffffffffffffffff16148061063157506106308161062b610ffd565b610c57565b5b610670576040517f08c379a00000000000000000000000000000000000000000000000000000000081526004016106679061268c565b60405180910390fd5b61067a8383611005565b505050565b61069061068a610ffd565b826110be565b6106cf576040517f08c379a00000000000000000000000000000000000000000000000000000000081526004016106c6906127cc565b60405180910390fd5b6106da83838361119c565b505050565b6106fa83838360405180602001604052806000815250610aa3565b505050565b60086040518060c00160405280878152602001868152602001858152602001848152602001600081526020018373ffffffffffffffffffffffffffffffffffffffff168152509080600181540180825580915050600190039060005260206000209060060201600090919091909150600082015181600001908051906020019061078a929190611c41565b5060208201518160010190805190602001906107a7929190611c41565b5060408201518160020190805190602001906107c4929190611c41565b50606082015181600301556080820151816004015560a08201518160050160006101000a81548173ffffffffffffffffffffffffffffffffffffffff021916908373ffffffffffffffffffffffffffffffffffffffff16021790555050508073ffffffffffffffffffffffffffffffffffffffff16836040516108479190612452565b60405180910390207f1722c06c639b5764e54b319060f5b1269cc4f84a9d1d7217e7bbbcb10990f281878786604051610882939291906125a7565b60405180910390a35050505050565b6000806002600084815260200190815260200160002060009054906101000a900473ffffffffffffffffffffffffffffffffffffffff169050600073ffffffffffffffffffffffffffffffffffffffff168173ffffffffffffffffffffffffffffffffffffffff16141561093a576040517f08c379a0000000000000000000000000000000000000000000000000000000008152600401610931906126cc565b60405180910390fd5b80915050919050565b60008073ffffffffffffffffffffffffffffffffffffffff168273ffffffffffffffffffffffffffffffffffffffff1614156109b4576040517f08c379a00000000000000000000000000000000000000000000000000000000081526004016109ab906126ac565b60405180910390fd5b600360008373ffffffffffffffffffffffffffffffffffffffff1673ffffffffffffffffffffffffffffffffffffffff168152602001908152602001600020549050919050565b606060018054610a0a90612a42565b80601f0160208091040260200160405190810160405280929190818152602001828054610a3690612a42565b8015610a835780601f10610a5857610100808354040283529160200191610a83565b820191906000526020600020905b815481529060010190602001808311610a6657829003601f168201915b5050505050905090565b610a9f610a98610ffd565b83836113f8565b5050565b610ab4610aae610ffd565b836110be565b610af3576040517f08c379a0000000000000000000000000000000000000000000000000000000008152600401610aea906127cc565b60405180910390fd5b610aff84848484611565565b50505050565b6060610b1082610f91565b610b4f576040517f08c379a0000000000000000000000000000000000000000000000000000000008152600401610b469061272c565b60405180910390fd5b6000600660008481526020019081526020016000208054610b6f90612a42565b80601f0160208091040260200160405190810160405280929190818152602001828054610b9b90612a42565b8015610be85780601f10610bbd57610100808354040283529160200191610be8565b820191906000526020600020905b815481529060010190602001808311610bcb57829003601f168201915b505050505090506000610bf96115c1565b9050600081511415610c0f578192505050610c52565b600082511115610c44578082604051602001610c2c929190612469565b60405160208183030381529060405292505050610c52565b610c4d846115d8565b925050505b919050565b6000600560008473ffffffffffffffffffffffffffffffffffffffff1673ffffffffffffffffffffffffffffffffffffffff16815260200190815260200160002060008373ffffffffffffffffffffffffffffffffffffffff1673ffffffffffffffffffffffffffffffffffffffff16815260200190815260200160002060009054906101000a900460ff16905092915050565b6000610cf7600761167f565b6000610d036007611695565b9050610d0f84826116a3565b610d198184611871565b8091505092915050565b60088181548110610d3357600080fd5b9060005260206000209060060201600091509050806000018054610d5690612a42565b80601f0160208091040260200160405190810160405280929190818152602001828054610d8290612a42565b8015610dcf5780601f10610da457610100808354040283529160200191610dcf565b820191906000526020600020905b815481529060010190602001808311610db257829003601f168201915b505050505090806001018054610de490612a42565b80601f0160208091040260200160405190810160405280929190818152602001828054610e1090612a42565b8015610e5d5780601f10610e3257610100808354040283529160200191610e5d565b820191906000526020600020905b815481529060010190602001808311610e4057829003601f168201915b505050505090806002018054610e7290612a42565b80601f0160208091040260200160405190810160405280929190818152602001828054610e9e90612a42565b8015610eeb5780601f10610ec057610100808354040283529160200191610eeb565b820191906000526020600020905b815481529060010190602001808311610ece57829003601f168201915b5050505050908060030154908060040154908060050160009054906101000a900473ffffffffffffffffffffffffffffffffffffffff16905086565b60007f01ffc9a7000000000000000000000000000000000000000000000000000000007bffffffffffffffffffffffffffffffffffffffffffffffffffffffff1916827bffffffffffffffffffffffffffffffffffffffffffffffffffffffff1916149050919050565b60008073ffffffffffffffffffffffffffffffffffffffff166002600084815260200190815260200160002060009054906101000a900473ffffffffffffffffffffffffffffffffffffffff1673ffffffffffffffffffffffffffffffffffffffff1614159050919050565b600033905090565b816004600083815260200190815260200160002060006101000a81548173ffffffffffffffffffffffffffffffffffffffff021916908373ffffffffffffffffffffffffffffffffffffffff160217905550808273ffffffffffffffffffffffffffffffffffffffff1661107883610891565b73ffffffffffffffffffffffffffffffffffffffff167f8c5be1e5ebec7d5bd14f71427d1e84f3dd0314c0f7b2291e5b200ac8c7c3b92560405160405180910390a45050565b60006110c982610f91565b611108576040517f08c379a00000000000000000000000000000000000000000000000000000000081526004016110ff9061266c565b60405180910390fd5b600061111383610891565b90508073ffffffffffffffffffffffffffffffffffffffff168473ffffffffffffffffffffffffffffffffffffffff16148061118257508373ffffffffffffffffffffffffffffffffffffffff1661116a846104e2565b73ffffffffffffffffffffffffffffffffffffffff16145b8061119357506111928185610c57565b5b91505092915050565b8273ffffffffffffffffffffffffffffffffffffffff166111bc82610891565b73ffffffffffffffffffffffffffffffffffffffff1614611212576040517f08c379a00000000000000000000000000000000000000000000000000000000081526004016112099061276c565b60405180910390fd5b600073ffffffffffffffffffffffffffffffffffffffff168273ffffffffffffffffffffffffffffffffffffffff161415611282576040517f08c379a00000000000000000000000000000000000000000000000000000000081526004016112799061262c565b60405180910390fd5b61128d8383836118e5565b611298600082611005565b6001600360008573ffffffffffffffffffffffffffffffffffffffff1673ffffffffffffffffffffffffffffffffffffffff16815260200190815260200160002060008282546112e89190612958565b925050819055506001600360008473ffffffffffffffffffffffffffffffffffffffff1673ffffffffffffffffffffffffffffffffffffffff168152602001908152602001600020600082825461133f91906128d1565b92505081905550816002600083815260200190815260200160002060006101000a81548173ffffffffffffffffffffffffffffffffffffffff021916908373ffffffffffffffffffffffffffffffffffffffff160217905550808273ffffffffffffffffffffffffffffffffffffffff168473ffffffffffffffffffffffffffffffffffffffff167fddf252ad1be2c89b69c2b068fc378daa952ba7f163c4a11628f55a4df523b3ef60405160405180910390a4505050565b8173ffffffffffffffffffffffffffffffffffffffff168373ffffffffffffffffffffffffffffffffffffffff161415611467576040517f08c379a000000000000000000000000000000000000000000000000000000000815260040161145e9061264c565b60405180910390fd5b80600560008573ffffffffffffffffffffffffffffffffffffffff1673ffffffffffffffffffffffffffffffffffffffff16815260200190815260200160002060008473ffffffffffffffffffffffffffffffffffffffff1673ffffffffffffffffffffffffffffffffffffffff16815260200190815260200160002060006101000a81548160ff0219169083151502179055508173ffffffffffffffffffffffffffffffffffffffff168373ffffffffffffffffffffffffffffffffffffffff167f17307eab39ab6107e8899845ad3d59bd9653f200f220920489ca2b5937696c318360405161155891906124f4565b60405180910390a3505050565b61157084848461119c565b61157c848484846118ea565b6115bb576040517f08c379a00000000000000000000000000000000000000000000000000000000081526004016115b2906125ec565b60405180910390fd5b50505050565b606060405180602001604052806000815250905090565b60606115e382610f91565b611622576040517f08c379a00000000000000000000000000000000000000000000000000000000081526004016116199061278c565b60405180910390fd5b600061162c6115c1565b9050600081511161164c5760405180602001604052806000815250611677565b8061165684611a81565b604051602001611667929190612469565b6040516020818303038152906040525b915050919050565b6001816000016000828254019250508190555050565b600081600001549050919050565b600073ffffffffffffffffffffffffffffffffffffffff168273ffffffffffffffffffffffffffffffffffffffff161415611713576040517f08c379a000000000000000000000000000000000000000000000000000000000815260040161170a9061270c565b60405180910390fd5b61171c81610f91565b1561175c576040517f08c379a00000000000000000000000000000000000000000000000000000000081526004016117539061260c565b60405180910390fd5b611768600083836118e5565b6001600360008473ffffffffffffffffffffffffffffffffffffffff1673ffffffffffffffffffffffffffffffffffffffff16815260200190815260200160002060008282546117b891906128d1565b92505081905550816002600083815260200190815260200160002060006101000a81548173ffffffffffffffffffffffffffffffffffffffff021916908373ffffffffffffffffffffffffffffffffffffffff160217905550808273ffffffffffffffffffffffffffffffffffffffff16600073ffffffffffffffffffffffffffffffffffffffff167fddf252ad1be2c89b69c2b068fc378daa952ba7f163c4a11628f55a4df523b3ef60405160405180910390a45050565b61187a82610f91565b6118b9576040517f08c379a00000000000000000000000000000000000000000000000000000000081526004016118b0906126ec565b60405180910390fd5b806006600084815260200190815260200160002090805190602001906118e0929190611c41565b505050565b505050565b600061190b8473ffffffffffffffffffffffffffffffffffffffff16611c2e565b15611a74578373ffffffffffffffffffffffffffffffffffffffff1663150b7a02611934610ffd565b8786866040518563ffffffff1660e01b815260040161195694939291906124a8565b602060405180830381600087803b15801561197057600080fd5b505af19250505080156119a157506040513d601f19601f8201168201806040525081019061199e9190612041565b60015b611a24573d80600081146119d1576040519150601f19603f3d011682016040523d82523d6000602084013e6119d6565b606091505b50600081511415611a1c576040517f08c379a0000000000000000000000000000000000000000000000000000000008152600401611a13906125ec565b60405180910390fd5b805181602001fd5b63150b7a0260e01b7bffffffffffffffffffffffffffffffffffffffffffffffffffffffff1916817bffffffffffffffffffffffffffffffffffffffffffffffffffffffff191614915050611a79565b600190505b949350505050565b60606000821415611ac9576040518060400160405280600181526020017f30000000000000000000000000000000000000000000000000000000000000008152509050611c29565b600082905060005b60008214611afb578080611ae490612aa5565b915050600a82611af49190612927565b9150611ad1565b60008167ffffffffffffffff811115611b3d577f4e487b7100000000000000000000000000000000000000000000000000000000600052604160045260246000fd5b6040519080825280601f01601f191660200182016040528015611b6f5781602001600182028036833780820191505090505b5090505b60008514611c2257600182611b889190612958565b9150600a85611b979190612aee565b6030611ba391906128d1565b60f81b818381518110611bdf577f4e487b7100000000000000000000000000000000000000000000000000000000600052603260045260246000fd5b60200101907effffffffffffffffffffffffffffffffffffffffffffffffffffffffffffff1916908160001a905350600a85611c1b9190612927565b9450611b73565b8093505050505b919050565b600080823b905060008111915050919050565b828054611c4d90612a42565b90600052602060002090601f016020900481019282611c6f5760008555611cb6565b82601f10611c8857805160ff1916838001178555611cb6565b82800160010185558215611cb6579182015b82811115611cb5578251825591602001919060010190611c9a565b5b509050611cc39190611cc7565b5090565b5b80821115611ce0576000816000905550600101611cc8565b5090565b6000611cf7611cf28461282c565b612807565b905082815260208101848484011115611d0f57600080fd5b611d1a848285612a00565b509392505050565b6000611d35611d308461285d565b612807565b905082815260208101848484011115611d4d57600080fd5b611d58848285612a00565b509392505050565b600081359050611d6f8161306a565b92915050565b600081359050611d8481613081565b92915050565b600081359050611d9981613098565b92915050565b600081519050611dae81613098565b92915050565b600082601f830112611dc557600080fd5b8135611dd5848260208601611ce4565b91505092915050565b600082601f830112611def57600080fd5b8135611dff848260208601611d22565b91505092915050565b600081359050611e17816130af565b92915050565b600060208284031215611e2f57600080fd5b6000611e3d84828501611d60565b91505092915050565b60008060408385031215611e5957600080fd5b6000611e6785828601611d60565b9250506020611e7885828601611d60565b9150509250929050565b600080600060608486031215611e9757600080fd5b6000611ea586828701611d60565b9350506020611eb686828701611d60565b9250506040611ec786828701611e08565b9150509250925092565b60008060008060808587031215611ee757600080fd5b6000611ef587828801611d60565b9450506020611f0687828801611d60565b9350506040611f1787828801611e08565b925050606085013567ffffffffffffffff811115611f3457600080fd5b611f4087828801611db4565b91505092959194509250565b60008060408385031215611f5f57600080fd5b6000611f6d85828601611d60565b9250506020611f7e85828601611d75565b9150509250929050565b60008060408385031215611f9b57600080fd5b6000611fa985828601611d60565b925050602083013567ffffffffffffffff811115611fc657600080fd5b611fd285828601611dde565b9150509250929050565b60008060408385031215611fef57600080fd5b6000611ffd85828601611d60565b925050602061200e85828601611e08565b9150509250929050565b60006020828403121561202a57600080fd5b600061203884828501611d8a565b91505092915050565b60006020828403121561205357600080fd5b600061206184828501611d9f565b91505092915050565b600080600080600060a0868803121561208257600080fd5b600086013567ffffffffffffffff81111561209c57600080fd5b6120a888828901611dde565b955050602086013567ffffffffffffffff8111156120c557600080fd5b6120d188828901611dde565b945050604086013567ffffffffffffffff8111156120ee57600080fd5b6120fa88828901611dde565b935050606061210b88828901611e08565b925050608061211c88828901611d60565b9150509295509295909350565b60006020828403121561213b57600080fd5b600061214984828501611e08565b91505092915050565b61215b8161298c565b82525050565b61216a8161299e565b82525050565b600061217b8261288e565b61218581856128a4565b9350612195818560208601612a0f565b61219e81612bdb565b840191505092915050565b60006121b482612899565b6121be81856128b5565b93506121ce818560208601612a0f565b6121d781612bdb565b840191505092915050565b60006121ed82612899565b6121f781856128c6565b9350612207818560208601612a0f565b80840191505092915050565b60006122206032836128b5565b915061222b82612bec565b604082019050919050565b6000612243601c836128b5565b915061224e82612c3b565b602082019050919050565b60006122666024836128b5565b915061227182612c64565b604082019050919050565b60006122896019836128b5565b915061229482612cb3565b602082019050919050565b60006122ac602c836128b5565b91506122b782612cdc565b604082019050919050565b60006122cf6038836128b5565b91506122da82612d2b565b604082019050919050565b60006122f2602a836128b5565b91506122fd82612d7a565b604082019050919050565b60006123156029836128b5565b915061232082612dc9565b604082019050919050565b6000612338602e836128b5565b915061234382612e18565b604082019050919050565b600061235b6020836128b5565b915061236682612e67565b602082019050919050565b600061237e6031836128b5565b915061238982612e90565b604082019050919050565b60006123a1602c836128b5565b91506123ac82612edf565b604082019050919050565b60006123c46029836128b5565b91506123cf82612f2e565b604082019050919050565b60006123e7602f836128b5565b91506123f282612f7d565b604082019050919050565b600061240a6021836128b5565b915061241582612fcc565b604082019050919050565b600061242d6031836128b5565b91506124388261301b565b604082019050919050565b61244c816129f6565b82525050565b600061245e82846121e2565b915081905092915050565b600061247582856121e2565b915061248182846121e2565b91508190509392505050565b60006020820190506124a26000830184612152565b92915050565b60006080820190506124bd6000830187612152565b6124ca6020830186612152565b6124d76040830185612443565b81810360608301526124e98184612170565b905095945050505050565b60006020820190506125096000830184612161565b92915050565b6000602082019050818103600083015261252981846121a9565b905092915050565b600060c082019050818103600083015261254b81896121a9565b9050818103602083015261255f81886121a9565b9050818103604083015261257381876121a9565b90506125826060830186612443565b61258f6080830185612443565b61259c60a0830184612152565b979650505050505050565b600060608201905081810360008301526125c181866121a9565b905081810360208301526125d581856121a9565b90506125e46040830184612443565b949350505050565b6000602082019050818103600083015261260581612213565b9050919050565b6000602082019050818103600083015261262581612236565b9050919050565b6000602082019050818103600083015261264581612259565b9050919050565b600060208201905081810360008301526126658161227c565b9050919050565b600060208201905081810360008301526126858161229f565b9050919050565b600060208201905081810360008301526126a5816122c2565b9050919050565b600060208201905081810360008301526126c5816122e5565b9050919050565b600060208201905081810360008301526126e581612308565b9050919050565b600060208201905081810360008301526127058161232b565b9050919050565b600060208201905081810360008301526127258161234e565b9050919050565b6000602082019050818103600083015261274581612371565b9050919050565b6000602082019050818103600083015261276581612394565b9050919050565b60006020820190508181036000830152612785816123b7565b9050919050565b600060208201905081810360008301526127a5816123da565b9050919050565b600060208201905081810360008301526127c5816123fd565b9050919050565b600060208201905081810360008301526127e581612420565b9050919050565b60006020820190506128016000830184612443565b92915050565b6000612811612822565b905061281d8282612a74565b919050565b6000604051905090565b600067ffffffffffffffff82111561284757612846612bac565b5b61285082612bdb565b9050602081019050919050565b600067ffffffffffffffff82111561287857612877612bac565b5b61288182612bdb565b9050602081019050919050565b600081519050919050565b600081519050919050565b600082825260208201905092915050565b600082825260208201905092915050565b600081905092915050565b60006128dc826129f6565b91506128e7836129f6565b9250827fffffffffffffffffffffffffffffffffffffffffffffffffffffffffffffffff0382111561291c5761291b612b1f565b5b828201905092915050565b6000612932826129f6565b915061293d836129f6565b92508261294d5761294c612b4e565b5b828204905092915050565b6000612963826129f6565b915061296e836129f6565b92508282101561298157612980612b1f565b5b828203905092915050565b6000612997826129d6565b9050919050565b60008115159050919050565b60007fffffffff0000000000000000000000000000000000000000000000000000000082169050919050565b600073ffffffffffffffffffffffffffffffffffffffff82169050919050565b6000819050919050565b82818337600083830152505050565b60005b83811015612a2d578082015181840152602081019050612a12565b83811115612a3c576000848401525b50505050565b60006002820490506001821680612a5a57607f821691505b60208210811415612a6e57612a6d612b7d565b5b50919050565b612a7d82612bdb565b810181811067ffffffffffffffff82111715612a9c57612a9b612bac565b5b80604052505050565b6000612ab0826129f6565b91507fffffffffffffffffffffffffffffffffffffffffffffffffffffffffffffffff821415612ae357612ae2612b1f565b5b600182019050919050565b6000612af9826129f6565b9150612b04836129f6565b925082612b1457612b13612b4e565b5b828206905092915050565b7f4e487b7100000000000000000000000000000000000000000000000000000000600052601160045260246000fd5b7f4e487b7100000000000000000000000000000000000000000000000000000000600052601260045260246000fd5b7f4e487b7100000000000000000000000000000000000000000000000000000000600052602260045260246000fd5b7f4e487b7100000000000000000000000000000000000000000000000000000000600052604160045260246000fd5b6000601f19601f8301169050919050565b7f4552433732313a207472616e7366657220746f206e6f6e20455243373231526560008201527f63656976657220696d706c656d656e7465720000000000000000000000000000602082015250565b7f4552433732313a20746f6b656e20616c7265616479206d696e74656400000000600082015250565b7f4552433732313a207472616e7366657220746f20746865207a65726f2061646460008201527f7265737300000000000000000000000000000000000000000000000000000000602082015250565b7f4552433732313a20617070726f766520746f2063616c6c657200000000000000600082015250565b7f4552433732313a206f70657261746f7220717565727920666f72206e6f6e657860008201527f697374656e7420746f6b656e0000000000000000000000000000000000000000602082015250565b7f4552433732313a20617070726f76652063616c6c6572206973206e6f74206f7760008201527f6e6572206e6f7220617070726f76656420666f7220616c6c0000000000000000602082015250565b7f4552433732313a2062616c616e636520717565727920666f7220746865207a6560008201527f726f206164647265737300000000000000000000000000000000000000000000602082015250565b7f4552433732313a206f776e657220717565727920666f72206e6f6e657869737460008201527f656e7420746f6b656e0000000000000000000000000000000000000000000000602082015250565b7f45524337323155524953746f726167653a2055524920736574206f66206e6f6e60008201527f6578697374656e7420746f6b656e000000000000000000000000000000000000602082015250565b7f4552433732313a206d696e7420746f20746865207a65726f2061646472657373600082015250565b7f45524337323155524953746f726167653a2055524920717565727920666f722060008201527f6e6f6e6578697374656e7420746f6b656e000000000000000000000000000000602082015250565b7f4552433732313a20617070726f76656420717565727920666f72206e6f6e657860008201527f697374656e7420746f6b656e0000000000000000000000000000000000000000602082015250565b7f4552433732313a207472616e73666572206f6620746f6b656e2074686174206960008201527f73206e6f74206f776e0000000000000000000000000000000000000000000000602082015250565b7f4552433732314d657461646174613a2055524920717565727920666f72206e6f60008201527f6e6578697374656e7420746f6b656e0000000000000000000000000000000000602082015250565b7f4552433732313a20617070726f76616c20746f2063757272656e74206f776e6560008201527f7200000000000000000000000000000000000000000000000000000000000000602082015250565b7f4552433732313a207472616e736665722063616c6c6572206973206e6f74206f60008201527f776e6572206e6f7220617070726f766564000000000000000000000000000000602082015250565b6130738161298c565b811461307e57600080fd5b50565b61308a8161299e565b811461309557600080fd5b50565b6130a1816129aa565b81146130ac57600080fd5b50565b6130b8816129f6565b81146130c357600080fd5b5056fea26469706673582212202bad440b89743ec03414ded9d7aca9a72cb15a7b843ced3f272f9c360763f27864736f6c63430008040033",
  "immutableReferences": {},
  "source": "//Contract based on [https://docs.openzeppelin.com/contracts/3.x/erc721](https://docs.openzeppelin.com/contracts/3.x/erc721)\n// SPDX-License-Identifier: MIT\npragma solidity ^0.8.4;\n\nimport \"@openzeppelin/contracts/token/ERC721/ERC721.sol\";\nimport \"@openzeppelin/contracts/utils/Counters.sol\";\nimport \"@openzeppelin/contracts/token/ERC721/extensions/ERC721URIStorage.sol\";\n\ncontract Card is ERC721URIStorage {\n    using Counters for Counters.Counter;\n    Counters.Counter private _tokenIds;\n\n    struct Collection {\n        string id;\n        string collectionName;\n        string athleteId;\n        uint maxSize;\n        uint numMints;\n        address addressToPay;\n    }\n\n    Collection[] public collections;\n\n    event NewCollection(\n        string collectionId,\n        string collectionName, \n        string indexed athleteId, \n        uint maxSize, \n        address indexed addressToPay\n    );\n\n    constructor() public ERC721(\"Card\", \"CRD\") {}\n\n    function createCollection(\n        string memory collectionId,\n        string memory collectionName, \n        string memory athleteId, \n        uint maxSize, \n        address addressToPay) external {\n        collections.push(Collection(collectionId, collectionName, athleteId, maxSize, 0, addressToPay));\n        emit NewCollection(collectionId, collectionName, athleteId, maxSize, addressToPay);\n    }\n\n\n    function mintNFT(address recipient, string memory tokenURI)\n        public\n        returns (uint256)\n    {\n        _tokenIds.increment();\n\n        uint256 newItemId = _tokenIds.current();\n        _mint(recipient, newItemId);\n        _setTokenURI(newItemId, tokenURI);\n\n        return newItemId;\n    }\n}",
  "sourcePath": "/Users/leojacoby/Hacking/crypto/holiday-cards/truffle/contracts/Card.sol",
  "compiler": {
    "name": "solc",
    "version": "0.8.4+commit.c7e474f2.Emscripten.clang"
  },
  "schemaVersion": "3.4.4",
  "updatedAt": "2022-02-17T05:56:06.894Z",
  "networkType": "ethereum",
  "devdoc": {
    "kind": "dev",
    "methods": {
      "approve(address,uint256)": {
        "details": "See {IERC721-approve}."
      },
      "balanceOf(address)": {
        "details": "See {IERC721-balanceOf}."
      },
      "getApproved(uint256)": {
        "details": "See {IERC721-getApproved}."
      },
      "isApprovedForAll(address,address)": {
        "details": "See {IERC721-isApprovedForAll}."
      },
      "name()": {
        "details": "See {IERC721Metadata-name}."
      },
      "ownerOf(uint256)": {
        "details": "See {IERC721-ownerOf}."
      },
      "safeTransferFrom(address,address,uint256)": {
        "details": "See {IERC721-safeTransferFrom}."
      },
      "safeTransferFrom(address,address,uint256,bytes)": {
        "details": "See {IERC721-safeTransferFrom}."
      },
      "setApprovalForAll(address,bool)": {
        "details": "See {IERC721-setApprovalForAll}."
      },
      "supportsInterface(bytes4)": {
        "details": "See {IERC165-supportsInterface}."
      },
      "symbol()": {
        "details": "See {IERC721Metadata-symbol}."
      },
      "tokenURI(uint256)": {
        "details": "See {IERC721Metadata-tokenURI}."
      },
      "transferFrom(address,address,uint256)": {
        "details": "See {IERC721-transferFrom}."
      }
    },
    "version": 1
  },
  "userdoc": {
    "kind": "user",
    "methods": {},
    "version": 1
  }
}