{
  "contractName": "Collection",
  "abi": [
    {
      "inputs": [],
      "stateMutability": "nonpayable",
      "type": "constructor"
    },
    {
      "anonymous": false,
      "inputs": [
        {
          "indexed": true,
          "internalType": "address",
          "name": "owner",
          "type": "address"
        },
        {
          "indexed": true,
          "internalType": "address",
          "name": "approved",
          "type": "address"
        },
        {
          "indexed": true,
          "internalType": "uint256",
          "name": "tokenId",
          "type": "uint256"
        }
      ],
      "name": "Approval",
      "type": "event"
    },
    {
      "anonymous": false,
      "inputs": [
        {
          "indexed": true,
          "internalType": "address",
          "name": "owner",
          "type": "address"
        },
        {
          "indexed": true,
          "internalType": "address",
          "name": "operator",
          "type": "address"
        },
        {
          "indexed": false,
          "internalType": "bool",
          "name": "approved",
          "type": "bool"
        }
      ],
      "name": "ApprovalForAll",
      "type": "event"
    },
    {
      "anonymous": false,
      "inputs": [
        {
          "indexed": true,
          "internalType": "address",
          "name": "from",
          "type": "address"
        },
        {
          "indexed": true,
          "internalType": "address",
          "name": "to",
          "type": "address"
        },
        {
          "indexed": true,
          "internalType": "uint256",
          "name": "tokenId",
          "type": "uint256"
        }
      ],
      "name": "Transfer",
      "type": "event"
    },
    {
      "inputs": [
        {
          "internalType": "address",
          "name": "to",
          "type": "address"
        },
        {
          "internalType": "uint256",
          "name": "tokenId",
          "type": "uint256"
        }
      ],
      "name": "approve",
      "outputs": [],
      "stateMutability": "nonpayable",
      "type": "function"
    },
    {
      "inputs": [
        {
          "internalType": "address",
          "name": "owner",
          "type": "address"
        }
      ],
      "name": "balanceOf",
      "outputs": [
        {
          "internalType": "uint256",
          "name": "",
          "type": "uint256"
        }
      ],
      "stateMutability": "view",
      "type": "function"
    },
    {
      "inputs": [
        {
          "internalType": "uint256",
          "name": "tokenId",
          "type": "uint256"
        }
      ],
      "name": "getApproved",
      "outputs": [
        {
          "internalType": "address",
          "name": "",
          "type": "address"
        }
      ],
      "stateMutability": "view",
      "type": "function"
    },
    {
      "inputs": [
        {
          "internalType": "address",
          "name": "owner",
          "type": "address"
        },
        {
          "internalType": "address",
          "name": "operator",
          "type": "address"
        }
      ],
      "name": "isApprovedForAll",
      "outputs": [
        {
          "internalType": "bool",
          "name": "",
          "type": "bool"
        }
      ],
      "stateMutability": "view",
      "type": "function"
    },
    {
      "inputs": [],
      "name": "name",
      "outputs": [
        {
          "internalType": "string",
          "name": "",
          "type": "string"
        }
      ],
      "stateMutability": "view",
      "type": "function"
    },
    {
      "inputs": [
        {
          "internalType": "uint256",
          "name": "tokenId",
          "type": "uint256"
        }
      ],
      "name": "ownerOf",
      "outputs": [
        {
          "internalType": "address",
          "name": "",
          "type": "address"
        }
      ],
      "stateMutability": "view",
      "type": "function"
    },
    {
      "inputs": [
        {
          "internalType": "address",
          "name": "from",
          "type": "address"
        },
        {
          "internalType": "address",
          "name": "to",
          "type": "address"
        },
        {
          "internalType": "uint256",
          "name": "tokenId",
          "type": "uint256"
        }
      ],
      "name": "safeTransferFrom",
      "outputs": [],
      "stateMutability": "nonpayable",
      "type": "function"
    },
    {
      "inputs": [
        {
          "internalType": "address",
          "name": "from",
          "type": "address"
        },
        {
          "internalType": "address",
          "name": "to",
          "type": "address"
        },
        {
          "internalType": "uint256",
          "name": "tokenId",
          "type": "uint256"
        },
        {
          "internalType": "bytes",
          "name": "_data",
          "type": "bytes"
        }
      ],
      "name": "safeTransferFrom",
      "outputs": [],
      "stateMutability": "nonpayable",
      "type": "function"
    },
    {
      "inputs": [
        {
          "internalType": "address",
          "name": "operator",
          "type": "address"
        },
        {
          "internalType": "bool",
          "name": "approved",
          "type": "bool"
        }
      ],
      "name": "setApprovalForAll",
      "outputs": [],
      "stateMutability": "nonpayable",
      "type": "function"
    },
    {
      "inputs": [
        {
          "internalType": "bytes4",
          "name": "interfaceId",
          "type": "bytes4"
        }
      ],
      "name": "supportsInterface",
      "outputs": [
        {
          "internalType": "bool",
          "name": "",
          "type": "bool"
        }
      ],
      "stateMutability": "view",
      "type": "function"
    },
    {
      "inputs": [],
      "name": "symbol",
      "outputs": [
        {
          "internalType": "string",
          "name": "",
          "type": "string"
        }
      ],
      "stateMutability": "view",
      "type": "function"
    },
    {
      "inputs": [
        {
          "internalType": "uint256",
          "name": "tokenId",
          "type": "uint256"
        }
      ],
      "name": "tokenURI",
      "outputs": [
        {
          "internalType": "string",
          "name": "",
          "type": "string"
        }
      ],
      "stateMutability": "view",
      "type": "function"
    },
    {
      "inputs": [
        {
          "internalType": "address",
          "name": "from",
          "type": "address"
        },
        {
          "internalType": "address",
          "name": "to",
          "type": "address"
        },
        {
          "internalType": "uint256",
          "name": "tokenId",
          "type": "uint256"
        }
      ],
      "name": "transferFrom",
      "outputs": [],
      "stateMutability": "nonpayable",
      "type": "function"
    },
    {
      "inputs": [
        {
          "internalType": "bytes32",
          "name": "_bytes32",
          "type": "bytes32"
        }
      ],
      "name": "bytes32ToStr",
      "outputs": [
        {
          "internalType": "string",
          "name": "",
          "type": "string"
        }
      ],
      "stateMutability": "pure",
      "type": "function"
    },
    {
      "inputs": [],
      "name": "getCurrentTokenId",
      "outputs": [
        {
          "internalType": "uint256",
          "name": "",
          "type": "uint256"
        }
      ],
      "stateMutability": "view",
      "type": "function"
    },
    {
      "inputs": [],
      "name": "getAthleteAddress",
      "outputs": [
        {
          "internalType": "address",
          "name": "",
          "type": "address"
        }
      ],
      "stateMutability": "view",
      "type": "function"
    },
    {
      "inputs": [],
      "name": "getAddressToPay",
      "outputs": [
        {
          "internalType": "address",
          "name": "",
          "type": "address"
        }
      ],
      "stateMutability": "view",
      "type": "function"
    },
    {
      "inputs": [],
      "name": "getPrice",
      "outputs": [
        {
          "internalType": "uint256",
          "name": "",
          "type": "uint256"
        }
      ],
      "stateMutability": "view",
      "type": "function"
    },
    {
      "inputs": [],
      "name": "getMaxSize",
      "outputs": [
        {
          "internalType": "uint256",
          "name": "",
          "type": "uint256"
        }
      ],
      "stateMutability": "view",
      "type": "function"
    },
    {
      "inputs": [],
      "name": "getMetadataIpfsHash",
      "outputs": [
        {
          "internalType": "string",
          "name": "",
          "type": "string"
        }
      ],
      "stateMutability": "view",
      "type": "function"
    },
    {
      "inputs": [],
      "name": "mintNFT",
      "outputs": [
        {
          "internalType": "uint256",
          "name": "",
          "type": "uint256"
        }
      ],
      "stateMutability": "payable",
      "type": "function"
    }
  ],
  "bytecode": "0x60806040523480156200001157600080fd5b506040518060400160405280600a81526020017f436f6c6c656374696f6e000000000000000000000000000000000000000000008152506040518060400160405280600381526020017f43584e0000000000000000000000000000000000000000000000000000000000815250816000908051906020019062000096929190620000b8565b508060019080519060200190620000af929190620000b8565b505050620001cd565b828054620000c69062000168565b90600052602060002090601f016020900481019282620000ea576000855562000136565b82601f106200010557805160ff191683800117855562000136565b8280016001018555821562000136579182015b828111156200013557825182559160200191906001019062000118565b5b50905062000145919062000149565b5090565b5b80821115620001645760008160009055506001016200014a565b5090565b600060028204905060018216806200018157607f821691505b602082108114156200019857620001976200019e565b5b50919050565b7f4e487b7100000000000000000000000000000000000000000000000000000000600052602260045260246000fd5b6131aa80620001dd6000396000f3fe60806040526004361061012a5760003560e01c806370a08231116100ab578063a5f24b8f1161006f578063a5f24b8f146103e7578063b88d4fde14610412578063c87b56dd1461043b578063e985e9c514610478578063eaed4fbc146104b5578063ef0b2368146104e05761012a565b806370a082311461030057806395d89b411461033d57806398d5fdca146103685780639c024b2614610393578063a22cb465146103be5761012a565b806323b872dd116100f257806323b872dd1461021b57806342842e0e14610244578063561892361461026d5780636352211e1461029857806363e1d57c146102d55761012a565b806301ffc9a71461012f57806306fdde031461016c578063081812fc14610197578063095ea7b3146101d457806314f710fe146101fd575b600080fd5b34801561013b57600080fd5b506101566004803603810190610151919061218f565b61051d565b60405161016391906125db565b60405180910390f35b34801561017857600080fd5b506101816105ff565b60405161018e91906125f6565b60405180910390f35b3480156101a357600080fd5b506101be60048036038101906101b991906121e1565b610691565b6040516101cb9190612574565b60405180910390f35b3480156101e057600080fd5b506101fb60048036038101906101f6919061212a565b610716565b005b61020561082e565b6040516102129190612858565b60405180910390f35b34801561022757600080fd5b50610242600480360381019061023d9190612024565b6109ff565b005b34801561025057600080fd5b5061026b60048036038101906102669190612024565b610a5f565b005b34801561027957600080fd5b50610282610a7f565b60405161028f9190612858565b60405180910390f35b3480156102a457600080fd5b506102bf60048036038101906102ba91906121e1565b610a8c565b6040516102cc9190612574565b60405180910390f35b3480156102e157600080fd5b506102ea610b3e565b6040516102f79190612858565b60405180910390f35b34801561030c57600080fd5b5061032760048036038101906103229190611fbf565b610b48565b6040516103349190612858565b60405180910390f35b34801561034957600080fd5b50610352610c00565b60405161035f91906125f6565b60405180910390f35b34801561037457600080fd5b5061037d610c92565b60405161038a9190612858565b60405180910390f35b34801561039f57600080fd5b506103a8610c9c565b6040516103b59190612574565b60405180910390f35b3480156103ca57600080fd5b506103e560048036038101906103e091906120ee565b610cc6565b005b3480156103f357600080fd5b506103fc610cdc565b6040516104099190612574565b60405180910390f35b34801561041e57600080fd5b5061043960048036038101906104349190612073565b610d06565b005b34801561044757600080fd5b50610462600480360381019061045d91906121e1565b610d68565b60405161046f91906125f6565b60405180910390f35b34801561048457600080fd5b5061049f600480360381019061049a9190611fe8565b610eba565b6040516104ac91906125db565b60405180910390f35b3480156104c157600080fd5b506104ca610f4e565b6040516104d791906125f6565b60405180910390f35b3480156104ec57600080fd5b5061050760048036038101906105029190612166565b610f60565b60405161051491906125f6565b60405180910390f35b60007f80ac58cd000000000000000000000000000000000000000000000000000000007bffffffffffffffffffffffffffffffffffffffffffffffffffffffff1916827bffffffffffffffffffffffffffffffffffffffffffffffffffffffff191614806105e857507f5b5e139f000000000000000000000000000000000000000000000000000000007bffffffffffffffffffffffffffffffffffffffffffffffffffffffff1916827bffffffffffffffffffffffffffffffffffffffffffffffffffffffff1916145b806105f857506105f7826110a8565b5b9050919050565b60606000805461060e90612a87565b80601f016020809104026020016040519081016040528092919081815260200182805461063a90612a87565b80156106875780601f1061065c57610100808354040283529160200191610687565b820191906000526020600020905b81548152906001019060200180831161066a57829003601f168201915b5050505050905090565b600061069c82611112565b6106db576040517f08c379a00000000000000000000000000000000000000000000000000000000081526004016106d2906127b8565b60405180910390fd5b6004600083815260200190815260200160002060009054906101000a900473ffffffffffffffffffffffffffffffffffffffff169050919050565b600061072182610a8c565b90508073ffffffffffffffffffffffffffffffffffffffff168373ffffffffffffffffffffffffffffffffffffffff161415610792576040517f08c379a000000000000000000000000000000000000000000000000000000000815260040161078990612818565b60405180910390fd5b8073ffffffffffffffffffffffffffffffffffffffff166107b161117e565b73ffffffffffffffffffffffffffffffffffffffff1614806107e057506107df816107da61117e565b610eba565b5b61081f576040517f08c379a0000000000000000000000000000000000000000000000000000000008152600401610816906126f8565b60405180910390fd5b6108298383611186565b505050565b600061083a600061123f565b600860006101000a81548173ffffffffffffffffffffffffffffffffffffffff021916908373ffffffffffffffffffffffffffffffffffffffff160217905550610884602861125b565b600981905550610894604861125b565b600a819055506108a4601461123f565b600b60006101000a81548173ffffffffffffffffffffffffffffffffffffffff021916908373ffffffffffffffffffffffffffffffffffffffff1602179055506108ee606861125b565b60001b600c81905550600954341461093b576040517f08c379a0000000000000000000000000000000000000000000000000000000008152600401610932906126d8565b60405180910390fd5b600a5460076000015410610984576040517f08c379a000000000000000000000000000000000000000000000000000000000815260040161097b90612698565b60405180910390fd5b61098e6007611274565b600061099a600761128a565b90506109a63382611298565b6109f8816109f36040518060400160405280601981526020017f676174657761792e70696e6174612e636c6f75642f69706673000000000000008152506109ee600c54610f60565b611466565b611492565b8091505090565b610a10610a0a61117e565b82611506565b610a4f576040517f08c379a0000000000000000000000000000000000000000000000000000000008152600401610a4690612838565b60405180910390fd5b610a5a8383836115e4565b505050565b610a7a83838360405180602001604052806000815250610d06565b505050565b6000600760000154905090565b6000806002600084815260200190815260200160002060009054906101000a900473ffffffffffffffffffffffffffffffffffffffff169050600073ffffffffffffffffffffffffffffffffffffffff168173ffffffffffffffffffffffffffffffffffffffff161415610b35576040517f08c379a0000000000000000000000000000000000000000000000000000000008152600401610b2c90612738565b60405180910390fd5b80915050919050565b6000600a54905090565b60008073ffffffffffffffffffffffffffffffffffffffff168273ffffffffffffffffffffffffffffffffffffffff161415610bb9576040517f08c379a0000000000000000000000000000000000000000000000000000000008152600401610bb090612718565b60405180910390fd5b600360008373ffffffffffffffffffffffffffffffffffffffff1673ffffffffffffffffffffffffffffffffffffffff168152602001908152602001600020549050919050565b606060018054610c0f90612a87565b80601f0160208091040260200160405190810160405280929190818152602001828054610c3b90612a87565b8015610c885780601f10610c5d57610100808354040283529160200191610c88565b820191906000526020600020905b815481529060010190602001808311610c6b57829003601f168201915b5050505050905090565b6000600954905090565b6000600860009054906101000a900473ffffffffffffffffffffffffffffffffffffffff16905090565b610cd8610cd161117e565b8383611840565b5050565b6000600b60009054906101000a900473ffffffffffffffffffffffffffffffffffffffff16905090565b610d17610d1161117e565b83611506565b610d56576040517f08c379a0000000000000000000000000000000000000000000000000000000008152600401610d4d90612838565b60405180910390fd5b610d62848484846119ad565b50505050565b6060610d7382611112565b610db2576040517f08c379a0000000000000000000000000000000000000000000000000000000008152600401610da990612798565b60405180910390fd5b6000600660008481526020019081526020016000208054610dd290612a87565b80601f0160208091040260200160405190810160405280929190818152602001828054610dfe90612a87565b8015610e4b5780601f10610e2057610100808354040283529160200191610e4b565b820191906000526020600020905b815481529060010190602001808311610e2e57829003601f168201915b505050505090506000610e5c611a09565b9050600081511415610e72578192505050610eb5565b600082511115610ea7578082604051602001610e8f929190612550565b60405160208183030381529060405292505050610eb5565b610eb084611a20565b925050505b919050565b6000600560008473ffffffffffffffffffffffffffffffffffffffff1673ffffffffffffffffffffffffffffffffffffffff16815260200190815260200160002060008373ffffffffffffffffffffffffffffffffffffffff1673ffffffffffffffffffffffffffffffffffffffff16815260200190815260200160002060009054906101000a900460ff16905092915050565b6060610f5b600c54610f60565b905090565b60606000602067ffffffffffffffff811115610fa5577f4e487b7100000000000000000000000000000000000000000000000000000000600052604160045260246000fd5b6040519080825280601f01601f191660200182016040528015610fd75781602001600182028036833780820191505090505b50905060005b602081101561109e5783816020811061101f577f4e487b7100000000000000000000000000000000000000000000000000000000600052603260045260246000fd5b1a60f81b82828151811061105c577f4e487b7100000000000000000000000000000000000000000000000000000000600052603260045260246000fd5b60200101907effffffffffffffffffffffffffffffffffffffffffffffffffffffffffffff1916908160001a905350808061109690612aea565b915050610fdd565b5080915050919050565b60007f01ffc9a7000000000000000000000000000000000000000000000000000000007bffffffffffffffffffffffffffffffffffffffffffffffffffffffff1916827bffffffffffffffffffffffffffffffffffffffffffffffffffffffff1916149050919050565b60008073ffffffffffffffffffffffffffffffffffffffff166002600084815260200190815260200160002060009054906101000a900473ffffffffffffffffffffffffffffffffffffffff1673ffffffffffffffffffffffffffffffffffffffff1614159050919050565b600033905090565b816004600083815260200190815260200160002060006101000a81548173ffffffffffffffffffffffffffffffffffffffff021916908373ffffffffffffffffffffffffffffffffffffffff160217905550808273ffffffffffffffffffffffffffffffffffffffff166111f983610a8c565b73ffffffffffffffffffffffffffffffffffffffff167f8c5be1e5ebec7d5bd14f71427d1e84f3dd0314c0f7b2291e5b200ac8c7c3b92560405160405180910390a45050565b60008061124a611ac7565b90508281013560601c915050919050565b600080611266611ac7565b905082810135915050919050565b6001816000016000828254019250508190555050565b600081600001549050919050565b600073ffffffffffffffffffffffffffffffffffffffff168273ffffffffffffffffffffffffffffffffffffffff161415611308576040517f08c379a00000000000000000000000000000000000000000000000000000000081526004016112ff90612778565b60405180910390fd5b61131181611112565b15611351576040517f08c379a000000000000000000000000000000000000000000000000000000000815260040161134890612638565b60405180910390fd5b61135d60008383611ada565b6001600360008473ffffffffffffffffffffffffffffffffffffffff1673ffffffffffffffffffffffffffffffffffffffff16815260200190815260200160002060008282546113ad919061290c565b92505081905550816002600083815260200190815260200160002060006101000a81548173ffffffffffffffffffffffffffffffffffffffff021916908373ffffffffffffffffffffffffffffffffffffffff160217905550808273ffffffffffffffffffffffffffffffffffffffff16600073ffffffffffffffffffffffffffffffffffffffff167fddf252ad1be2c89b69c2b068fc378daa952ba7f163c4a11628f55a4df523b3ef60405160405180910390a45050565b6060828260405160200161147b929190612550565b604051602081830303815290604052905092915050565b61149b82611112565b6114da576040517f08c379a00000000000000000000000000000000000000000000000000000000081526004016114d190612758565b60405180910390fd5b80600660008481526020019081526020016000209080519060200190611501929190611e36565b505050565b600061151182611112565b611550576040517f08c379a0000000000000000000000000000000000000000000000000000000008152600401611547906126b8565b60405180910390fd5b600061155b83610a8c565b90508073ffffffffffffffffffffffffffffffffffffffff168473ffffffffffffffffffffffffffffffffffffffff1614806115ca57508373ffffffffffffffffffffffffffffffffffffffff166115b284610691565b73ffffffffffffffffffffffffffffffffffffffff16145b806115db57506115da8185610eba565b5b91505092915050565b8273ffffffffffffffffffffffffffffffffffffffff1661160482610a8c565b73ffffffffffffffffffffffffffffffffffffffff161461165a576040517f08c379a0000000000000000000000000000000000000000000000000000000008152600401611651906127d8565b60405180910390fd5b600073ffffffffffffffffffffffffffffffffffffffff168273ffffffffffffffffffffffffffffffffffffffff1614156116ca576040517f08c379a00000000000000000000000000000000000000000000000000000000081526004016116c190612658565b60405180910390fd5b6116d5838383611ada565b6116e0600082611186565b6001600360008573ffffffffffffffffffffffffffffffffffffffff1673ffffffffffffffffffffffffffffffffffffffff16815260200190815260200160002060008282546117309190612993565b925050819055506001600360008473ffffffffffffffffffffffffffffffffffffffff1673ffffffffffffffffffffffffffffffffffffffff1681526020019081526020016000206000828254611787919061290c565b92505081905550816002600083815260200190815260200160002060006101000a81548173ffffffffffffffffffffffffffffffffffffffff021916908373ffffffffffffffffffffffffffffffffffffffff160217905550808273ffffffffffffffffffffffffffffffffffffffff168473ffffffffffffffffffffffffffffffffffffffff167fddf252ad1be2c89b69c2b068fc378daa952ba7f163c4a11628f55a4df523b3ef60405160405180910390a4505050565b8173ffffffffffffffffffffffffffffffffffffffff168373ffffffffffffffffffffffffffffffffffffffff1614156118af576040517f08c379a00000000000000000000000000000000000000000000000000000000081526004016118a690612678565b60405180910390fd5b80600560008573ffffffffffffffffffffffffffffffffffffffff1673ffffffffffffffffffffffffffffffffffffffff16815260200190815260200160002060008473ffffffffffffffffffffffffffffffffffffffff1673ffffffffffffffffffffffffffffffffffffffff16815260200190815260200160002060006101000a81548160ff0219169083151502179055508173ffffffffffffffffffffffffffffffffffffffff168373ffffffffffffffffffffffffffffffffffffffff167f17307eab39ab6107e8899845ad3d59bd9653f200f220920489ca2b5937696c31836040516119a091906125db565b60405180910390a3505050565b6119b88484846115e4565b6119c484848484611adf565b611a03576040517f08c379a00000000000000000000000000000000000000000000000000000000081526004016119fa90612618565b60405180910390fd5b50505050565b606060405180602001604052806000815250905090565b6060611a2b82611112565b611a6a576040517f08c379a0000000000000000000000000000000000000000000000000000000008152600401611a61906127f8565b60405180910390fd5b6000611a74611a09565b90506000815111611a945760405180602001604052806000815250611abf565b80611a9e84611c76565b604051602001611aaf929190612550565b6040516020818303038152906040525b915050919050565b600060028036033560f01c013603905090565b505050565b6000611b008473ffffffffffffffffffffffffffffffffffffffff16611e23565b15611c69578373ffffffffffffffffffffffffffffffffffffffff1663150b7a02611b2961117e565b8786866040518563ffffffff1660e01b8152600401611b4b949392919061258f565b602060405180830381600087803b158015611b6557600080fd5b505af1925050508015611b9657506040513d601f19601f82011682018060405250810190611b9391906121b8565b60015b611c19573d8060008114611bc6576040519150601f19603f3d011682016040523d82523d6000602084013e611bcb565b606091505b50600081511415611c11576040517f08c379a0000000000000000000000000000000000000000000000000000000008152600401611c0890612618565b60405180910390fd5b805181602001fd5b63150b7a0260e01b7bffffffffffffffffffffffffffffffffffffffffffffffffffffffff1916817bffffffffffffffffffffffffffffffffffffffffffffffffffffffff191614915050611c6e565b600190505b949350505050565b60606000821415611cbe576040518060400160405280600181526020017f30000000000000000000000000000000000000000000000000000000000000008152509050611e1e565b600082905060005b60008214611cf0578080611cd990612aea565b915050600a82611ce99190612962565b9150611cc6565b60008167ffffffffffffffff811115611d32577f4e487b7100000000000000000000000000000000000000000000000000000000600052604160045260246000fd5b6040519080825280601f01601f191660200182016040528015611d645781602001600182028036833780820191505090505b5090505b60008514611e1757600182611d7d9190612993565b9150600a85611d8c9190612b33565b6030611d98919061290c565b60f81b818381518110611dd4577f4e487b7100000000000000000000000000000000000000000000000000000000600052603260045260246000fd5b60200101907effffffffffffffffffffffffffffffffffffffffffffffffffffffffffffff1916908160001a905350600a85611e109190612962565b9450611d68565b8093505050505b919050565b600080823b905060008111915050919050565b828054611e4290612a87565b90600052602060002090601f016020900481019282611e645760008555611eab565b82601f10611e7d57805160ff1916838001178555611eab565b82800160010185558215611eab579182015b82811115611eaa578251825591602001919060010190611e8f565b5b509050611eb89190611ebc565b5090565b5b80821115611ed5576000816000905550600101611ebd565b5090565b6000611eec611ee784612898565b612873565b905082815260208101848484011115611f0457600080fd5b611f0f848285612a45565b509392505050565b600081359050611f2681613101565b92915050565b600081359050611f3b81613118565b92915050565b600081359050611f508161312f565b92915050565b600081359050611f6581613146565b92915050565b600081519050611f7a81613146565b92915050565b600082601f830112611f9157600080fd5b8135611fa1848260208601611ed9565b91505092915050565b600081359050611fb98161315d565b92915050565b600060208284031215611fd157600080fd5b6000611fdf84828501611f17565b91505092915050565b60008060408385031215611ffb57600080fd5b600061200985828601611f17565b925050602061201a85828601611f17565b9150509250929050565b60008060006060848603121561203957600080fd5b600061204786828701611f17565b935050602061205886828701611f17565b925050604061206986828701611faa565b9150509250925092565b6000806000806080858703121561208957600080fd5b600061209787828801611f17565b94505060206120a887828801611f17565b93505060406120b987828801611faa565b925050606085013567ffffffffffffffff8111156120d657600080fd5b6120e287828801611f80565b91505092959194509250565b6000806040838503121561210157600080fd5b600061210f85828601611f17565b925050602061212085828601611f2c565b9150509250929050565b6000806040838503121561213d57600080fd5b600061214b85828601611f17565b925050602061215c85828601611faa565b9150509250929050565b60006020828403121561217857600080fd5b600061218684828501611f41565b91505092915050565b6000602082840312156121a157600080fd5b60006121af84828501611f56565b91505092915050565b6000602082840312156121ca57600080fd5b60006121d884828501611f6b565b91505092915050565b6000602082840312156121f357600080fd5b600061220184828501611faa565b91505092915050565b612213816129c7565b82525050565b612222816129d9565b82525050565b6000612233826128c9565b61223d81856128df565b935061224d818560208601612a54565b61225681612c20565b840191505092915050565b600061226c826128d4565b61227681856128f0565b9350612286818560208601612a54565b61228f81612c20565b840191505092915050565b60006122a5826128d4565b6122af8185612901565b93506122bf818560208601612a54565b80840191505092915050565b60006122d86032836128f0565b91506122e382612c31565b604082019050919050565b60006122fb601c836128f0565b915061230682612c80565b602082019050919050565b600061231e6024836128f0565b915061232982612ca9565b604082019050919050565b60006123416019836128f0565b915061234c82612cf8565b602082019050919050565b60006123646016836128f0565b915061236f82612d21565b602082019050919050565b6000612387602c836128f0565b915061239282612d4a565b604082019050919050565b60006123aa6012836128f0565b91506123b582612d99565b602082019050919050565b60006123cd6038836128f0565b91506123d882612dc2565b604082019050919050565b60006123f0602a836128f0565b91506123fb82612e11565b604082019050919050565b60006124136029836128f0565b915061241e82612e60565b604082019050919050565b6000612436602e836128f0565b915061244182612eaf565b604082019050919050565b60006124596020836128f0565b915061246482612efe565b602082019050919050565b600061247c6031836128f0565b915061248782612f27565b604082019050919050565b600061249f602c836128f0565b91506124aa82612f76565b604082019050919050565b60006124c26029836128f0565b91506124cd82612fc5565b604082019050919050565b60006124e5602f836128f0565b91506124f082613014565b604082019050919050565b60006125086021836128f0565b915061251382613063565b604082019050919050565b600061252b6031836128f0565b9150612536826130b2565b604082019050919050565b61254a81612a3b565b82525050565b600061255c828561229a565b9150612568828461229a565b91508190509392505050565b6000602082019050612589600083018461220a565b92915050565b60006080820190506125a4600083018761220a565b6125b1602083018661220a565b6125be6040830185612541565b81810360608301526125d08184612228565b905095945050505050565b60006020820190506125f06000830184612219565b92915050565b600060208201905081810360008301526126108184612261565b905092915050565b60006020820190508181036000830152612631816122cb565b9050919050565b60006020820190508181036000830152612651816122ee565b9050919050565b6000602082019050818103600083015261267181612311565b9050919050565b6000602082019050818103600083015261269181612334565b9050919050565b600060208201905081810360008301526126b181612357565b9050919050565b600060208201905081810360008301526126d18161237a565b9050919050565b600060208201905081810360008301526126f18161239d565b9050919050565b60006020820190508181036000830152612711816123c0565b9050919050565b60006020820190508181036000830152612731816123e3565b9050919050565b6000602082019050818103600083015261275181612406565b9050919050565b6000602082019050818103600083015261277181612429565b9050919050565b600060208201905081810360008301526127918161244c565b9050919050565b600060208201905081810360008301526127b18161246f565b9050919050565b600060208201905081810360008301526127d181612492565b9050919050565b600060208201905081810360008301526127f1816124b5565b9050919050565b60006020820190508181036000830152612811816124d8565b9050919050565b60006020820190508181036000830152612831816124fb565b9050919050565b600060208201905081810360008301526128518161251e565b9050919050565b600060208201905061286d6000830184612541565b92915050565b600061287d61288e565b90506128898282612ab9565b919050565b6000604051905090565b600067ffffffffffffffff8211156128b3576128b2612bf1565b5b6128bc82612c20565b9050602081019050919050565b600081519050919050565b600081519050919050565b600082825260208201905092915050565b600082825260208201905092915050565b600081905092915050565b600061291782612a3b565b915061292283612a3b565b9250827fffffffffffffffffffffffffffffffffffffffffffffffffffffffffffffffff0382111561295757612956612b64565b5b828201905092915050565b600061296d82612a3b565b915061297883612a3b565b92508261298857612987612b93565b5b828204905092915050565b600061299e82612a3b565b91506129a983612a3b565b9250828210156129bc576129bb612b64565b5b828203905092915050565b60006129d282612a1b565b9050919050565b60008115159050919050565b6000819050919050565b60007fffffffff0000000000000000000000000000000000000000000000000000000082169050919050565b600073ffffffffffffffffffffffffffffffffffffffff82169050919050565b6000819050919050565b82818337600083830152505050565b60005b83811015612a72578082015181840152602081019050612a57565b83811115612a81576000848401525b50505050565b60006002820490506001821680612a9f57607f821691505b60208210811415612ab357612ab2612bc2565b5b50919050565b612ac282612c20565b810181811067ffffffffffffffff82111715612ae157612ae0612bf1565b5b80604052505050565b6000612af582612a3b565b91507fffffffffffffffffffffffffffffffffffffffffffffffffffffffffffffffff821415612b2857612b27612b64565b5b600182019050919050565b6000612b3e82612a3b565b9150612b4983612a3b565b925082612b5957612b58612b93565b5b828206905092915050565b7f4e487b7100000000000000000000000000000000000000000000000000000000600052601160045260246000fd5b7f4e487b7100000000000000000000000000000000000000000000000000000000600052601260045260246000fd5b7f4e487b7100000000000000000000000000000000000000000000000000000000600052602260045260246000fd5b7f4e487b7100000000000000000000000000000000000000000000000000000000600052604160045260246000fd5b6000601f19601f8301169050919050565b7f4552433732313a207472616e7366657220746f206e6f6e20455243373231526560008201527f63656976657220696d706c656d656e7465720000000000000000000000000000602082015250565b7f4552433732313a20746f6b656e20616c7265616479206d696e74656400000000600082015250565b7f4552433732313a207472616e7366657220746f20746865207a65726f2061646460008201527f7265737300000000000000000000000000000000000000000000000000000000602082015250565b7f4552433732313a20617070726f766520746f2063616c6c657200000000000000600082015250565b7f436f6c6c656374696f6e20697320736f6c64206f757400000000000000000000600082015250565b7f4552433732313a206f70657261746f7220717565727920666f72206e6f6e657860008201527f697374656e7420746f6b656e0000000000000000000000000000000000000000602082015250565b7f496e73756666696369656e742066756e64730000000000000000000000000000600082015250565b7f4552433732313a20617070726f76652063616c6c6572206973206e6f74206f7760008201527f6e6572206e6f7220617070726f76656420666f7220616c6c0000000000000000602082015250565b7f4552433732313a2062616c616e636520717565727920666f7220746865207a6560008201527f726f206164647265737300000000000000000000000000000000000000000000602082015250565b7f4552433732313a206f776e657220717565727920666f72206e6f6e657869737460008201527f656e7420746f6b656e0000000000000000000000000000000000000000000000602082015250565b7f45524337323155524953746f726167653a2055524920736574206f66206e6f6e60008201527f6578697374656e7420746f6b656e000000000000000000000000000000000000602082015250565b7f4552433732313a206d696e7420746f20746865207a65726f2061646472657373600082015250565b7f45524337323155524953746f726167653a2055524920717565727920666f722060008201527f6e6f6e6578697374656e7420746f6b656e000000000000000000000000000000602082015250565b7f4552433732313a20617070726f76656420717565727920666f72206e6f6e657860008201527f697374656e7420746f6b656e0000000000000000000000000000000000000000602082015250565b7f4552433732313a207472616e73666572206f6620746f6b656e2074686174206960008201527f73206e6f74206f776e0000000000000000000000000000000000000000000000602082015250565b7f4552433732314d657461646174613a2055524920717565727920666f72206e6f60008201527f6e6578697374656e7420746f6b656e0000000000000000000000000000000000602082015250565b7f4552433732313a20617070726f76616c20746f2063757272656e74206f776e6560008201527f7200000000000000000000000000000000000000000000000000000000000000602082015250565b7f4552433732313a207472616e736665722063616c6c6572206973206e6f74206f60008201527f776e6572206e6f7220617070726f766564000000000000000000000000000000602082015250565b61310a816129c7565b811461311557600080fd5b50565b613121816129d9565b811461312c57600080fd5b50565b613138816129e5565b811461314357600080fd5b50565b61314f816129ef565b811461315a57600080fd5b50565b61316681612a3b565b811461317157600080fd5b5056fea264697066735822122044af5c5b1525542a9419ee5a879cf4b1381a58c696c54908ca123ca3d870499064736f6c63430008040033",
  "immutableReferences": {},
  "source": "//Contract based on [https://docs.openzeppelin.com/contracts/3.x/erc721](https://docs.openzeppelin.com/contracts/3.x/erc721)\n// SPDX-License-Identifier: MIT\npragma solidity ^0.8.4;\n\nimport \"@openzeppelin/contracts/token/ERC721/ERC721.sol\";\nimport \"@openzeppelin/contracts/utils/Counters.sol\";\nimport \"@openzeppelin/contracts/token/ERC721/extensions/ERC721URIStorage.sol\";\nimport \"clones-with-immutable-args/Clone.sol\";\n\ncontract Collection is Clone, ERC721URIStorage {\n    using Counters for Counters.Counter;\n    Counters.Counter private _tokenId;\n    address athleteAddress;\n    uint256 price;\n    uint256 maxSize;\n    address addressToPay;\n    bytes32 metadataIpfsHash;\n\n    function append(string memory a, string memory b)\n        internal\n        pure\n        returns (string memory)\n    {\n        return string(abi.encodePacked(a, b));\n    }\n\n    function bytes32ToStr(bytes32 _bytes32)\n        public\n        pure\n        returns (string memory)\n    {\n        bytes memory bytesArray = new bytes(32);\n        for (uint256 i; i < 32; i++) {\n            bytesArray[i] = _bytes32[i];\n        }\n        return string(bytesArray);\n    }\n\n    constructor() public ERC721(\"Collection\", \"CXN\") {}\n\n    function getCurrentTokenId() external view returns (uint256) {\n        return _tokenId._value;\n    }\n\n    function getAthleteAddress() external view returns (address) {\n        return athleteAddress;\n    }\n\n    function getAddressToPay() external view returns (address) {\n        return addressToPay;\n    }\n\n    function getPrice() external view returns (uint256) {\n        return price;\n    }\n\n    function getMaxSize() external view returns (uint256) {\n        return maxSize;\n    }\n\n    function getMetadataIpfsHash() external view returns (string memory) {\n        return bytes32ToStr(metadataIpfsHash);\n    }\n\n    function mintNFT() external payable returns (uint256) {\n        athleteAddress = _getArgAddress(0);\n        price = _getArgUint256(40);\n        maxSize = _getArgUint256(72);\n        addressToPay = _getArgAddress(20);\n        metadataIpfsHash = bytes32(_getArgUint256(104));\n        require(msg.value == price, \"Insufficient funds\");\n        require(_tokenId._value < maxSize, \"Collection is sold out\");\n        _tokenId.increment();\n\n        uint256 newItemId = _tokenId.current();\n        _mint(msg.sender, newItemId);\n        _setTokenURI(\n            newItemId,\n            append(\"gateway.pinata.cloud/ipfs\", bytes32ToStr(metadataIpfsHash))\n        );\n        return newItemId;\n    }\n}\n",
  "sourcePath": "/Users/leojacoby/Hacking/crypto/holiday-cards/truffle/contracts/Collection.sol",
  "compiler": {
    "name": "solc",
    "version": "0.8.4+commit.c7e474f2.Emscripten.clang"
  },
  "schemaVersion": "3.4.4",
  "updatedAt": "2022-02-26T23:40:53.996Z",
  "devdoc": {
    "kind": "dev",
    "methods": {
      "approve(address,uint256)": {
        "details": "See {IERC721-approve}."
      },
      "balanceOf(address)": {
        "details": "See {IERC721-balanceOf}."
      },
      "getApproved(uint256)": {
        "details": "See {IERC721-getApproved}."
      },
      "isApprovedForAll(address,address)": {
        "details": "See {IERC721-isApprovedForAll}."
      },
      "name()": {
        "details": "See {IERC721Metadata-name}."
      },
      "ownerOf(uint256)": {
        "details": "See {IERC721-ownerOf}."
      },
      "safeTransferFrom(address,address,uint256)": {
        "details": "See {IERC721-safeTransferFrom}."
      },
      "safeTransferFrom(address,address,uint256,bytes)": {
        "details": "See {IERC721-safeTransferFrom}."
      },
      "setApprovalForAll(address,bool)": {
        "details": "See {IERC721-setApprovalForAll}."
      },
      "supportsInterface(bytes4)": {
        "details": "See {IERC165-supportsInterface}."
      },
      "symbol()": {
        "details": "See {IERC721Metadata-symbol}."
      },
      "tokenURI(uint256)": {
        "details": "See {IERC721Metadata-tokenURI}."
      },
      "transferFrom(address,address,uint256)": {
        "details": "See {IERC721-transferFrom}."
      }
    },
    "version": 1
  },
  "userdoc": {
    "kind": "user",
    "methods": {},
    "version": 1
  }
}