{
  "contractName": "CollectionFactory",
  "abi": [
    {
      "inputs": [
        {
          "internalType": "contract Collection",
          "name": "implementation_",
          "type": "address"
        }
      ],
      "stateMutability": "nonpayable",
      "type": "constructor"
    },
    {
      "inputs": [],
      "name": "CreateFail",
      "type": "error"
    },
    {
      "anonymous": false,
      "inputs": [
        {
          "indexed": false,
          "internalType": "string",
          "name": "id",
          "type": "string"
        },
        {
          "indexed": false,
          "internalType": "string",
          "name": "name",
          "type": "string"
        },
        {
          "indexed": false,
          "internalType": "string",
          "name": "description",
          "type": "string"
        },
        {
          "indexed": true,
          "internalType": "address",
          "name": "athleteAddress",
          "type": "address"
        },
        {
          "indexed": false,
          "internalType": "uint256",
          "name": "price",
          "type": "uint256"
        },
        {
          "indexed": false,
          "internalType": "uint256",
          "name": "maxSize",
          "type": "uint256"
        },
        {
          "indexed": true,
          "internalType": "address",
          "name": "addressToPay",
          "type": "address"
        },
        {
          "indexed": false,
          "internalType": "string",
          "name": "imageIpfsHash",
          "type": "string"
        },
        {
          "indexed": false,
          "internalType": "string",
          "name": "metadataIpfsHash",
          "type": "string"
        },
        {
          "indexed": false,
          "internalType": "address",
          "name": "contractAddress",
          "type": "address"
        }
      ],
      "name": "NewCollection",
      "type": "event"
    },
    {
      "inputs": [],
      "name": "implementation",
      "outputs": [
        {
          "internalType": "contract Collection",
          "name": "",
          "type": "address"
        }
      ],
      "stateMutability": "view",
      "type": "function"
    },
    {
      "inputs": [
        {
          "internalType": "bytes32",
          "name": "_bytes32",
          "type": "bytes32"
        }
      ],
      "name": "bytes32ToStr",
      "outputs": [
        {
          "internalType": "string",
          "name": "",
          "type": "string"
        }
      ],
      "stateMutability": "pure",
      "type": "function"
    },
    {
      "inputs": [
        {
          "internalType": "string",
          "name": "id",
          "type": "string"
        },
        {
          "internalType": "string",
          "name": "name",
          "type": "string"
        },
        {
          "internalType": "string",
          "name": "description",
          "type": "string"
        },
        {
          "internalType": "address",
          "name": "athleteAddress",
          "type": "address"
        },
        {
          "internalType": "uint256",
          "name": "price",
          "type": "uint256"
        },
        {
          "internalType": "uint256",
          "name": "maxSize",
          "type": "uint256"
        },
        {
          "internalType": "address",
          "name": "addressToPay",
          "type": "address"
        },
        {
          "internalType": "string",
          "name": "imageIpfsHash",
          "type": "string"
        },
        {
          "internalType": "bytes32",
          "name": "metadataIpfsHash",
          "type": "bytes32"
        }
      ],
      "name": "createCollection",
      "outputs": [
        {
          "internalType": "contract Collection",
          "name": "",
          "type": "address"
        }
      ],
      "stateMutability": "nonpayable",
      "type": "function"
    }
  ],
  "bytecode": "0x608060405234801561001057600080fd5b50604051610d02380380610d028339818101604052810190610032919061008e565b80600160006101000a81548173ffffffffffffffffffffffffffffffffffffffff021916908373ffffffffffffffffffffffffffffffffffffffff16021790555050610112565b600081519050610088816100fb565b92915050565b6000602082840312156100a057600080fd5b60006100ae84828501610079565b91505092915050565b60006100c2826100db565b9050919050565b60006100d4826100b7565b9050919050565b600073ffffffffffffffffffffffffffffffffffffffff82169050919050565b610104816100c9565b811461010f57600080fd5b50565b610be1806101216000396000f3fe608060405234801561001057600080fd5b50600436106100415760003560e01c80635c60da1b14610046578063c5819ddb14610064578063ef0b236814610094575b600080fd5b61004e6100c4565b60405161005b919061083c565b60405180910390f35b61007e6004803603810190610079919061060c565b6100ea565b60405161008b919061083c565b60405180910390f35b6100ae60048036038101906100a991906105e3565b6101f3565b6040516100bb9190610857565b60405180910390f35b600160009054906101000a900473ffffffffffffffffffffffffffffffffffffffff1681565b60008087858888866040516020016101069594939291906107dd565b6040516020818303038152906040529050600061016482600160009054906101000a900473ffffffffffffffffffffffffffffffffffffffff1673ffffffffffffffffffffffffffffffffffffffff1661033b90919063ffffffff16565b90508573ffffffffffffffffffffffffffffffffffffffff168973ffffffffffffffffffffffffffffffffffffffff167f7e4181a35b08054430ae9280f5028b59a4dc723e67c3db64f2f1ea273df12a5d8e8e8e8d8d8c6101c48d6101f3565b8a6040516101d9989796959493929190610879565b60405180910390a380925050509998505050505050505050565b60606000602067ffffffffffffffff811115610238577f4e487b7100000000000000000000000000000000000000000000000000000000600052604160045260246000fd5b6040519080825280601f01601f19166020018201604052801561026a5781602001600182028036833780820191505090505b50905060005b6020811015610331578381602081106102b2577f4e487b7100000000000000000000000000000000000000000000000000000000600052603260045260246000fd5b1a60f81b8282815181106102ef577f4e487b7100000000000000000000000000000000000000000000000000000000600052603260045260246000fd5b60200101907effffffffffffffffffffffffffffffffffffffffffffffffffffffffffffff1916908160001a905350808061032990610a69565b915050610270565b5080915050919050565b6000806002835101905060008160430190506000600b8203905060008060405190507f3d6100000000000000000000000000000000000000000000000000000000000081528260f01b60028201527f80600b3d3981f30000000000000000000000000000000000000000000000000060048201527f363d3d3761000000000000000000000000000000000000000000000000000000600b8201528460f01b60108201527f603836393d3d3d3661000000000000000000000000000000000000000000000060128201528460f01b601b8201527f013d730000000000000000000000000000000000000000000000000000000000601d8201528760601b60208201527f5af43d82803e903d91603657fd5bf300000000000000000000000000000000006034820152600285039450600085905060006043830190506020890193505b6020821061049f578351815260208101905060208401935060208203915061047c565b60006001836020036101000a0319905080855116825282820191508760f01b825286846000f09850600073ffffffffffffffffffffffffffffffffffffffff168973ffffffffffffffffffffffffffffffffffffffff16141561052e576040517febfef18800000000000000000000000000000000000000000000000000000000815260040160405180910390fd5b505050505050505092915050565b600061054f61054a8461093f565b61091a565b90508281526020810184848401111561056757600080fd5b6105728482856109f6565b509392505050565b60008135905061058981610b66565b92915050565b60008135905061059e81610b7d565b92915050565b600082601f8301126105b557600080fd5b81356105c584826020860161053c565b91505092915050565b6000813590506105dd81610b94565b92915050565b6000602082840312156105f557600080fd5b60006106038482850161058f565b91505092915050565b60008060008060008060008060006101208a8c03121561062b57600080fd5b60008a013567ffffffffffffffff81111561064557600080fd5b6106518c828d016105a4565b99505060208a013567ffffffffffffffff81111561066e57600080fd5b61067a8c828d016105a4565b98505060408a013567ffffffffffffffff81111561069757600080fd5b6106a38c828d016105a4565b97505060606106b48c828d0161057a565b96505060806106c58c828d016105ce565b95505060a06106d68c828d016105ce565b94505060c06106e78c828d0161057a565b93505060e08a013567ffffffffffffffff81111561070457600080fd5b6107108c828d016105a4565b9250506101006107228c828d0161058f565b9150509295985092959850929598565b61073b8161098c565b82525050565b61075261074d8261098c565b610ab2565b82525050565b6107696107648261099e565b610ac4565b82525050565b610778816109d2565b82525050565b600061078982610970565b610793818561097b565b93506107a3818560208601610a05565b6107ac81610b48565b840191505092915050565b6107c0816109c8565b82525050565b6107d76107d2826109c8565b610ae0565b82525050565b60006107e98288610741565b6014820191506107f98287610741565b60148201915061080982866107c6565b60208201915061081982856107c6565b6020820191506108298284610758565b6020820191508190509695505050505050565b6000602082019050610851600083018461076f565b92915050565b60006020820190508181036000830152610871818461077e565b905092915050565b6000610100820190508181036000830152610894818b61077e565b905081810360208301526108a8818a61077e565b905081810360408301526108bc818961077e565b90506108cb60608301886107b7565b6108d860808301876107b7565b81810360a08301526108ea818661077e565b905081810360c08301526108fe818561077e565b905061090d60e0830184610732565b9998505050505050505050565b6000610924610935565b90506109308282610a38565b919050565b6000604051905090565b600067ffffffffffffffff82111561095a57610959610b19565b5b61096382610b48565b9050602081019050919050565b600081519050919050565b600082825260208201905092915050565b6000610997826109a8565b9050919050565b6000819050919050565b600073ffffffffffffffffffffffffffffffffffffffff82169050919050565b6000819050919050565b60006109dd826109e4565b9050919050565b60006109ef826109a8565b9050919050565b82818337600083830152505050565b60005b83811015610a23578082015181840152602081019050610a08565b83811115610a32576000848401525b50505050565b610a4182610b48565b810181811067ffffffffffffffff82111715610a6057610a5f610b19565b5b80604052505050565b6000610a74826109c8565b91507fffffffffffffffffffffffffffffffffffffffffffffffffffffffffffffffff821415610aa757610aa6610aea565b5b600182019050919050565b6000610abd82610ace565b9050919050565b6000819050919050565b6000610ad982610b59565b9050919050565b6000819050919050565b7f4e487b7100000000000000000000000000000000000000000000000000000000600052601160045260246000fd5b7f4e487b7100000000000000000000000000000000000000000000000000000000600052604160045260246000fd5b6000601f19601f8301169050919050565b60008160601b9050919050565b610b6f8161098c565b8114610b7a57600080fd5b50565b610b868161099e565b8114610b9157600080fd5b50565b610b9d816109c8565b8114610ba857600080fd5b5056fea264697066735822122094b89c67e2e194f2292a50600a1795b79cba1262e8b6c360ba8c76cd702e21e664736f6c63430008040033",
  "immutableReferences": {},
  "source": "//Contract based on [https://docs.openzeppelin.com/contracts/3.x/erc721](https://docs.openzeppelin.com/contracts/3.x/erc721)\n// SPDX-License-Identifier: MIT\npragma solidity ^0.8.4;\n\nimport \"clones-with-immutable-args/ClonesWithImmutableArgs.sol\";\nimport \"./Collection.sol\";\n\ncontract CollectionFactory {\n    using ClonesWithImmutableArgs for address;\n    using Counters for Counters.Counter;\n    Counters.Counter private _tokenIds;\n\n    Collection public implementation;\n\n    event NewCollection(\n        string id,\n        string name,\n        string description,\n        address indexed athleteAddress,\n        uint256 price,\n        uint256 maxSize,\n        address indexed addressToPay,\n        string imageIpfsHash,\n        string metadataIpfsHash,\n        address contractAddress\n    );\n\n    constructor(Collection implementation_) {\n        implementation = implementation_;\n    }\n\n    function bytes32ToStr(bytes32 _bytes32)\n        public\n        pure\n        returns (string memory)\n    {\n        bytes memory bytesArray = new bytes(32);\n        for (uint256 i; i < 32; i++) {\n            bytesArray[i] = _bytes32[i];\n        }\n        return string(bytesArray);\n    }\n\n    function createCollection(\n        string memory id,\n        string memory name,\n        string memory description,\n        address athleteAddress,\n        uint256 price,\n        uint256 maxSize,\n        address addressToPay,\n        string memory imageIpfsHash,\n        bytes32 metadataIpfsHash\n    ) external returns (Collection) {\n        bytes memory data = abi.encodePacked(\n            athleteAddress,\n            addressToPay,\n            price,\n            maxSize,\n            metadataIpfsHash\n        );\n        Collection clone = Collection(address(implementation).clone(data));\n        emit NewCollection(\n            id,\n            name,\n            description,\n            athleteAddress,\n            price,\n            maxSize,\n            addressToPay,\n            imageIpfsHash,\n            bytes32ToStr(metadataIpfsHash),\n            address(clone)\n        );\n        return clone;\n    }\n}\n",
  "sourcePath": "/Users/leojacoby/Hacking/crypto/holiday-cards/truffle/contracts/CollectionFactory.sol",
  "compiler": {
    "name": "solc",
    "version": "0.8.4+commit.c7e474f2.Emscripten.clang"
  },
  "schemaVersion": "3.4.4",
  "updatedAt": "2022-02-26T23:49:42.916Z",
  "devdoc": {
    "kind": "dev",
    "methods": {},
    "version": 1
  },
  "userdoc": {
    "kind": "user",
    "methods": {},
    "version": 1
  }
}