{
  "abi": [
    {
      "inputs": [
        {
          "internalType": "contract Collection",
          "name": "implementation_",
          "type": "address"
        }
      ],
      "stateMutability": "nonpayable",
      "type": "constructor"
    },
    {
      "inputs": [],
      "name": "CreateFail",
      "type": "error"
    },
    {
      "anonymous": false,
      "inputs": [
        {
          "indexed": false,
          "internalType": "string",
          "name": "id",
          "type": "string"
        },
        {
          "indexed": false,
          "internalType": "string",
          "name": "name",
          "type": "string"
        },
        {
          "indexed": false,
          "internalType": "string",
          "name": "description",
          "type": "string"
        },
        {
          "indexed": true,
          "internalType": "address",
          "name": "athleteAddress",
          "type": "address"
        },
        {
          "indexed": false,
          "internalType": "uint256",
          "name": "price",
          "type": "uint256"
        },
        {
          "indexed": false,
          "internalType": "uint256",
          "name": "maxSize",
          "type": "uint256"
        },
        {
          "indexed": true,
          "internalType": "address",
          "name": "addressToPay",
          "type": "address"
        },
        {
          "indexed": false,
          "internalType": "string",
          "name": "imageIpfsHash",
          "type": "string"
        },
        {
          "indexed": false,
          "internalType": "string",
          "name": "metadataIpfsHash",
          "type": "string"
        },
        {
          "indexed": false,
          "internalType": "address",
          "name": "contractAddress",
          "type": "address"
        }
      ],
      "name": "NewCollection",
      "type": "event"
    },
    {
      "inputs": [
        {
          "internalType": "bytes32",
          "name": "_bytes32",
          "type": "bytes32"
        }
      ],
      "name": "bytes32ToStr",
      "outputs": [
        {
          "internalType": "string",
          "name": "",
          "type": "string"
        }
      ],
      "stateMutability": "pure",
      "type": "function"
    },
    {
      "inputs": [
        {
          "internalType": "string",
          "name": "id",
          "type": "string"
        },
        {
          "internalType": "string",
          "name": "name",
          "type": "string"
        },
        {
          "internalType": "string",
          "name": "description",
          "type": "string"
        },
        {
          "internalType": "address",
          "name": "athleteAddress",
          "type": "address"
        },
        {
          "internalType": "uint256",
          "name": "price",
          "type": "uint256"
        },
        {
          "internalType": "uint256",
          "name": "maxSize",
          "type": "uint256"
        },
        {
          "internalType": "address",
          "name": "addressToPay",
          "type": "address"
        },
        {
          "internalType": "string",
          "name": "imageIpfsHash",
          "type": "string"
        },
        {
          "internalType": "string",
          "name": "metadataIpfsHash",
          "type": "string"
        }
      ],
      "name": "createCollection",
      "outputs": [
        {
          "internalType": "contract Collection",
          "name": "",
          "type": "address"
        }
      ],
      "stateMutability": "nonpayable",
      "type": "function"
    },
    {
      "inputs": [],
      "name": "implementation",
      "outputs": [
        {
          "internalType": "contract Collection",
          "name": "",
          "type": "address"
        }
      ],
      "stateMutability": "view",
      "type": "function"
    }
  ],
  "bytecode": {
    "object": "0x608060405234801561001057600080fd5b5060405161073b38038061073b83398101604081905261002f91610054565b600180546001600160a01b0319166001600160a01b0392909216919091179055610084565b60006020828403121561006657600080fd5b81516001600160a01b038116811461007d57600080fd5b9392505050565b6106a8806100936000396000f3fe608060405234801561001057600080fd5b50600436106100415760003560e01c80635c60da1b14610046578063ef0b236814610076578063f32dc30414610096575b600080fd5b600154610059906001600160a01b031681565b6040516001600160a01b0390911681526020015b60405180910390f35b6100896100843660046102fc565b6100a9565b60405161006d9190610371565b6100596100a436600461044a565b610132565b6040805160208082528183019092526060916000919060208201818036833701905050905060005b602081101561012b578381602081106100ec576100ec610551565b1a60f81b82828151811061010257610102610551565b60200101906001600160f81b031916908160001a9053508061012381610567565b9150506100d1565b5092915050565b60008082905060008886898985604051602001610153959493929190610590565b60408051601f1981840301815291905260015490915060009061017f906001600160a01b0316836101ea565b9050866001600160a01b03168a6001600160a01b03167f7e4181a35b08054430ae9280f5028b59a4dc723e67c3db64f2f1ea273df12a5d8f8f8f8e8e8d8d8a6040516101d29897969594939291906105e4565b60405180910390a39c9b505050505050505050505050565b8051604051606160f81b81526039820160f081811b60018401526f3d81600a3d39f33d3d3d3d363d3d376160801b600384015260028401901b601383018190526560373639366160d01b6015840152601b83015262013d7360e81b601d830152606085901b6020808401919091526c5af43d3d93803e603557fd5bf360981b60348401526000939260438401929186019084604182015b602082106102a05783518152602093840193601f199092019101610281565b835160001960208490036101000a0119908116825260f088901b91830191825286846000f098506001600160a01b0389166102ee57604051631d7fde3160e31b815260040160405180910390fd5b505050505050505092915050565b60006020828403121561030e57600080fd5b5035919050565b60005b83811015610330578181015183820152602001610318565b8381111561033f576000848401525b50505050565b6000815180845261035d816020860160208601610315565b601f01601f19169290920160200192915050565b6020815260006103846020830184610345565b9392505050565b634e487b7160e01b600052604160045260246000fd5b600082601f8301126103b257600080fd5b813567ffffffffffffffff808211156103cd576103cd61038b565b604051601f8301601f19908116603f011681019082821181831017156103f5576103f561038b565b8160405283815286602085880101111561040e57600080fd5b836020870160208301376000602085830101528094505050505092915050565b80356001600160a01b038116811461044557600080fd5b919050565b60008060008060008060008060006101208a8c03121561046957600080fd5b893567ffffffffffffffff8082111561048157600080fd5b61048d8d838e016103a1565b9a5060208c01359150808211156104a357600080fd5b6104af8d838e016103a1565b995060408c01359150808211156104c557600080fd5b6104d18d838e016103a1565b98506104df60608d0161042e565b975060808c0135965060a08c013595506104fb60c08d0161042e565b945060e08c013591508082111561051157600080fd5b61051d8d838e016103a1565b93506101008c013591508082111561053457600080fd5b506105418c828d016103a1565b9150509295985092959850929598565b634e487b7160e01b600052603260045260246000fd5b600060001982141561058957634e487b7160e01b600052601160045260246000fd5b5060010190565b60006bffffffffffffffffffffffff19808860601b168352808760601b1660148401525084602883015283604883015282516105d3816068850160208701610315565b919091016068019695505050505050565b60006101008083526105f88184018c610345565b9050828103602084015261060c818b610345565b90508281036040840152610620818a610345565b905087606084015286608084015282810360a08401526106408187610345565b905082810360c08401526106548186610345565b91505060018060a01b03831660e0830152999850505050505050505056fea2646970667358221220b5c0d9b97391a5e241b06b04a34aa65a796e4f5d2fbd4586e1b8c5320026fe9964736f6c634300080a0033",
    "linkReferences": {}
  }
}