{
  "abi": [
    {
      "inputs": [
        {
          "internalType": "contract Collection",
          "name": "implementation_",
          "type": "address"
        }
      ],
      "stateMutability": "nonpayable",
      "type": "constructor"
    },
    {
      "inputs": [],
      "name": "CreateFail",
      "type": "error"
    },
    {
      "anonymous": false,
      "inputs": [
        {
          "indexed": false,
          "internalType": "string",
          "name": "id",
          "type": "string"
        },
        {
          "indexed": false,
          "internalType": "string",
          "name": "name",
          "type": "string"
        },
        {
          "indexed": false,
          "internalType": "string",
          "name": "description",
          "type": "string"
        },
        {
          "indexed": true,
          "internalType": "address",
          "name": "athleteAddress",
          "type": "address"
        },
        {
          "indexed": false,
          "internalType": "uint256",
          "name": "price",
          "type": "uint256"
        },
        {
          "indexed": false,
          "internalType": "uint256",
          "name": "maxSize",
          "type": "uint256"
        },
        {
          "indexed": true,
          "internalType": "address",
          "name": "addressToPay",
          "type": "address"
        },
        {
          "indexed": false,
          "internalType": "string",
          "name": "imageIpfsHash",
          "type": "string"
        },
        {
          "indexed": false,
          "internalType": "string",
          "name": "metadataIpfsHash",
          "type": "string"
        },
        {
          "indexed": false,
          "internalType": "address",
          "name": "contractAddress",
          "type": "address"
        }
      ],
      "name": "NewCollection",
      "type": "event"
    },
    {
      "inputs": [
        {
          "internalType": "bytes32",
          "name": "_bytes32",
          "type": "bytes32"
        }
      ],
      "name": "bytes32ToStr",
      "outputs": [
        {
          "internalType": "string",
          "name": "",
          "type": "string"
        }
      ],
      "stateMutability": "pure",
      "type": "function"
    },
    {
      "inputs": [
        {
          "internalType": "string",
          "name": "id",
          "type": "string"
        },
        {
          "internalType": "string",
          "name": "name",
          "type": "string"
        },
        {
          "internalType": "string",
          "name": "description",
          "type": "string"
        },
        {
          "internalType": "address",
          "name": "athleteAddress",
          "type": "address"
        },
        {
          "internalType": "uint256",
          "name": "price",
          "type": "uint256"
        },
        {
          "internalType": "uint256",
          "name": "maxSize",
          "type": "uint256"
        },
        {
          "internalType": "address",
          "name": "addressToPay",
          "type": "address"
        },
        {
          "internalType": "string",
          "name": "imageIpfsHash",
          "type": "string"
        },
        {
          "internalType": "bytes32",
          "name": "metadataIpfsHash",
          "type": "bytes32"
        }
      ],
      "name": "createCollection",
      "outputs": [
        {
          "internalType": "contract Collection",
          "name": "",
          "type": "address"
        }
      ],
      "stateMutability": "nonpayable",
      "type": "function"
    },
    {
      "inputs": [],
      "name": "implementation",
      "outputs": [
        {
          "internalType": "contract Collection",
          "name": "",
          "type": "address"
        }
      ],
      "stateMutability": "view",
      "type": "function"
    }
  ],
  "bytecode": {
    "object": "0x608060405234801561001057600080fd5b506040516106e63803806106e683398101604081905261002f91610054565b600180546001600160a01b0319166001600160a01b0392909216919091179055610084565b60006020828403121561006657600080fd5b81516001600160a01b038116811461007d57600080fd5b9392505050565b610653806100936000396000f3fe608060405234801561001057600080fd5b50600436106100415760003560e01c80635c60da1b14610046578063c5819ddb14610076578063ef0b236814610089575b600080fd5b600154610059906001600160a01b031681565b6040516001600160a01b0390911681526020015b60405180910390f35b6100596100843660046103e4565b6100a9565b61009c6100973660046104d0565b61018a565b60405161006d9190610536565b6040516bffffffffffffffffffffffff19606088811b8216602084015285901b166034820152604881018690526068810185905260888101829052600090819060a80160408051601f19818403018152919052600154909150600090610118906001600160a01b031683610213565b9050856001600160a01b0316896001600160a01b03167f7e4181a35b08054430ae9280f5028b59a4dc723e67c3db64f2f1ea273df12a5d8e8e8e8d8d8c61015e8d61018a565b8a604051610173989796959493929190610550565b60405180910390a39b9a5050505050505050505050565b6040805160208082528183019092526060916000919060208201818036833701905050905060005b602081101561020c578381602081106101cd576101cd6105de565b1a60f81b8282815181106101e3576101e36105de565b60200101906001600160f81b031916908160001a90535080610204816105f4565b9150506101b2565b5092915050565b8051604051606160f81b81526039820160f081811b60018401526f3d81600a3d39f33d3d3d3d363d3d376160801b600384015260028401901b601383018190526560373639366160d01b6015840152601b83015262013d7360e81b601d830152606085901b6020808401919091526c5af43d3d93803e603557fd5bf360981b60348401526000939260438401929186019084604182015b602082106102c95783518152602093840193601f1990920191016102aa565b835160001960208490036101000a0119908116825260f088901b91830191825286846000f098506001600160a01b03891661031757604051631d7fde3160e31b815260040160405180910390fd5b505050505050505092915050565b634e487b7160e01b600052604160045260246000fd5b600082601f83011261034c57600080fd5b813567ffffffffffffffff8082111561036757610367610325565b604051601f8301601f19908116603f0116810190828211818310171561038f5761038f610325565b816040528381528660208588010111156103a857600080fd5b836020870160208301376000602085830101528094505050505092915050565b80356001600160a01b03811681146103df57600080fd5b919050565b60008060008060008060008060006101208a8c03121561040357600080fd5b893567ffffffffffffffff8082111561041b57600080fd5b6104278d838e0161033b565b9a5060208c013591508082111561043d57600080fd5b6104498d838e0161033b565b995060408c013591508082111561045f57600080fd5b61046b8d838e0161033b565b985061047960608d016103c8565b975060808c0135965060a08c0135955061049560c08d016103c8565b945060e08c01359150808211156104ab57600080fd5b506104b88c828d0161033b565b9250506101008a013590509295985092959850929598565b6000602082840312156104e257600080fd5b5035919050565b6000815180845260005b8181101561050f576020818501810151868301820152016104f3565b81811115610521576000602083870101525b50601f01601f19169290920160200192915050565b60208152600061054960208301846104e9565b9392505050565b60006101008083526105648184018c6104e9565b90508281036020840152610578818b6104e9565b9050828103604084015261058c818a6104e9565b905087606084015286608084015282810360a08401526105ac81876104e9565b905082810360c08401526105c081866104e9565b91505060018060a01b03831660e08301529998505050505050505050565b634e487b7160e01b600052603260045260246000fd5b600060001982141561061657634e487b7160e01b600052601160045260246000fd5b506001019056fea26469706673582212202c0b99e9f53cf8c2f31b01aaceb6c486528904c5325528cdb26f4e8a3b4e5d2164736f6c634300080a0033",
    "linkReferences": {}
  }
}